{
  "_format": "hh-sol-artifact-1",
  "contractName": "Pal",
  "sourceName": "contracts/Pal.sol",
  "abi": [
    {
      "anonymous": false,
      "inputs": [
        {
          "indexed": false,
          "internalType": "uint8",
          "name": "version",
          "type": "uint8"
        }
      ],
      "name": "Initialized",
      "type": "event"
    },
    {
      "anonymous": false,
      "inputs": [
        {
          "indexed": true,
          "internalType": "address",
          "name": "previousOwner",
          "type": "address"
        },
        {
          "indexed": true,
          "internalType": "address",
          "name": "newOwner",
          "type": "address"
        }
      ],
      "name": "OwnershipTransferred",
      "type": "event"
    },
    {
      "anonymous": false,
      "inputs": [
        {
          "indexed": true,
          "internalType": "address",
          "name": "token",
          "type": "address"
        }
      ],
      "name": "SetMembershipToken",
      "type": "event"
    },
    {
      "anonymous": false,
      "inputs": [
        {
          "indexed": false,
          "internalType": "uint256",
          "name": "weight",
          "type": "uint256"
        }
      ],
      "name": "SetMembershipWeight",
      "type": "event"
    },
    {
      "anonymous": false,
      "inputs": [
        {
          "indexed": true,
          "internalType": "address",
          "name": "destination",
          "type": "address"
        }
      ],
      "name": "SetProtocolFeeDestination",
      "type": "event"
    },
    {
      "anonymous": false,
      "inputs": [
        {
          "indexed": false,
          "internalType": "uint256",
          "name": "percent",
          "type": "uint256"
        }
      ],
      "name": "SetProtocolFeePercent",
      "type": "event"
    },
    {
      "anonymous": false,
      "inputs": [
        {
          "indexed": false,
          "internalType": "uint256",
          "name": "percent",
          "type": "uint256"
        }
      ],
      "name": "SetTokenOwnerFeePercent",
      "type": "event"
    },
    {
      "anonymous": false,
      "inputs": [
        {
          "indexed": true,
          "internalType": "address",
          "name": "trader",
          "type": "address"
        },
        {
          "indexed": true,
          "internalType": "address",
          "name": "tokenAddress",
          "type": "address"
        },
        {
          "indexed": true,
          "internalType": "bool",
          "name": "isBuy",
          "type": "bool"
        },
        {
          "indexed": false,
          "internalType": "uint256",
          "name": "amount",
          "type": "uint256"
        },
        {
          "indexed": false,
          "internalType": "uint256",
          "name": "price",
          "type": "uint256"
        },
        {
          "indexed": false,
          "internalType": "uint256",
          "name": "protocolFee",
          "type": "uint256"
        },
        {
          "indexed": false,
          "internalType": "uint256",
          "name": "tokenOwnerFee",
          "type": "uint256"
        },
        {
          "indexed": false,
          "internalType": "uint256",
          "name": "supply",
          "type": "uint256"
        }
      ],
      "name": "Trade",
      "type": "event"
    },
    {
      "anonymous": false,
      "inputs": [
        {
          "indexed": true,
          "internalType": "address",
          "name": "owner",
          "type": "address"
        },
        {
          "indexed": true,
          "internalType": "address",
          "name": "tokenAddress",
          "type": "address"
        },
        {
          "indexed": false,
          "internalType": "string",
          "name": "name",
          "type": "string"
        },
        {
          "indexed": false,
          "internalType": "string",
          "name": "symbol",
          "type": "string"
        }
      ],
      "name": "UserTokenCreated",
      "type": "event"
    },
    {
      "inputs": [
        {
          "internalType": "address",
          "name": "tokenAddress",
          "type": "address"
        },
        {
          "internalType": "uint256",
          "name": "amount",
          "type": "uint256"
        }
      ],
      "name": "buyToken",
      "outputs": [],
      "stateMutability": "payable",
      "type": "function"
    },
    {
      "inputs": [
        {
          "internalType": "uint256",
          "name": "price",
          "type": "uint256"
        },
        {
          "internalType": "address",
          "name": "tokenOwner",
          "type": "address"
        }
      ],
      "name": "calculateAdditionalTokenOwnerFee",
      "outputs": [
        {
          "internalType": "uint256",
          "name": "",
          "type": "uint256"
        }
      ],
      "stateMutability": "view",
      "type": "function"
    },
    {
      "inputs": [
        {
          "internalType": "string",
          "name": "name",
          "type": "string"
        },
        {
          "internalType": "string",
          "name": "symbol",
          "type": "string"
        }
      ],
      "name": "createToken",
      "outputs": [
        {
          "internalType": "address",
          "name": "",
          "type": "address"
        }
      ],
      "stateMutability": "nonpayable",
      "type": "function"
    },
    {
      "inputs": [
        {
          "internalType": "address",
          "name": "tokenAddress",
          "type": "address"
        },
        {
          "internalType": "uint256",
          "name": "amount",
          "type": "uint256"
        }
      ],
      "name": "getBuyPrice",
      "outputs": [
        {
          "internalType": "uint256",
          "name": "",
          "type": "uint256"
        }
      ],
      "stateMutability": "view",
      "type": "function"
    },
    {
      "inputs": [
        {
          "internalType": "address",
          "name": "tokenAddress",
          "type": "address"
        },
        {
          "internalType": "uint256",
          "name": "amount",
          "type": "uint256"
        }
      ],
      "name": "getBuyPriceAfterFee",
      "outputs": [
        {
          "internalType": "uint256",
          "name": "",
          "type": "uint256"
        }
      ],
      "stateMutability": "view",
      "type": "function"
    },
    {
      "inputs": [
        {
          "internalType": "uint256",
          "name": "supply",
          "type": "uint256"
        },
        {
          "internalType": "uint256",
          "name": "amount",
          "type": "uint256"
        }
      ],
      "name": "getPrice",
      "outputs": [
        {
          "internalType": "uint256",
          "name": "",
          "type": "uint256"
        }
      ],
      "stateMutability": "pure",
      "type": "function"
    },
    {
      "inputs": [
        {
          "internalType": "address",
          "name": "tokenAddress",
          "type": "address"
        },
        {
          "internalType": "uint256",
          "name": "amount",
          "type": "uint256"
        }
      ],
      "name": "getSellPrice",
      "outputs": [
        {
          "internalType": "uint256",
          "name": "",
          "type": "uint256"
        }
      ],
      "stateMutability": "view",
      "type": "function"
    },
    {
      "inputs": [
        {
          "internalType": "address",
          "name": "tokenAddress",
          "type": "address"
        },
        {
          "internalType": "uint256",
          "name": "amount",
          "type": "uint256"
        }
      ],
      "name": "getSellPriceAfterFee",
      "outputs": [
        {
          "internalType": "uint256",
          "name": "",
          "type": "uint256"
        }
      ],
      "stateMutability": "view",
      "type": "function"
    },
    {
      "inputs": [
        {
          "internalType": "address payable",
          "name": "_protocolFeeDestination",
          "type": "address"
        },
        {
          "internalType": "uint256",
          "name": "_protocolFeePercent",
          "type": "uint256"
        },
        {
          "internalType": "uint256",
          "name": "_tokenOwnerFeePercent",
          "type": "uint256"
        }
      ],
      "name": "initialize",
      "outputs": [],
      "stateMutability": "nonpayable",
      "type": "function"
    },
    {
      "inputs": [
        {
          "internalType": "address",
          "name": "",
          "type": "address"
        }
      ],
      "name": "isPalUserToken",
      "outputs": [
        {
          "internalType": "bool",
          "name": "",
          "type": "bool"
        }
      ],
      "stateMutability": "view",
      "type": "function"
    },
    {
      "inputs": [],
      "name": "membershipToken",
      "outputs": [
        {
          "internalType": "contract IERC20",
          "name": "",
          "type": "address"
        }
      ],
      "stateMutability": "view",
      "type": "function"
    },
    {
      "inputs": [],
      "name": "membershipWeight",
      "outputs": [
        {
          "internalType": "uint256",
          "name": "",
          "type": "uint256"
        }
      ],
      "stateMutability": "view",
      "type": "function"
    },
    {
      "inputs": [],
      "name": "owner",
      "outputs": [
        {
          "internalType": "address",
          "name": "",
          "type": "address"
        }
      ],
      "stateMutability": "view",
      "type": "function"
    },
    {
      "inputs": [],
      "name": "protocolFeeDestination",
      "outputs": [
        {
          "internalType": "address payable",
          "name": "",
          "type": "address"
        }
      ],
      "stateMutability": "view",
      "type": "function"
    },
    {
      "inputs": [],
      "name": "protocolFeePercent",
      "outputs": [
        {
          "internalType": "uint256",
          "name": "",
          "type": "uint256"
        }
      ],
      "stateMutability": "view",
      "type": "function"
    },
    {
      "inputs": [],
      "name": "renounceOwnership",
      "outputs": [],
      "stateMutability": "nonpayable",
      "type": "function"
    },
    {
      "inputs": [
        {
          "internalType": "address",
          "name": "tokenAddress",
          "type": "address"
        },
        {
          "internalType": "uint256",
          "name": "amount",
          "type": "uint256"
        }
      ],
      "name": "sellToken",
      "outputs": [],
      "stateMutability": "nonpayable",
      "type": "function"
    },
    {
      "inputs": [
        {
          "internalType": "address",
          "name": "_token",
          "type": "address"
        }
      ],
      "name": "setMembershipToken",
      "outputs": [],
      "stateMutability": "nonpayable",
      "type": "function"
    },
    {
      "inputs": [
        {
          "internalType": "uint256",
          "name": "_weight",
          "type": "uint256"
        }
      ],
      "name": "setMembershipWeight",
      "outputs": [],
      "stateMutability": "nonpayable",
      "type": "function"
    },
    {
      "inputs": [
        {
          "internalType": "address payable",
          "name": "_feeDestination",
          "type": "address"
        }
      ],
      "name": "setProtocolFeeDestination",
      "outputs": [],
      "stateMutability": "nonpayable",
      "type": "function"
    },
    {
      "inputs": [
        {
          "internalType": "uint256",
          "name": "_feePercent",
          "type": "uint256"
        }
      ],
      "name": "setProtocolFeePercent",
      "outputs": [],
      "stateMutability": "nonpayable",
      "type": "function"
    },
    {
      "inputs": [
        {
          "internalType": "uint256",
          "name": "_feePercent",
          "type": "uint256"
        }
      ],
      "name": "setTokenOwnerFeePercent",
      "outputs": [],
      "stateMutability": "nonpayable",
      "type": "function"
    },
    {
      "inputs": [],
      "name": "tokenOwnerFeePercent",
      "outputs": [
        {
          "internalType": "uint256",
          "name": "",
          "type": "uint256"
        }
      ],
      "stateMutability": "view",
      "type": "function"
    },
    {
      "inputs": [
        {
          "internalType": "address",
          "name": "newOwner",
          "type": "address"
        }
      ],
      "name": "transferOwnership",
      "outputs": [],
      "stateMutability": "nonpayable",
      "type": "function"
    }
  ],
  "bytecode": "0x608060405234801561001057600080fd5b50613b5c806100206000396000f3fe608060405260043610620001675760003560e01c8063715018a611620000c5578063a10786b01162000078578063a10786b01462000414578063a49834211462000439578063bc4b5b04146200045e578063d6e6eb9f1462000483578063f2fde38b146200049b578063f464e7db14620004c057600080fd5b8063715018a614620003355780637a1ac61e146200034d5780638bbe34ea14620003725780638da5cb5b146200038a5780639ae7178114620003aa5780639e214b3c14620003cf57600080fd5b80633d0457ea116200011e5780633d0457ea146200026b5780634635256e14620002905780634ce7957c14620002b55780635cf4ee9114620002d757806362ad351b14620002fc57806368f8fc10146200031e57600080fd5b8063034f6436146200016c5780630f026f6d14620001935780631b68e3e514620001cb578063210db1c814620001e35780632267a89c14620002085780632f2f2d56146200022d575b600080fd5b3480156200017957600080fd5b50620001916200018b36600462001759565b620004e5565b005b348015620001a057600080fd5b50620001b8620001b236600462001780565b62000539565b6040519081526020015b60405180910390f35b348015620001d857600080fd5b50620001b860995481565b348015620001f057600080fd5b506200019162000202366004620017af565b620005c1565b3480156200021557600080fd5b50620001b86200022736600462001780565b62000671565b3480156200023a57600080fd5b50620002526200024c36600462001874565b620006ed565b6040516001600160a01b039091168152602001620001c2565b3480156200027857600080fd5b50620001916200028a366004620017af565b62000799565b3480156200029d57600080fd5b50620001b8620002af36600462001780565b620007d9565b348015620002c257600080fd5b5060975462000252906001600160a01b031681565b348015620002e457600080fd5b50620001b8620002f6366004620018df565b62000857565b3480156200030957600080fd5b50609a5462000252906001600160a01b031681565b620001916200032f36600462001780565b6200099d565b3480156200034257600080fd5b5062000191620009c1565b3480156200035a57600080fd5b50620001916200036c36600462001902565b620009d9565b3480156200037f57600080fd5b50620001b8609b5481565b3480156200039757600080fd5b506033546001600160a01b031662000252565b348015620003b757600080fd5b50620001b8620003c936600462001780565b62000bb7565b348015620003dc57600080fd5b5062000403620003ee36600462001759565b609c6020526000908152604090205460ff1681565b6040519015158152602001620001c2565b3480156200042157600080fd5b50620001916200043336600462001759565b62000c33565b3480156200044657600080fd5b506200019162000458366004620017af565b62000c87565b3480156200046b57600080fd5b50620001b86200047d3660046200193a565b62000cc7565b3480156200049057600080fd5b50620001b860985481565b348015620004a857600080fd5b5062000191620004ba36600462001759565b62000de4565b348015620004cd57600080fd5b5062000191620004df36600462001780565b62000e63565b620004ef62000e82565b609a80546001600160a01b0319166001600160a01b0383169081179091556040517f672b3ebe123fdce8664f5ad6c05f3303cd5271efe87b39a4198660792b4718f890600090a250565b600080620005488484620007d9565b90506000670de0b6b3a76400006098548362000565919062001983565b6200057191906200199d565b90506000670de0b6b3a7640000609954846200058e919062001983565b6200059a91906200199d565b905080620005a98385620019c0565b620005b59190620019c0565b93505050505b92915050565b620005cb62000e82565b609854811115620006355760405162461bcd60e51b815260206004820152602960248201527f5765696768742063616e6e6f74206578636565642070726f746f636f6c20666560448201526819481c195c98d95b9d60ba1b60648201526084015b60405180910390fd5b609b8190556040518181527f2ade04560723d86fd91731c029f53074f3638e6c08be4be7847dafb849e749db906020015b60405180910390a150565b60008062000680848462000bb7565b90506000670de0b6b3a7640000609854836200069d919062001983565b620006a991906200199d565b90506000670de0b6b3a764000060995484620006c6919062001983565b620006d291906200199d565b905080620006e18385620019d6565b620005b59190620019d6565b600080338484604051620007019062001735565b6200070f9392919062001a34565b604051809103906000f0801580156200072c573d6000803e3d6000fd5b506001600160a01b0381166000818152609c602052604090819020805460ff19166001179055519192509033907f3b31b445d96b5084b92a920644688584e11bc3d0c4dddf479f1307f2f2d73c28906200078a908890889062001a78565b60405180910390a39392505050565b620007a362000e82565b60998190556040518181527f46a6cbb523ecf70a9db3d87be664863e6dee089316374a82ebff2394d18986269060200162000666565b6000808390506200084f816001600160a01b03166318160ddd6040518163ffffffff1660e01b8152600401602060405180830381865afa15801562000822573d6000803e3d6000fd5b505050506040513d601f19601f8201168201806040525081019062000848919062001aaa565b8462000857565b949350505050565b6000806006670de0b6b3a76400006200087286600262001983565b6200088690670de0b6b3a7640000620019c0565b670de0b6b3a76400006200089b8882620019c0565b620008a7908962001983565b620008b391906200199d565b620008bf919062001983565b620008cb91906200199d565b620008d791906200199d565b905060006006670de0b6b3a7640000620008f28688620019c0565b620008ff90600262001983565b6200091390670de0b6b3a7640000620019c0565b670de0b6b3a764000087620009298a83620019c0565b620009359190620019c0565b62000941898b620019c0565b6200094d919062001983565b6200095991906200199d565b62000965919062001983565b6200097191906200199d565b6200097d91906200199d565b905060006200098d8383620019d6565b9050620005b5613e80826200199d565b6000620009ab8383620007d9565b9050620009bc838383600162000ede565b505050565b620009cb62000e82565b620009d760006200149b565b565b600054610100900460ff1615808015620009fa5750600054600160ff909116105b8062000a165750303b15801562000a16575060005460ff166001145b62000a7b5760405162461bcd60e51b815260206004820152602e60248201527f496e697469616c697a61626c653a20636f6e747261637420697320616c72656160448201526d191e481a5b9a5d1a585b1a5e995960921b60648201526084016200062c565b6000805460ff19166001179055801562000a9f576000805461ff0019166101001790555b62000aa9620014ed565b62000ab362001521565b609780546001600160a01b0319166001600160a01b038616908117909155609884905560998390556040517f72fe3f5fb15c2671900303001fbe3a8adf9df5c76bfd269a9508c8753b9c35c990600090a26040518381527f98d1698e9a7ee55a2ded97de72077c93add26ce8534679021d0e7c44edcb325b9060200160405180910390a16040518281527f46a6cbb523ecf70a9db3d87be664863e6dee089316374a82ebff2394d18986269060200160405180910390a1801562000bb1576000805461ff0019169055604051600181527f7f26b83ff96e1f2b6a682f133852f6798a09c465da95921460cefb38474024989060200160405180910390a15b50505050565b6000808390506200084f83826001600160a01b03166318160ddd6040518163ffffffff1660e01b8152600401602060405180830381865afa15801562000c01573d6000803e3d6000fd5b505050506040513d601f19601f8201168201806040525081019062000c27919062001aaa565b620008489190620019d6565b62000c3d62000e82565b609780546001600160a01b0319166001600160a01b0383169081179091556040517f72fe3f5fb15c2671900303001fbe3a8adf9df5c76bfd269a9508c8753b9c35c990600090a250565b62000c9162000e82565b60988190556040518181527f98d1698e9a7ee55a2ded97de72077c93add26ce8534679021d0e7c44edcb325b9060200162000666565b609a546000906001600160a01b031662000ce457506000620005bb565b609a546040516370a0823160e01b81526001600160a01b03848116600483015260009216906370a0823190602401602060405180830381865afa15801562000d30573d6000803e3d6000fd5b505050506040513d601f19601f8201168201806040525081019062000d56919062001aaa565b90506000670de0b6b3a764000082670de0b6b3a7640000609b548862000d7d919062001983565b62000d8991906200199d565b62000d95919062001983565b62000da191906200199d565b90506000670de0b6b3a76400006098548762000dbe919062001983565b62000dca91906200199d565b905080821062000ddb5780620005b5565b50949350505050565b62000dee62000e82565b6001600160a01b03811662000e555760405162461bcd60e51b815260206004820152602660248201527f4f776e61626c653a206e6577206f776e657220697320746865207a65726f206160448201526564647265737360d01b60648201526084016200062c565b62000e60816200149b565b50565b600062000e71838362000bb7565b9050620009bc838383600062000ede565b6033546001600160a01b03163314620009d75760405162461bcd60e51b815260206004820181905260248201527f4f776e61626c653a2063616c6c6572206973206e6f7420746865206f776e657260448201526064016200062c565b62000ee862001555565b6001600160a01b0384166000908152609c602052604090205460ff1662000f4a5760405162461bcd60e51b8152602060048201526015602482015274496e76616c696420746f6b656e206164647265737360581b60448201526064016200062c565b6099548490600090670de0b6b3a76400009062000f68908662001983565b62000f7491906200199d565b9050600062000fe285846001600160a01b0316638da5cb5b6040518163ffffffff1660e01b8152600401602060405180830381865afa15801562000fbc573d6000803e3d6000fd5b505050506040513d601f19601f820116820180604052508101906200047d919062001ac4565b9050600081670de0b6b3a76400006098548862001000919062001983565b6200100c91906200199d565b620010189190620019d6565b90508415620012085781836200102f8389620019c0565b6200103b9190620019c0565b620010479190620019c0565b3410156200108f5760405162461bcd60e51b8152602060048201526014602482015273125b9cdd59999a58da595b9d081c185e5b595b9d60621b60448201526064016200062c565b6040516340c10f1960e01b8152336004820152602481018890526001600160a01b038516906340c10f1990604401600060405180830381600087803b158015620010d857600080fd5b505af1158015620010ed573d6000803e3d6000fd5b50506097546200110a92506001600160a01b0316905082620015b0565b6200118f6200111a8385620019c0565b856001600160a01b0316638da5cb5b6040518163ffffffff1660e01b8152600401602060405180830381865afa15801562001159573d6000803e3d6000fd5b505050506040513d601f19601f820116820180604052508101906200117f919062001ac4565b6001600160a01b031690620015b0565b81836200119d8389620019c0565b620011a99190620019c0565b620011b59190620019c0565b34111562001202576000828483620011ce8a34620019d6565b620011da9190620019d6565b620011e69190620019d6565b620011f29190620019d6565b9050620012003382620015b0565b505b620013be565b6040516370a0823160e01b815233600482015287906001600160a01b038616906370a0823190602401602060405180830381865afa1580156200124f573d6000803e3d6000fd5b505050506040513d601f19601f8201168201806040525081019062001275919062001aaa565b1015620012bb5760405162461bcd60e51b8152602060048201526013602482015272496e73756666696369656e7420746f6b656e7360681b60448201526064016200062c565b604051632770a7eb60e21b8152336004820152602481018890526001600160a01b03851690639dc29fac90604401600060405180830381600087803b1580156200130457600080fd5b505af115801562001319573d6000803e3d6000fd5b505050506000828483896200132f9190620019d6565b6200133b9190620019d6565b620013479190620019d6565b9050620013553382620015b0565b6097546200136d906001600160a01b031683620015b0565b620013bc6200137d8486620019c0565b866001600160a01b0316638da5cb5b6040518163ffffffff1660e01b8152600401602060405180830381865afa15801562001159573d6000803e3d6000fd5b505b8415156001600160a01b038916337f2c76e7a47fd53e2854856ac3f0a5f3ee40d15cfaa82266357ea9779c486ab9c38a8a86620013fc898b620019c0565b8b6001600160a01b03166318160ddd6040518163ffffffff1660e01b8152600401602060405180830381865afa1580156200143b573d6000803e3d6000fd5b505050506040513d601f19601f8201168201806040525081019062001461919062001aaa565b604080519586526020860194909452928401919091526060830152608082015260a00160405180910390a45050505062000bb16001606555565b603380546001600160a01b038381166001600160a01b0319831681179093556040519116919082907f8be0079c531659141344cd1fd0a4f28419497f9722a3daafe3b4186f6b6457e090600090a35050565b600054610100900460ff16620015175760405162461bcd60e51b81526004016200062c9062001ae4565b620009d7620016d6565b600054610100900460ff166200154b5760405162461bcd60e51b81526004016200062c9062001ae4565b620009d76200170b565b600260655403620015a95760405162461bcd60e51b815260206004820152601f60248201527f5265656e7472616e637947756172643a207265656e7472616e742063616c6c0060448201526064016200062c565b6002606555565b80471015620016025760405162461bcd60e51b815260206004820152601d60248201527f416464726573733a20696e73756666696369656e742062616c616e636500000060448201526064016200062c565b6000826001600160a01b03168260405160006040518083038185875af1925050503d806000811462001651576040519150601f19603f3d011682016040523d82523d6000602084013e62001656565b606091505b5050905080620009bc5760405162461bcd60e51b815260206004820152603a60248201527f416464726573733a20756e61626c6520746f2073656e642076616c75652c207260448201527f6563697069656e74206d6179206861766520726576657274656400000000000060648201526084016200062c565b6001606555565b600054610100900460ff16620017005760405162461bcd60e51b81526004016200062c9062001ae4565b620009d7336200149b565b600054610100900460ff16620016cf5760405162461bcd60e51b81526004016200062c9062001ae4565b611ff78062001b3083390190565b6001600160a01b038116811462000e6057600080fd5b6000602082840312156200176c57600080fd5b8135620017798162001743565b9392505050565b600080604083850312156200179457600080fd5b8235620017a18162001743565b946020939093013593505050565b600060208284031215620017c257600080fd5b5035919050565b634e487b7160e01b600052604160045260246000fd5b600082601f830112620017f157600080fd5b813567ffffffffffffffff808211156200180f576200180f620017c9565b604051601f8301601f19908116603f011681019082821181831017156200183a576200183a620017c9565b816040528381528660208588010111156200185457600080fd5b836020870160208301376000602085830101528094505050505092915050565b600080604083850312156200188857600080fd5b823567ffffffffffffffff80821115620018a157600080fd5b620018af86838701620017df565b93506020850135915080821115620018c657600080fd5b50620018d585828601620017df565b9150509250929050565b60008060408385031215620018f357600080fd5b50508035926020909101359150565b6000806000606084860312156200191857600080fd5b8335620019258162001743565b95602085013595506040909401359392505050565b600080604083850312156200194e57600080fd5b823591506020830135620019628162001743565b809150509250929050565b634e487b7160e01b600052601160045260246000fd5b8082028115828204841417620005bb57620005bb6200196d565b600082620019bb57634e487b7160e01b600052601260045260246000fd5b500490565b80820180821115620005bb57620005bb6200196d565b81810381811115620005bb57620005bb6200196d565b6000815180845260005b8181101562001a1457602081850181015186830182015201620019f6565b506000602082860101526020601f19601f83011685010191505092915050565b6001600160a01b038416815260606020820181905260009062001a5a90830185620019ec565b828103604084015262001a6e8185620019ec565b9695505050505050565b60408152600062001a8d6040830185620019ec565b828103602084015262001aa18185620019ec565b95945050505050565b60006020828403121562001abd57600080fd5b5051919050565b60006020828403121562001ad757600080fd5b8151620017798162001743565b6020808252602b908201527f496e697469616c697a61626c653a20636f6e7472616374206973206e6f74206960408201526a6e697469616c697a696e6760a81b60608201526080019056fe6101806040523480156200001257600080fd5b5060405162001ff738038062001ff78339810160408190526200003591620003e8565b6040518060400160405280600e81526020016d2830b6102ab9b2b9102a37b5b2b760911b81525080604051806040016040528060018152602001603160f81b81525060405180602001604052806000815250604051806020016040528060008152508160039081620000a8919062000501565b506004620000b7828262000501565b50620000c99150839050600562000226565b61012052620000da81600662000226565b61014052815160208084019190912060e052815190820120610100524660a0526200016860e05161010051604080517f8b73c3c69bb8fe3d512ecc4cf759cc79239f7b179b0ffacaa9a75d522b39400f60208201529081019290925260608201524660808201523060a082015260009060c00160405160208183030381529060405280519060200120905090565b60805250503060c052506200017d336200025f565b3361016052600b62000190838262000501565b50600c6200019f828262000501565b50620001ab836200025f565b7f4df9dcd34ae35f40f2c756fd8ac83210ed0b76d065543ee73d868aec7c7fcf0282604051620001dc9190620005cd565b60405180910390a17fadf3ae8bd543b3007d464f15cb8ea1db3f44e84d41d203164f40b95e27558ac681604051620002159190620005cd565b60405180910390a150505062000627565b600060208351101562000246576200023e836200027d565b905062000259565b8162000253848262000501565b5060ff90505b92915050565b600a80546001600160a01b03191690556200027a81620002c9565b50565b600080829050601f81511115620002b4578260405163305a27a960e01b8152600401620002ab9190620005cd565b60405180910390fd5b8051620002c18262000602565b179392505050565b600980546001600160a01b038381166001600160a01b0319831681179093556040519116919082907f8be0079c531659141344cd1fd0a4f28419497f9722a3daafe3b4186f6b6457e090600090a35050565b634e487b7160e01b600052604160045260246000fd5b60005b838110156200034e57818101518382015260200162000334565b50506000910152565b600082601f8301126200036957600080fd5b81516001600160401b03808211156200038657620003866200031b565b604051601f8301601f19908116603f01168101908282118183101715620003b157620003b16200031b565b81604052838152866020858801011115620003cb57600080fd5b620003de84602083016020890162000331565b9695505050505050565b600080600060608486031215620003fe57600080fd5b83516001600160a01b03811681146200041657600080fd5b60208501519093506001600160401b03808211156200043457600080fd5b620004428783880162000357565b935060408601519150808211156200045957600080fd5b50620004688682870162000357565b9150509250925092565b600181811c908216806200048757607f821691505b602082108103620004a857634e487b7160e01b600052602260045260246000fd5b50919050565b601f821115620004fc57600081815260208120601f850160051c81016020861015620004d75750805b601f850160051c820191505b81811015620004f857828155600101620004e3565b5050505b505050565b81516001600160401b038111156200051d576200051d6200031b565b62000535816200052e845462000472565b84620004ae565b602080601f8311600181146200056d5760008415620005545750858301515b600019600386901b1c1916600185901b178555620004f8565b600085815260208120601f198616915b828110156200059e578886015182559484019460019091019084016200057d565b5085821015620005bd5787850151600019600388901b60f8161c191681555b5050505050600190811b01905550565b6020815260008251806020840152620005ee81604085016020870162000331565b601f01601f19169190910160400192915050565b80516020808301519190811015620004a85760001960209190910360031b1b16919050565b60805160a05160c05160e0516101005161012051610140516101605161195c6200069b6000396000818161033b0152818161048d015261065c015260006105f2015260006105c701526000610e0c01526000610de401526000610d3f01526000610d6901526000610d93015261195c6000f3fe608060405234801561001057600080fd5b50600436106101735760003560e01c806384b0196e116100de578063b84c824611610097578063dd62ed3e11610071578063dd62ed3e14610323578063e2daf86014610336578063e30c39781461035d578063f2fde38b1461036e57600080fd5b8063b84c8246146102ea578063c47f0027146102fd578063d505accf1461031057600080fd5b806384b0196e146102695780638da5cb5b1461028457806395d89b41146102a95780639dc29fac146102b1578063a457c2d7146102c4578063a9059cbb146102d757600080fd5b8063395093511161013057806339509351146101f557806340c10f191461020857806370a082311461021d578063715018a61461024657806379ba50971461024e5780637ecebe001461025657600080fd5b806306fdde0314610178578063095ea7b31461019657806318160ddd146101b957806323b872dd146101cb578063313ce567146101de5780633644e515146101ed575b600080fd5b610180610381565b60405161018d91906114f3565b60405180910390f35b6101a96101a4366004611529565b610413565b604051901515815260200161018d565b6002545b60405190815260200161018d565b6101a96101d9366004611553565b61042d565b6040516012815260200161018d565b6101bd610451565b6101a9610203366004611529565b610460565b61021b610216366004611529565b610482565b005b6101bd61022b36600461158f565b6001600160a01b031660009081526020819052604090205490565b61021b61050d565b61021b610521565b6101bd61026436600461158f565b61059b565b6102716105b9565b60405161018d97969594939291906115aa565b6009546001600160a01b03165b6040516001600160a01b03909116815260200161018d565b610180610642565b61021b6102bf366004611529565b610651565b6101a96102d2366004611529565b6106d3565b6101a96102e5366004611529565b61074e565b61021b6102f8366004611656565b61075c565b61021b61030b366004611656565b6107ab565b61021b61031e366004611707565b6107ef565b6101bd61033136600461177a565b610953565b6102917f000000000000000000000000000000000000000000000000000000000000000081565b600a546001600160a01b0316610291565b61021b61037c36600461158f565b61097e565b6060600b8054610390906117ad565b80601f01602080910402602001604051908101604052809291908181526020018280546103bc906117ad565b80156104095780601f106103de57610100808354040283529160200191610409565b820191906000526020600020905b8154815290600101906020018083116103ec57829003601f168201915b5050505050905090565b6000336104218185856109ef565b60019150505b92915050565b60003361043b858285610b14565b610446858585610b8e565b506001949350505050565b600061045b610d32565b905090565b6000336104218185856104738383610953565b61047d91906117e1565b6109ef565b336001600160a01b037f000000000000000000000000000000000000000000000000000000000000000016146104ff5760405162461bcd60e51b815260206004820152601f60248201527f50616c546f6b656e3a2063616c6c6572206973206e6f74207468652070616c0060448201526064015b60405180910390fd5b6105098282610e5d565b5050565b610515610f1c565b61051f6000610f76565b565b600a5433906001600160a01b0316811461058f5760405162461bcd60e51b815260206004820152602960248201527f4f776e61626c6532537465703a2063616c6c6572206973206e6f7420746865206044820152683732bb9037bbb732b960b91b60648201526084016104f6565b61059881610f76565b50565b6001600160a01b038116600090815260076020526040812054610427565b6000606080828080836105ed7f00000000000000000000000000000000000000000000000000000000000000006005610f8f565b6106187f00000000000000000000000000000000000000000000000000000000000000006006610f8f565b60408051600080825260208201909252600f60f81b9b939a50919850469750309650945092509050565b6060600c8054610390906117ad565b336001600160a01b037f000000000000000000000000000000000000000000000000000000000000000016146106c95760405162461bcd60e51b815260206004820152601f60248201527f50616c546f6b656e3a2063616c6c6572206973206e6f74207468652070616c0060448201526064016104f6565b610509828261103a565b600033816106e18286610953565b9050838110156107415760405162461bcd60e51b815260206004820152602560248201527f45524332303a2064656372656173656420616c6c6f77616e63652062656c6f77604482015264207a65726f60d81b60648201526084016104f6565b61044682868684036109ef565b600033610421818585610b8e565b610764610f1c565b600c6107708282611850565b507fadf3ae8bd543b3007d464f15cb8ea1db3f44e84d41d203164f40b95e27558ac6816040516107a091906114f3565b60405180910390a150565b6107b3610f1c565b600b6107bf8282611850565b507f4df9dcd34ae35f40f2c756fd8ac83210ed0b76d065543ee73d868aec7c7fcf02816040516107a091906114f3565b8342111561083f5760405162461bcd60e51b815260206004820152601d60248201527f45524332305065726d69743a206578706972656420646561646c696e6500000060448201526064016104f6565b60007f6e71edae12b1b97f4d1f60370fef10105fa2faae0126114a169c64845d6126c988888861086e8c611169565b6040805160208101969096526001600160a01b0394851690860152929091166060840152608083015260a082015260c0810186905260e00160405160208183030381529060405280519060200120905060006108c982611191565b905060006108d9828787876111be565b9050896001600160a01b0316816001600160a01b03161461093c5760405162461bcd60e51b815260206004820152601e60248201527f45524332305065726d69743a20696e76616c6964207369676e6174757265000060448201526064016104f6565b6109478a8a8a6109ef565b50505050505050505050565b6001600160a01b03918216600090815260016020908152604080832093909416825291909152205490565b610986610f1c565b600a80546001600160a01b0383166001600160a01b031990911681179091556109b76009546001600160a01b031690565b6001600160a01b03167f38d16b8cac22d99fc7c124b9cd0de2d3fa1faef420bfe791d8c362d765e2270060405160405180910390a350565b6001600160a01b038316610a515760405162461bcd60e51b8152602060048201526024808201527f45524332303a20617070726f76652066726f6d20746865207a65726f206164646044820152637265737360e01b60648201526084016104f6565b6001600160a01b038216610ab25760405162461bcd60e51b815260206004820152602260248201527f45524332303a20617070726f766520746f20746865207a65726f206164647265604482015261737360f01b60648201526084016104f6565b6001600160a01b0383811660008181526001602090815260408083209487168084529482529182902085905590518481527f8c5be1e5ebec7d5bd14f71427d1e84f3dd0314c0f7b2291e5b200ac8c7c3b92591015b60405180910390a3505050565b6000610b208484610953565b90506000198114610b885781811015610b7b5760405162461bcd60e51b815260206004820152601d60248201527f45524332303a20696e73756666696369656e7420616c6c6f77616e636500000060448201526064016104f6565b610b8884848484036109ef565b50505050565b6001600160a01b038316610bf25760405162461bcd60e51b815260206004820152602560248201527f45524332303a207472616e736665722066726f6d20746865207a65726f206164604482015264647265737360d81b60648201526084016104f6565b6001600160a01b038216610c545760405162461bcd60e51b815260206004820152602360248201527f45524332303a207472616e7366657220746f20746865207a65726f206164647260448201526265737360e81b60648201526084016104f6565b6001600160a01b03831660009081526020819052604090205481811015610ccc5760405162461bcd60e51b815260206004820152602660248201527f45524332303a207472616e7366657220616d6f756e7420657863656564732062604482015265616c616e636560d01b60648201526084016104f6565b6001600160a01b03848116600081815260208181526040808320878703905593871680835291849020805487019055925185815290927fddf252ad1be2c89b69c2b068fc378daa952ba7f163c4a11628f55a4df523b3ef910160405180910390a3610b88565b6000306001600160a01b037f000000000000000000000000000000000000000000000000000000000000000016148015610d8b57507f000000000000000000000000000000000000000000000000000000000000000046145b15610db557507f000000000000000000000000000000000000000000000000000000000000000090565b61045b604080517f8b73c3c69bb8fe3d512ecc4cf759cc79239f7b179b0ffacaa9a75d522b39400f60208201527f0000000000000000000000000000000000000000000000000000000000000000918101919091527f000000000000000000000000000000000000000000000000000000000000000060608201524660808201523060a082015260009060c00160405160208183030381529060405280519060200120905090565b6001600160a01b038216610eb35760405162461bcd60e51b815260206004820152601f60248201527f45524332303a206d696e7420746f20746865207a65726f20616464726573730060448201526064016104f6565b8060026000828254610ec591906117e1565b90915550506001600160a01b038216600081815260208181526040808320805486019055518481527fddf252ad1be2c89b69c2b068fc378daa952ba7f163c4a11628f55a4df523b3ef910160405180910390a35050565b6009546001600160a01b0316331461051f5760405162461bcd60e51b815260206004820181905260248201527f4f776e61626c653a2063616c6c6572206973206e6f7420746865206f776e657260448201526064016104f6565b600a80546001600160a01b0319169055610598816111e6565b606060ff8314610fa957610fa283611238565b9050610427565b818054610fb5906117ad565b80601f0160208091040260200160405190810160405280929190818152602001828054610fe1906117ad565b801561102e5780601f106110035761010080835404028352916020019161102e565b820191906000526020600020905b81548152906001019060200180831161101157829003601f168201915b50505050509050610427565b6001600160a01b03821661109a5760405162461bcd60e51b815260206004820152602160248201527f45524332303a206275726e2066726f6d20746865207a65726f206164647265736044820152607360f81b60648201526084016104f6565b6001600160a01b0382166000908152602081905260409020548181101561110e5760405162461bcd60e51b815260206004820152602260248201527f45524332303a206275726e20616d6f756e7420657863656564732062616c616e604482015261636560f01b60648201526084016104f6565b6001600160a01b0383166000818152602081815260408083208686039055600280548790039055518581529192917fddf252ad1be2c89b69c2b068fc378daa952ba7f163c4a11628f55a4df523b3ef9101610b07565b505050565b6001600160a01b03811660009081526007602052604090208054600181018255905b50919050565b600061042761119e610d32565b8360405161190160f01b8152600281019290925260228201526042902090565b60008060006111cf87878787611277565b915091506111dc8161133b565b5095945050505050565b600980546001600160a01b038381166001600160a01b0319831681179093556040519116919082907f8be0079c531659141344cd1fd0a4f28419497f9722a3daafe3b4186f6b6457e090600090a35050565b6060600061124583611485565b604080516020808252818301909252919250600091906020820181803683375050509182525060208101929092525090565b6000807f7fffffffffffffffffffffffffffffff5d576e7357a4501ddfe92f46681b20a08311156112ae5750600090506003611332565b6040805160008082526020820180845289905260ff881692820192909252606081018690526080810185905260019060a0016020604051602081039080840390855afa158015611302573d6000803e3d6000fd5b5050604051601f1901519150506001600160a01b03811661132b57600060019250925050611332565b9150600090505b94509492505050565b600081600481111561134f5761134f611910565b036113575750565b600181600481111561136b5761136b611910565b036113b85760405162461bcd60e51b815260206004820152601860248201527f45434453413a20696e76616c6964207369676e6174757265000000000000000060448201526064016104f6565b60028160048111156113cc576113cc611910565b036114195760405162461bcd60e51b815260206004820152601f60248201527f45434453413a20696e76616c6964207369676e6174757265206c656e6774680060448201526064016104f6565b600381600481111561142d5761142d611910565b036105985760405162461bcd60e51b815260206004820152602260248201527f45434453413a20696e76616c6964207369676e6174757265202773272076616c604482015261756560f01b60648201526084016104f6565b600060ff8216601f81111561042757604051632cd44ac360e21b815260040160405180910390fd5b6000815180845260005b818110156114d3576020818501810151868301820152016114b7565b506000602082860101526020601f19601f83011685010191505092915050565b60208152600061150660208301846114ad565b9392505050565b80356001600160a01b038116811461152457600080fd5b919050565b6000806040838503121561153c57600080fd5b6115458361150d565b946020939093013593505050565b60008060006060848603121561156857600080fd5b6115718461150d565b925061157f6020850161150d565b9150604084013590509250925092565b6000602082840312156115a157600080fd5b6115068261150d565b60ff60f81b881681526000602060e0818401526115ca60e084018a6114ad565b83810360408501526115dc818a6114ad565b606085018990526001600160a01b038816608086015260a0850187905284810360c0860152855180825283870192509083019060005b8181101561162e57835183529284019291840191600101611612565b50909c9b505050505050505050505050565b634e487b7160e01b600052604160045260246000fd5b60006020828403121561166857600080fd5b813567ffffffffffffffff8082111561168057600080fd5b818401915084601f83011261169457600080fd5b8135818111156116a6576116a6611640565b604051601f8201601f19908116603f011681019083821181831017156116ce576116ce611640565b816040528281528760208487010111156116e757600080fd5b826020860160208301376000928101602001929092525095945050505050565b600080600080600080600060e0888a03121561172257600080fd5b61172b8861150d565b96506117396020890161150d565b95506040880135945060608801359350608088013560ff8116811461175d57600080fd5b9699959850939692959460a0840135945060c09093013592915050565b6000806040838503121561178d57600080fd5b6117968361150d565b91506117a46020840161150d565b90509250929050565b600181811c908216806117c157607f821691505b60208210810361118b57634e487b7160e01b600052602260045260246000fd5b8082018082111561042757634e487b7160e01b600052601160045260246000fd5b601f82111561116457600081815260208120601f850160051c810160208610156118295750805b601f850160051c820191505b8181101561184857828155600101611835565b505050505050565b815167ffffffffffffffff81111561186a5761186a611640565b61187e8161187884546117ad565b84611802565b602080601f8311600181146118b3576000841561189b5750858301515b600019600386901b1c1916600185901b178555611848565b600085815260208120601f198616915b828110156118e2578886015182559484019460019091019084016118c3565b50858210156119005787850151600019600388901b60f8161c191681555b5050505050600190811b01905550565b634e487b7160e01b600052602160045260246000fdfea26469706673582212206cdebd7f024cefef3296513811273b34249d6c890794561ec4db10fb9ab612ff64736f6c63430008140033a26469706673582212206aa7cb4c8103d133854b738ad59628aa6cc164bffa88d9aef45da476d20c714364736f6c63430008140033",
  "linkReferences": {},
  "deployedLinkReferences": {}
}