{
  "_format": "hh-sol-artifact-1",
  "contractName": "Pal",
  "sourceName": "contracts/Pal.sol",
  "abi": [
    {
      "anonymous": false,
      "inputs": [
        {
          "indexed": false,
          "internalType": "uint8",
          "name": "version",
          "type": "uint8"
        }
      ],
      "name": "Initialized",
      "type": "event"
    },
    {
      "anonymous": false,
      "inputs": [
        {
          "indexed": true,
          "internalType": "address",
          "name": "previousOwner",
          "type": "address"
        },
        {
          "indexed": true,
          "internalType": "address",
          "name": "newOwner",
          "type": "address"
        }
      ],
      "name": "OwnershipTransferred",
      "type": "event"
    },
    {
      "anonymous": false,
      "inputs": [
        {
          "indexed": true,
          "internalType": "address",
          "name": "trader",
          "type": "address"
        },
        {
          "indexed": true,
          "internalType": "address",
          "name": "tokenAddress",
          "type": "address"
        },
        {
          "indexed": true,
          "internalType": "bool",
          "name": "isBuy",
          "type": "bool"
        },
        {
          "indexed": false,
          "internalType": "uint256",
          "name": "amount",
          "type": "uint256"
        },
        {
          "indexed": false,
          "internalType": "uint256",
          "name": "price",
          "type": "uint256"
        },
        {
          "indexed": false,
          "internalType": "uint256",
          "name": "protocolFee",
          "type": "uint256"
        },
        {
          "indexed": false,
          "internalType": "uint256",
          "name": "tokenOwnerFee",
          "type": "uint256"
        },
        {
          "indexed": false,
          "internalType": "uint256",
          "name": "supply",
          "type": "uint256"
        }
      ],
      "name": "Trade",
      "type": "event"
    },
    {
      "anonymous": false,
      "inputs": [
        {
          "indexed": true,
          "internalType": "address",
          "name": "owner",
          "type": "address"
        },
        {
          "indexed": false,
          "internalType": "address",
          "name": "tokenAddress",
          "type": "address"
        },
        {
          "indexed": false,
          "internalType": "string",
          "name": "name",
          "type": "string"
        },
        {
          "indexed": false,
          "internalType": "string",
          "name": "symbol",
          "type": "string"
        }
      ],
      "name": "UserTokenCreated",
      "type": "event"
    },
    {
      "inputs": [
        {
          "internalType": "address",
          "name": "tokenAddress",
          "type": "address"
        },
        {
          "internalType": "uint256",
          "name": "amount",
          "type": "uint256"
        }
      ],
      "name": "buyToken",
      "outputs": [],
      "stateMutability": "payable",
      "type": "function"
    },
    {
      "inputs": [
        {
          "internalType": "uint256",
          "name": "price",
          "type": "uint256"
        },
        {
          "internalType": "address",
          "name": "tokenOwner",
          "type": "address"
        }
      ],
      "name": "calculateAdditionalTokenOwnerFee",
      "outputs": [
        {
          "internalType": "uint256",
          "name": "",
          "type": "uint256"
        }
      ],
      "stateMutability": "view",
      "type": "function"
    },
    {
      "inputs": [
        {
          "internalType": "string",
          "name": "name",
          "type": "string"
        },
        {
          "internalType": "string",
          "name": "symbol",
          "type": "string"
        }
      ],
      "name": "createToken",
      "outputs": [
        {
          "internalType": "address",
          "name": "",
          "type": "address"
        }
      ],
      "stateMutability": "nonpayable",
      "type": "function"
    },
    {
      "inputs": [
        {
          "internalType": "address",
          "name": "tokenAddress",
          "type": "address"
        },
        {
          "internalType": "uint256",
          "name": "amount",
          "type": "uint256"
        }
      ],
      "name": "getBuyPrice",
      "outputs": [
        {
          "internalType": "uint256",
          "name": "",
          "type": "uint256"
        }
      ],
      "stateMutability": "view",
      "type": "function"
    },
    {
      "inputs": [
        {
          "internalType": "address",
          "name": "tokenAddress",
          "type": "address"
        },
        {
          "internalType": "uint256",
          "name": "amount",
          "type": "uint256"
        }
      ],
      "name": "getBuyPriceAfterFee",
      "outputs": [
        {
          "internalType": "uint256",
          "name": "",
          "type": "uint256"
        }
      ],
      "stateMutability": "view",
      "type": "function"
    },
    {
      "inputs": [
        {
          "internalType": "uint256",
          "name": "supply",
          "type": "uint256"
        },
        {
          "internalType": "uint256",
          "name": "amount",
          "type": "uint256"
        }
      ],
      "name": "getPrice",
      "outputs": [
        {
          "internalType": "uint256",
          "name": "",
          "type": "uint256"
        }
      ],
      "stateMutability": "pure",
      "type": "function"
    },
    {
      "inputs": [
        {
          "internalType": "address",
          "name": "tokenAddress",
          "type": "address"
        },
        {
          "internalType": "uint256",
          "name": "amount",
          "type": "uint256"
        }
      ],
      "name": "getSellPrice",
      "outputs": [
        {
          "internalType": "uint256",
          "name": "",
          "type": "uint256"
        }
      ],
      "stateMutability": "view",
      "type": "function"
    },
    {
      "inputs": [
        {
          "internalType": "address",
          "name": "tokenAddress",
          "type": "address"
        },
        {
          "internalType": "uint256",
          "name": "amount",
          "type": "uint256"
        }
      ],
      "name": "getSellPriceAfterFee",
      "outputs": [
        {
          "internalType": "uint256",
          "name": "",
          "type": "uint256"
        }
      ],
      "stateMutability": "view",
      "type": "function"
    },
    {
      "inputs": [
        {
          "internalType": "address payable",
          "name": "_protocolFeeDestination",
          "type": "address"
        },
        {
          "internalType": "uint256",
          "name": "_protocolFeePercent",
          "type": "uint256"
        },
        {
          "internalType": "uint256",
          "name": "_tokenOwnerFeePercent",
          "type": "uint256"
        }
      ],
      "name": "initialize",
      "outputs": [],
      "stateMutability": "nonpayable",
      "type": "function"
    },
    {
      "inputs": [
        {
          "internalType": "address",
          "name": "",
          "type": "address"
        }
      ],
      "name": "isPalUserToken",
      "outputs": [
        {
          "internalType": "bool",
          "name": "",
          "type": "bool"
        }
      ],
      "stateMutability": "view",
      "type": "function"
    },
    {
      "inputs": [],
      "name": "membershipToken",
      "outputs": [
        {
          "internalType": "contract IERC20",
          "name": "",
          "type": "address"
        }
      ],
      "stateMutability": "view",
      "type": "function"
    },
    {
      "inputs": [],
      "name": "membershipWeight",
      "outputs": [
        {
          "internalType": "uint256",
          "name": "",
          "type": "uint256"
        }
      ],
      "stateMutability": "view",
      "type": "function"
    },
    {
      "inputs": [],
      "name": "owner",
      "outputs": [
        {
          "internalType": "address",
          "name": "",
          "type": "address"
        }
      ],
      "stateMutability": "view",
      "type": "function"
    },
    {
      "inputs": [],
      "name": "protocolFeeDestination",
      "outputs": [
        {
          "internalType": "address payable",
          "name": "",
          "type": "address"
        }
      ],
      "stateMutability": "view",
      "type": "function"
    },
    {
      "inputs": [],
      "name": "protocolFeePercent",
      "outputs": [
        {
          "internalType": "uint256",
          "name": "",
          "type": "uint256"
        }
      ],
      "stateMutability": "view",
      "type": "function"
    },
    {
      "inputs": [],
      "name": "renounceOwnership",
      "outputs": [],
      "stateMutability": "nonpayable",
      "type": "function"
    },
    {
      "inputs": [
        {
          "internalType": "address",
          "name": "tokenAddress",
          "type": "address"
        },
        {
          "internalType": "uint256",
          "name": "amount",
          "type": "uint256"
        }
      ],
      "name": "sellToken",
      "outputs": [],
      "stateMutability": "nonpayable",
      "type": "function"
    },
    {
      "inputs": [
        {
          "internalType": "address",
          "name": "_token",
          "type": "address"
        }
      ],
      "name": "setMembershipToken",
      "outputs": [],
      "stateMutability": "nonpayable",
      "type": "function"
    },
    {
      "inputs": [
        {
          "internalType": "uint256",
          "name": "_weight",
          "type": "uint256"
        }
      ],
      "name": "setMembershipWeight",
      "outputs": [],
      "stateMutability": "nonpayable",
      "type": "function"
    },
    {
      "inputs": [
        {
          "internalType": "address payable",
          "name": "_feeDestination",
          "type": "address"
        }
      ],
      "name": "setProtocolFeeDestination",
      "outputs": [],
      "stateMutability": "nonpayable",
      "type": "function"
    },
    {
      "inputs": [
        {
          "internalType": "uint256",
          "name": "_feePercent",
          "type": "uint256"
        }
      ],
      "name": "setProtocolFeePercent",
      "outputs": [],
      "stateMutability": "nonpayable",
      "type": "function"
    },
    {
      "inputs": [
        {
          "internalType": "uint256",
          "name": "_feePercent",
          "type": "uint256"
        }
      ],
      "name": "setTokenOwnerFeePercent",
      "outputs": [],
      "stateMutability": "nonpayable",
      "type": "function"
    },
    {
      "inputs": [],
      "name": "tokenOwnerFeePercent",
      "outputs": [
        {
          "internalType": "uint256",
          "name": "",
          "type": "uint256"
        }
      ],
      "stateMutability": "view",
      "type": "function"
    },
    {
      "inputs": [
        {
          "internalType": "address",
          "name": "newOwner",
          "type": "address"
        }
      ],
      "name": "transferOwnership",
      "outputs": [],
      "stateMutability": "nonpayable",
      "type": "function"
    }
  ],
  "bytecode": "0x608060405234801561001057600080fd5b50613920806100206000396000f3fe608060405260043610620001675760003560e01c8063715018a611620000c5578063a10786b01162000078578063a10786b01462000414578063a49834211462000439578063bc4b5b04146200045e578063d6e6eb9f1462000483578063f2fde38b146200049b578063f464e7db14620004c057600080fd5b8063715018a614620003355780637a1ac61e146200034d5780638bbe34ea14620003725780638da5cb5b146200038a5780639ae7178114620003aa5780639e214b3c14620003cf57600080fd5b80633d0457ea116200011e5780633d0457ea146200026b5780634635256e14620002905780634ce7957c14620002b55780635cf4ee9114620002d757806362ad351b14620002fc57806368f8fc10146200031e57600080fd5b8063034f6436146200016c5780630f026f6d14620001935780631b68e3e514620001cb578063210db1c814620001e35780632267a89c14620002085780632f2f2d56146200022d575b600080fd5b3480156200017957600080fd5b50620001916200018b366004620015df565b620004e5565b005b348015620001a057600080fd5b50620001b8620001b236600462001606565b62000511565b6040519081526020015b60405180910390f35b348015620001d857600080fd5b50620001b860995481565b348015620001f057600080fd5b50620001916200020236600462001635565b62000599565b3480156200021557600080fd5b50620001b86200022736600462001606565b62000612565b3480156200023a57600080fd5b50620002526200024c366004620016fa565b6200068e565b6040516001600160a01b039091168152602001620001c2565b3480156200027857600080fd5b50620001916200028a36600462001635565b6200073b565b3480156200029d57600080fd5b50620001b8620002af36600462001606565b6200074a565b348015620002c257600080fd5b5060975462000252906001600160a01b031681565b348015620002e457600080fd5b50620001b8620002f636600462001765565b620007c8565b3480156200030957600080fd5b50609a5462000252906001600160a01b031681565b620001916200032f36600462001606565b6200090e565b3480156200034257600080fd5b506200019162000932565b3480156200035a57600080fd5b50620001916200036c36600462001788565b6200094a565b3480156200037f57600080fd5b50620001b8609b5481565b3480156200039757600080fd5b506033546001600160a01b031662000252565b348015620003b757600080fd5b50620001b8620003c936600462001606565b62000a96565b348015620003dc57600080fd5b5062000403620003ee366004620015df565b609c6020526000908152604090205460ff1681565b6040519015158152602001620001c2565b3480156200042157600080fd5b506200019162000433366004620015df565b62000b12565b3480156200044657600080fd5b50620001916200045836600462001635565b62000b3e565b3480156200046b57600080fd5b50620001b86200047d366004620017c0565b62000b4d565b3480156200049057600080fd5b50620001b860985481565b348015620004a857600080fd5b5062000191620004ba366004620015df565b62000c6a565b348015620004cd57600080fd5b5062000191620004df36600462001606565b62000ce9565b620004ef62000d08565b609a80546001600160a01b0319166001600160a01b0392909216919091179055565b6000806200052084846200074a565b90506000670de0b6b3a7640000609854836200053d919062001809565b62000549919062001823565b90506000670de0b6b3a76400006099548462000566919062001809565b62000572919062001823565b90508062000581838562001846565b6200058d919062001846565b93505050505b92915050565b620005a362000d08565b6098548111156200060d5760405162461bcd60e51b815260206004820152602960248201527f5765696768742063616e6e6f74206578636565642070726f746f636f6c20666560448201526819481c195c98d95b9d60ba1b60648201526084015b60405180910390fd5b609b55565b60008062000621848462000a96565b90506000670de0b6b3a7640000609854836200063e919062001809565b6200064a919062001823565b90506000670de0b6b3a76400006099548462000667919062001809565b62000673919062001823565b9050806200068283856200185c565b6200058d91906200185c565b600080338484604051620006a290620015bb565b620006b093929190620018ba565b604051809103906000f080158015620006cd573d6000803e3d6000fd5b506001600160a01b0381166000908152609c602052604090819020805460ff191660011790555190915033907f3b31b445d96b5084b92a920644688584e11bc3d0c4dddf479f1307f2f2d73c28906200072c90849088908890620018ba565b60405180910390a29392505050565b6200074562000d08565b609955565b600080839050620007c0816001600160a01b03166318160ddd6040518163ffffffff1660e01b8152600401602060405180830381865afa15801562000793573d6000803e3d6000fd5b505050506040513d601f19601f82011682018060405250810190620007b99190620018fe565b84620007c8565b949350505050565b6000806006670de0b6b3a7640000620007e386600262001809565b620007f790670de0b6b3a764000062001846565b670de0b6b3a76400006200080c888262001846565b62000818908962001809565b62000824919062001823565b62000830919062001809565b6200083c919062001823565b62000848919062001823565b905060006006670de0b6b3a764000062000863868862001846565b6200087090600262001809565b6200088490670de0b6b3a764000062001846565b670de0b6b3a7640000876200089a8a8362001846565b620008a6919062001846565b620008b2898b62001846565b620008be919062001809565b620008ca919062001823565b620008d6919062001809565b620008e2919062001823565b620008ee919062001823565b90506000620008fe83836200185c565b90506200058d613e808262001823565b60006200091c83836200074a565b90506200092d838383600162000d64565b505050565b6200093c62000d08565b62000948600062001321565b565b600054610100900460ff16158080156200096b5750600054600160ff909116105b80620009875750303b15801562000987575060005460ff166001145b620009ec5760405162461bcd60e51b815260206004820152602e60248201527f496e697469616c697a61626c653a20636f6e747261637420697320616c72656160448201526d191e481a5b9a5d1a585b1a5e995960921b606482015260840162000604565b6000805460ff19166001179055801562000a10576000805461ff0019166101001790555b62000a1a62001373565b62000a24620013a7565b609780546001600160a01b0319166001600160a01b03861617905560988390556099829055801562000a90576000805461ff0019169055604051600181527f7f26b83ff96e1f2b6a682f133852f6798a09c465da95921460cefb38474024989060200160405180910390a15b50505050565b600080839050620007c083826001600160a01b03166318160ddd6040518163ffffffff1660e01b8152600401602060405180830381865afa15801562000ae0573d6000803e3d6000fd5b505050506040513d601f19601f8201168201806040525081019062000b069190620018fe565b620007b991906200185c565b62000b1c62000d08565b609780546001600160a01b0319166001600160a01b0392909216919091179055565b62000b4862000d08565b609855565b609a546000906001600160a01b031662000b6a5750600062000593565b609a546040516370a0823160e01b81526001600160a01b03848116600483015260009216906370a0823190602401602060405180830381865afa15801562000bb6573d6000803e3d6000fd5b505050506040513d601f19601f8201168201806040525081019062000bdc9190620018fe565b90506000670de0b6b3a764000082670de0b6b3a7640000609b548862000c03919062001809565b62000c0f919062001823565b62000c1b919062001809565b62000c27919062001823565b90506000670de0b6b3a76400006098548762000c44919062001809565b62000c50919062001823565b905080821062000c6157806200058d565b50949350505050565b62000c7462000d08565b6001600160a01b03811662000cdb5760405162461bcd60e51b815260206004820152602660248201527f4f776e61626c653a206e6577206f776e657220697320746865207a65726f206160448201526564647265737360d01b606482015260840162000604565b62000ce68162001321565b50565b600062000cf7838362000a96565b90506200092d838383600062000d64565b6033546001600160a01b03163314620009485760405162461bcd60e51b815260206004820181905260248201527f4f776e61626c653a2063616c6c6572206973206e6f7420746865206f776e6572604482015260640162000604565b62000d6e620013db565b6001600160a01b0384166000908152609c602052604090205460ff1662000dd05760405162461bcd60e51b8152602060048201526015602482015274496e76616c696420746f6b656e206164647265737360581b604482015260640162000604565b6099548490600090670de0b6b3a76400009062000dee908662001809565b62000dfa919062001823565b9050600062000e6885846001600160a01b0316638da5cb5b6040518163ffffffff1660e01b8152600401602060405180830381865afa15801562000e42573d6000803e3d6000fd5b505050506040513d601f19601f820116820180604052508101906200047d919062001918565b9050600081670de0b6b3a76400006098548862000e86919062001809565b62000e92919062001823565b62000e9e91906200185c565b905084156200108e57818362000eb5838962001846565b62000ec1919062001846565b62000ecd919062001846565b34101562000f155760405162461bcd60e51b8152602060048201526014602482015273125b9cdd59999a58da595b9d081c185e5b595b9d60621b604482015260640162000604565b6040516340c10f1960e01b8152336004820152602481018890526001600160a01b038516906340c10f1990604401600060405180830381600087803b15801562000f5e57600080fd5b505af115801562000f73573d6000803e3d6000fd5b505060975462000f9092506001600160a01b031690508262001436565b6200101562000fa0838562001846565b856001600160a01b0316638da5cb5b6040518163ffffffff1660e01b8152600401602060405180830381865afa15801562000fdf573d6000803e3d6000fd5b505050506040513d601f19601f8201168201806040525081019062001005919062001918565b6001600160a01b03169062001436565b818362001023838962001846565b6200102f919062001846565b6200103b919062001846565b34111562001088576000828483620010548a346200185c565b6200106091906200185c565b6200106c91906200185c565b6200107891906200185c565b905062001086338262001436565b505b62001244565b6040516370a0823160e01b815233600482015287906001600160a01b038616906370a0823190602401602060405180830381865afa158015620010d5573d6000803e3d6000fd5b505050506040513d601f19601f82011682018060405250810190620010fb9190620018fe565b1015620011415760405162461bcd60e51b8152602060048201526013602482015272496e73756666696369656e7420746f6b656e7360681b604482015260640162000604565b604051632770a7eb60e21b8152336004820152602481018890526001600160a01b03851690639dc29fac90604401600060405180830381600087803b1580156200118a57600080fd5b505af11580156200119f573d6000803e3d6000fd5b50505050600082848389620011b591906200185c565b620011c191906200185c565b620011cd91906200185c565b9050620011db338262001436565b609754620011f3906001600160a01b03168362001436565b6200124262001203848662001846565b866001600160a01b0316638da5cb5b6040518163ffffffff1660e01b8152600401602060405180830381865afa15801562000fdf573d6000803e3d6000fd5b505b8415156001600160a01b038916337f2c76e7a47fd53e2854856ac3f0a5f3ee40d15cfaa82266357ea9779c486ab9c38a8a8662001282898b62001846565b8b6001600160a01b03166318160ddd6040518163ffffffff1660e01b8152600401602060405180830381865afa158015620012c1573d6000803e3d6000fd5b505050506040513d601f19601f82011682018060405250810190620012e79190620018fe565b604080519586526020860194909452928401919091526060830152608082015260a00160405180910390a45050505062000a906001606555565b603380546001600160a01b038381166001600160a01b0319831681179093556040519116919082907f8be0079c531659141344cd1fd0a4f28419497f9722a3daafe3b4186f6b6457e090600090a35050565b600054610100900460ff166200139d5760405162461bcd60e51b8152600401620006049062001938565b620009486200155c565b600054610100900460ff16620013d15760405162461bcd60e51b8152600401620006049062001938565b6200094862001591565b6002606554036200142f5760405162461bcd60e51b815260206004820152601f60248201527f5265656e7472616e637947756172643a207265656e7472616e742063616c6c00604482015260640162000604565b6002606555565b80471015620014885760405162461bcd60e51b815260206004820152601d60248201527f416464726573733a20696e73756666696369656e742062616c616e6365000000604482015260640162000604565b6000826001600160a01b03168260405160006040518083038185875af1925050503d8060008114620014d7576040519150601f19603f3d011682016040523d82523d6000602084013e620014dc565b606091505b50509050806200092d5760405162461bcd60e51b815260206004820152603a60248201527f416464726573733a20756e61626c6520746f2073656e642076616c75652c207260448201527f6563697069656e74206d61792068617665207265766572746564000000000000606482015260840162000604565b6001606555565b600054610100900460ff16620015865760405162461bcd60e51b8152600401620006049062001938565b620009483362001321565b600054610100900460ff16620015555760405162461bcd60e51b8152600401620006049062001938565b611f67806200198483390190565b6001600160a01b038116811462000ce657600080fd5b600060208284031215620015f257600080fd5b8135620015ff81620015c9565b9392505050565b600080604083850312156200161a57600080fd5b82356200162781620015c9565b946020939093013593505050565b6000602082840312156200164857600080fd5b5035919050565b634e487b7160e01b600052604160045260246000fd5b600082601f8301126200167757600080fd5b813567ffffffffffffffff808211156200169557620016956200164f565b604051601f8301601f19908116603f01168101908282118183101715620016c057620016c06200164f565b81604052838152866020858801011115620016da57600080fd5b836020870160208301376000602085830101528094505050505092915050565b600080604083850312156200170e57600080fd5b823567ffffffffffffffff808211156200172757600080fd5b620017358683870162001665565b935060208501359150808211156200174c57600080fd5b506200175b8582860162001665565b9150509250929050565b600080604083850312156200177957600080fd5b50508035926020909101359150565b6000806000606084860312156200179e57600080fd5b8335620017ab81620015c9565b95602085013595506040909401359392505050565b60008060408385031215620017d457600080fd5b823591506020830135620017e881620015c9565b809150509250929050565b634e487b7160e01b600052601160045260246000fd5b8082028115828204841417620005935762000593620017f3565b6000826200184157634e487b7160e01b600052601260045260246000fd5b500490565b80820180821115620005935762000593620017f3565b81810381811115620005935762000593620017f3565b6000815180845260005b818110156200189a576020818501810151868301820152016200187c565b506000602082860101526020601f19601f83011685010191505092915050565b6001600160a01b0384168152606060208201819052600090620018e09083018562001872565b8281036040840152620018f4818562001872565b9695505050505050565b6000602082840312156200191157600080fd5b5051919050565b6000602082840312156200192b57600080fd5b8151620015ff81620015c9565b6020808252602b908201527f496e697469616c697a61626c653a20636f6e7472616374206973206e6f74206960408201526a6e697469616c697a696e6760a81b60608201526080019056fe6101806040523480156200001257600080fd5b5060405162001f6738038062001f67833981016040819052620000359162000358565b6040518060400160405280600e81526020016d2830b6102ab9b2b9102a37b5b2b760911b81525080604051806040016040528060018152602001603160f81b815250848481600390816200008a919062000471565b50600462000099828262000471565b50620000ab9150839050600562000196565b61012052620000bc81600662000196565b61014052815160208084019190912060e052815190820120610100524660a0526200014a60e05161010051604080517f8b73c3c69bb8fe3d512ecc4cf759cc79239f7b179b0ffacaa9a75d522b39400f60208201529081019290925260608201524660808201523060a082015260009060c00160405160208183030381529060405280519060200120905090565b60805250503060c052506200015f33620001cf565b3361016052600b62000172838262000471565b50600c62000181828262000471565b506200018d83620001cf565b50505062000597565b6000602083511015620001b657620001ae83620001ed565b9050620001c9565b81620001c3848262000471565b5060ff90505b92915050565b600a80546001600160a01b0319169055620001ea8162000239565b50565b600080829050601f8151111562000224578260405163305a27a960e01b81526004016200021b91906200053d565b60405180910390fd5b8051620002318262000572565b179392505050565b600980546001600160a01b038381166001600160a01b0319831681179093556040519116919082907f8be0079c531659141344cd1fd0a4f28419497f9722a3daafe3b4186f6b6457e090600090a35050565b634e487b7160e01b600052604160045260246000fd5b60005b83811015620002be578181015183820152602001620002a4565b50506000910152565b600082601f830112620002d957600080fd5b81516001600160401b0380821115620002f657620002f66200028b565b604051601f8301601f19908116603f011681019082821181831017156200032157620003216200028b565b816040528381528660208588010111156200033b57600080fd5b6200034e846020830160208901620002a1565b9695505050505050565b6000806000606084860312156200036e57600080fd5b83516001600160a01b03811681146200038657600080fd5b60208501519093506001600160401b0380821115620003a457600080fd5b620003b287838801620002c7565b93506040860151915080821115620003c957600080fd5b50620003d886828701620002c7565b9150509250925092565b600181811c90821680620003f757607f821691505b6020821081036200041857634e487b7160e01b600052602260045260246000fd5b50919050565b601f8211156200046c57600081815260208120601f850160051c81016020861015620004475750805b601f850160051c820191505b81811015620004685782815560010162000453565b5050505b505050565b81516001600160401b038111156200048d576200048d6200028b565b620004a5816200049e8454620003e2565b846200041e565b602080601f831160018114620004dd5760008415620004c45750858301515b600019600386901b1c1916600185901b17855562000468565b600085815260208120601f198616915b828110156200050e57888601518255948401946001909101908401620004ed565b50858210156200052d5787850151600019600388901b60f8161c191681555b5050505050600190811b01905550565b60208152600082518060208401526200055e816040850160208701620002a1565b601f01601f19169190910160400192915050565b80516020808301519190811015620004185760001960209190910360031b1b16919050565b60805160a05160c05160e0516101005161012051610140516101605161195c6200060b6000396000818161033b0152818161048d015261065c015260006105f2015260006105c701526000610e0c01526000610de401526000610d3f01526000610d6901526000610d93015261195c6000f3fe608060405234801561001057600080fd5b50600436106101735760003560e01c806384b0196e116100de578063b84c824611610097578063dd62ed3e11610071578063dd62ed3e14610323578063e2daf86014610336578063e30c39781461035d578063f2fde38b1461036e57600080fd5b8063b84c8246146102ea578063c47f0027146102fd578063d505accf1461031057600080fd5b806384b0196e146102695780638da5cb5b1461028457806395d89b41146102a95780639dc29fac146102b1578063a457c2d7146102c4578063a9059cbb146102d757600080fd5b8063395093511161013057806339509351146101f557806340c10f191461020857806370a082311461021d578063715018a61461024657806379ba50971461024e5780637ecebe001461025657600080fd5b806306fdde0314610178578063095ea7b31461019657806318160ddd146101b957806323b872dd146101cb578063313ce567146101de5780633644e515146101ed575b600080fd5b610180610381565b60405161018d91906114f3565b60405180910390f35b6101a96101a4366004611529565b610413565b604051901515815260200161018d565b6002545b60405190815260200161018d565b6101a96101d9366004611553565b61042d565b6040516012815260200161018d565b6101bd610451565b6101a9610203366004611529565b610460565b61021b610216366004611529565b610482565b005b6101bd61022b36600461158f565b6001600160a01b031660009081526020819052604090205490565b61021b61050d565b61021b610521565b6101bd61026436600461158f565b61059b565b6102716105b9565b60405161018d97969594939291906115aa565b6009546001600160a01b03165b6040516001600160a01b03909116815260200161018d565b610180610642565b61021b6102bf366004611529565b610651565b6101a96102d2366004611529565b6106d3565b6101a96102e5366004611529565b61074e565b61021b6102f8366004611656565b61075c565b61021b61030b366004611656565b6107ab565b61021b61031e366004611707565b6107ef565b6101bd61033136600461177a565b610953565b6102917f000000000000000000000000000000000000000000000000000000000000000081565b600a546001600160a01b0316610291565b61021b61037c36600461158f565b61097e565b6060600b8054610390906117ad565b80601f01602080910402602001604051908101604052809291908181526020018280546103bc906117ad565b80156104095780601f106103de57610100808354040283529160200191610409565b820191906000526020600020905b8154815290600101906020018083116103ec57829003601f168201915b5050505050905090565b6000336104218185856109ef565b60019150505b92915050565b60003361043b858285610b14565b610446858585610b8e565b506001949350505050565b600061045b610d32565b905090565b6000336104218185856104738383610953565b61047d91906117e1565b6109ef565b336001600160a01b037f000000000000000000000000000000000000000000000000000000000000000016146104ff5760405162461bcd60e51b815260206004820152601f60248201527f50616c546f6b656e3a2063616c6c6572206973206e6f74207468652070616c0060448201526064015b60405180910390fd5b6105098282610e5d565b5050565b610515610f1c565b61051f6000610f76565b565b600a5433906001600160a01b0316811461058f5760405162461bcd60e51b815260206004820152602960248201527f4f776e61626c6532537465703a2063616c6c6572206973206e6f7420746865206044820152683732bb9037bbb732b960b91b60648201526084016104f6565b61059881610f76565b50565b6001600160a01b038116600090815260076020526040812054610427565b6000606080828080836105ed7f00000000000000000000000000000000000000000000000000000000000000006005610f8f565b6106187f00000000000000000000000000000000000000000000000000000000000000006006610f8f565b60408051600080825260208201909252600f60f81b9b939a50919850469750309650945092509050565b6060600c8054610390906117ad565b336001600160a01b037f000000000000000000000000000000000000000000000000000000000000000016146106c95760405162461bcd60e51b815260206004820152601f60248201527f50616c546f6b656e3a2063616c6c6572206973206e6f74207468652070616c0060448201526064016104f6565b610509828261103a565b600033816106e18286610953565b9050838110156107415760405162461bcd60e51b815260206004820152602560248201527f45524332303a2064656372656173656420616c6c6f77616e63652062656c6f77604482015264207a65726f60d81b60648201526084016104f6565b61044682868684036109ef565b600033610421818585610b8e565b610764610f1c565b600c6107708282611850565b507fadf3ae8bd543b3007d464f15cb8ea1db3f44e84d41d203164f40b95e27558ac6816040516107a091906114f3565b60405180910390a150565b6107b3610f1c565b600b6107bf8282611850565b507f4df9dcd34ae35f40f2c756fd8ac83210ed0b76d065543ee73d868aec7c7fcf02816040516107a091906114f3565b8342111561083f5760405162461bcd60e51b815260206004820152601d60248201527f45524332305065726d69743a206578706972656420646561646c696e6500000060448201526064016104f6565b60007f6e71edae12b1b97f4d1f60370fef10105fa2faae0126114a169c64845d6126c988888861086e8c611169565b6040805160208101969096526001600160a01b0394851690860152929091166060840152608083015260a082015260c0810186905260e00160405160208183030381529060405280519060200120905060006108c982611191565b905060006108d9828787876111be565b9050896001600160a01b0316816001600160a01b03161461093c5760405162461bcd60e51b815260206004820152601e60248201527f45524332305065726d69743a20696e76616c6964207369676e6174757265000060448201526064016104f6565b6109478a8a8a6109ef565b50505050505050505050565b6001600160a01b03918216600090815260016020908152604080832093909416825291909152205490565b610986610f1c565b600a80546001600160a01b0383166001600160a01b031990911681179091556109b76009546001600160a01b031690565b6001600160a01b03167f38d16b8cac22d99fc7c124b9cd0de2d3fa1faef420bfe791d8c362d765e2270060405160405180910390a350565b6001600160a01b038316610a515760405162461bcd60e51b8152602060048201526024808201527f45524332303a20617070726f76652066726f6d20746865207a65726f206164646044820152637265737360e01b60648201526084016104f6565b6001600160a01b038216610ab25760405162461bcd60e51b815260206004820152602260248201527f45524332303a20617070726f766520746f20746865207a65726f206164647265604482015261737360f01b60648201526084016104f6565b6001600160a01b0383811660008181526001602090815260408083209487168084529482529182902085905590518481527f8c5be1e5ebec7d5bd14f71427d1e84f3dd0314c0f7b2291e5b200ac8c7c3b92591015b60405180910390a3505050565b6000610b208484610953565b90506000198114610b885781811015610b7b5760405162461bcd60e51b815260206004820152601d60248201527f45524332303a20696e73756666696369656e7420616c6c6f77616e636500000060448201526064016104f6565b610b8884848484036109ef565b50505050565b6001600160a01b038316610bf25760405162461bcd60e51b815260206004820152602560248201527f45524332303a207472616e736665722066726f6d20746865207a65726f206164604482015264647265737360d81b60648201526084016104f6565b6001600160a01b038216610c545760405162461bcd60e51b815260206004820152602360248201527f45524332303a207472616e7366657220746f20746865207a65726f206164647260448201526265737360e81b60648201526084016104f6565b6001600160a01b03831660009081526020819052604090205481811015610ccc5760405162461bcd60e51b815260206004820152602660248201527f45524332303a207472616e7366657220616d6f756e7420657863656564732062604482015265616c616e636560d01b60648201526084016104f6565b6001600160a01b03848116600081815260208181526040808320878703905593871680835291849020805487019055925185815290927fddf252ad1be2c89b69c2b068fc378daa952ba7f163c4a11628f55a4df523b3ef910160405180910390a3610b88565b6000306001600160a01b037f000000000000000000000000000000000000000000000000000000000000000016148015610d8b57507f000000000000000000000000000000000000000000000000000000000000000046145b15610db557507f000000000000000000000000000000000000000000000000000000000000000090565b61045b604080517f8b73c3c69bb8fe3d512ecc4cf759cc79239f7b179b0ffacaa9a75d522b39400f60208201527f0000000000000000000000000000000000000000000000000000000000000000918101919091527f000000000000000000000000000000000000000000000000000000000000000060608201524660808201523060a082015260009060c00160405160208183030381529060405280519060200120905090565b6001600160a01b038216610eb35760405162461bcd60e51b815260206004820152601f60248201527f45524332303a206d696e7420746f20746865207a65726f20616464726573730060448201526064016104f6565b8060026000828254610ec591906117e1565b90915550506001600160a01b038216600081815260208181526040808320805486019055518481527fddf252ad1be2c89b69c2b068fc378daa952ba7f163c4a11628f55a4df523b3ef910160405180910390a35050565b6009546001600160a01b0316331461051f5760405162461bcd60e51b815260206004820181905260248201527f4f776e61626c653a2063616c6c6572206973206e6f7420746865206f776e657260448201526064016104f6565b600a80546001600160a01b0319169055610598816111e6565b606060ff8314610fa957610fa283611238565b9050610427565b818054610fb5906117ad565b80601f0160208091040260200160405190810160405280929190818152602001828054610fe1906117ad565b801561102e5780601f106110035761010080835404028352916020019161102e565b820191906000526020600020905b81548152906001019060200180831161101157829003601f168201915b50505050509050610427565b6001600160a01b03821661109a5760405162461bcd60e51b815260206004820152602160248201527f45524332303a206275726e2066726f6d20746865207a65726f206164647265736044820152607360f81b60648201526084016104f6565b6001600160a01b0382166000908152602081905260409020548181101561110e5760405162461bcd60e51b815260206004820152602260248201527f45524332303a206275726e20616d6f756e7420657863656564732062616c616e604482015261636560f01b60648201526084016104f6565b6001600160a01b0383166000818152602081815260408083208686039055600280548790039055518581529192917fddf252ad1be2c89b69c2b068fc378daa952ba7f163c4a11628f55a4df523b3ef9101610b07565b505050565b6001600160a01b03811660009081526007602052604090208054600181018255905b50919050565b600061042761119e610d32565b8360405161190160f01b8152600281019290925260228201526042902090565b60008060006111cf87878787611277565b915091506111dc8161133b565b5095945050505050565b600980546001600160a01b038381166001600160a01b0319831681179093556040519116919082907f8be0079c531659141344cd1fd0a4f28419497f9722a3daafe3b4186f6b6457e090600090a35050565b6060600061124583611485565b604080516020808252818301909252919250600091906020820181803683375050509182525060208101929092525090565b6000807f7fffffffffffffffffffffffffffffff5d576e7357a4501ddfe92f46681b20a08311156112ae5750600090506003611332565b6040805160008082526020820180845289905260ff881692820192909252606081018690526080810185905260019060a0016020604051602081039080840390855afa158015611302573d6000803e3d6000fd5b5050604051601f1901519150506001600160a01b03811661132b57600060019250925050611332565b9150600090505b94509492505050565b600081600481111561134f5761134f611910565b036113575750565b600181600481111561136b5761136b611910565b036113b85760405162461bcd60e51b815260206004820152601860248201527f45434453413a20696e76616c6964207369676e6174757265000000000000000060448201526064016104f6565b60028160048111156113cc576113cc611910565b036114195760405162461bcd60e51b815260206004820152601f60248201527f45434453413a20696e76616c6964207369676e6174757265206c656e6774680060448201526064016104f6565b600381600481111561142d5761142d611910565b036105985760405162461bcd60e51b815260206004820152602260248201527f45434453413a20696e76616c6964207369676e6174757265202773272076616c604482015261756560f01b60648201526084016104f6565b600060ff8216601f81111561042757604051632cd44ac360e21b815260040160405180910390fd5b6000815180845260005b818110156114d3576020818501810151868301820152016114b7565b506000602082860101526020601f19601f83011685010191505092915050565b60208152600061150660208301846114ad565b9392505050565b80356001600160a01b038116811461152457600080fd5b919050565b6000806040838503121561153c57600080fd5b6115458361150d565b946020939093013593505050565b60008060006060848603121561156857600080fd5b6115718461150d565b925061157f6020850161150d565b9150604084013590509250925092565b6000602082840312156115a157600080fd5b6115068261150d565b60ff60f81b881681526000602060e0818401526115ca60e084018a6114ad565b83810360408501526115dc818a6114ad565b606085018990526001600160a01b038816608086015260a0850187905284810360c0860152855180825283870192509083019060005b8181101561162e57835183529284019291840191600101611612565b50909c9b505050505050505050505050565b634e487b7160e01b600052604160045260246000fd5b60006020828403121561166857600080fd5b813567ffffffffffffffff8082111561168057600080fd5b818401915084601f83011261169457600080fd5b8135818111156116a6576116a6611640565b604051601f8201601f19908116603f011681019083821181831017156116ce576116ce611640565b816040528281528760208487010111156116e757600080fd5b826020860160208301376000928101602001929092525095945050505050565b600080600080600080600060e0888a03121561172257600080fd5b61172b8861150d565b96506117396020890161150d565b95506040880135945060608801359350608088013560ff8116811461175d57600080fd5b9699959850939692959460a0840135945060c09093013592915050565b6000806040838503121561178d57600080fd5b6117968361150d565b91506117a46020840161150d565b90509250929050565b600181811c908216806117c157607f821691505b60208210810361118b57634e487b7160e01b600052602260045260246000fd5b8082018082111561042757634e487b7160e01b600052601160045260246000fd5b601f82111561116457600081815260208120601f850160051c810160208610156118295750805b601f850160051c820191505b8181101561184857828155600101611835565b505050505050565b815167ffffffffffffffff81111561186a5761186a611640565b61187e8161187884546117ad565b84611802565b602080601f8311600181146118b3576000841561189b5750858301515b600019600386901b1c1916600185901b178555611848565b600085815260208120601f198616915b828110156118e2578886015182559484019460019091019084016118c3565b50858210156119005787850151600019600388901b60f8161c191681555b5050505050600190811b01905550565b634e487b7160e01b600052602160045260246000fdfea26469706673582212207623ac115314648964949bc1bfa77d8b3ec73dfc1fc1fba575ac0a7212ddae4364736f6c63430008140033a2646970667358221220ad11e56c8e957457d65878291f386363ae80a2a5883b15801dd23f25d43183e964736f6c63430008140033",
  "linkReferences": {},
  "deployedLinkReferences": {}
}