{
  "_format": "hh-sol-artifact-1",
  "contractName": "PalToken",
  "sourceName": "contracts/PalToken.sol",
  "abi": [
    {
      "inputs": [
        {
          "internalType": "address",
          "name": "owner_",
          "type": "address"
        },
        {
          "internalType": "string",
          "name": "name_",
          "type": "string"
        },
        {
          "internalType": "string",
          "name": "symbol_",
          "type": "string"
        }
      ],
      "stateMutability": "nonpayable",
      "type": "constructor"
    },
    {
      "anonymous": false,
      "inputs": [
        {
          "indexed": true,
          "internalType": "address",
          "name": "owner",
          "type": "address"
        },
        {
          "indexed": true,
          "internalType": "address",
          "name": "spender",
          "type": "address"
        },
        {
          "indexed": false,
          "internalType": "uint256",
          "name": "value",
          "type": "uint256"
        }
      ],
      "name": "Approval",
      "type": "event"
    },
    {
      "anonymous": false,
      "inputs": [
        {
          "indexed": true,
          "internalType": "address",
          "name": "previousOwner",
          "type": "address"
        },
        {
          "indexed": true,
          "internalType": "address",
          "name": "newOwner",
          "type": "address"
        }
      ],
      "name": "OwnershipTransferProposed",
      "type": "event"
    },
    {
      "anonymous": false,
      "inputs": [
        {
          "indexed": true,
          "internalType": "address",
          "name": "previousOwner",
          "type": "address"
        },
        {
          "indexed": true,
          "internalType": "address",
          "name": "newOwner",
          "type": "address"
        }
      ],
      "name": "OwnershipTransferred",
      "type": "event"
    },
    {
      "anonymous": false,
      "inputs": [
        {
          "indexed": false,
          "internalType": "string",
          "name": "name",
          "type": "string"
        }
      ],
      "name": "SetName",
      "type": "event"
    },
    {
      "anonymous": false,
      "inputs": [
        {
          "indexed": false,
          "internalType": "string",
          "name": "symbol",
          "type": "string"
        }
      ],
      "name": "SetSymbol",
      "type": "event"
    },
    {
      "anonymous": false,
      "inputs": [
        {
          "indexed": true,
          "internalType": "address",
          "name": "from",
          "type": "address"
        },
        {
          "indexed": true,
          "internalType": "address",
          "name": "to",
          "type": "address"
        },
        {
          "indexed": false,
          "internalType": "uint256",
          "name": "value",
          "type": "uint256"
        }
      ],
      "name": "Transfer",
      "type": "event"
    },
    {
      "inputs": [],
      "name": "_pal",
      "outputs": [
        {
          "internalType": "address",
          "name": "",
          "type": "address"
        }
      ],
      "stateMutability": "view",
      "type": "function"
    },
    {
      "inputs": [],
      "name": "_pendingOwner",
      "outputs": [
        {
          "internalType": "address",
          "name": "",
          "type": "address"
        }
      ],
      "stateMutability": "view",
      "type": "function"
    },
    {
      "inputs": [],
      "name": "acceptOwnership",
      "outputs": [],
      "stateMutability": "nonpayable",
      "type": "function"
    },
    {
      "inputs": [
        {
          "internalType": "address",
          "name": "owner",
          "type": "address"
        },
        {
          "internalType": "address",
          "name": "spender",
          "type": "address"
        }
      ],
      "name": "allowance",
      "outputs": [
        {
          "internalType": "uint256",
          "name": "",
          "type": "uint256"
        }
      ],
      "stateMutability": "view",
      "type": "function"
    },
    {
      "inputs": [
        {
          "internalType": "address",
          "name": "spender",
          "type": "address"
        },
        {
          "internalType": "uint256",
          "name": "amount",
          "type": "uint256"
        }
      ],
      "name": "approve",
      "outputs": [
        {
          "internalType": "bool",
          "name": "",
          "type": "bool"
        }
      ],
      "stateMutability": "nonpayable",
      "type": "function"
    },
    {
      "inputs": [
        {
          "internalType": "address",
          "name": "account",
          "type": "address"
        }
      ],
      "name": "balanceOf",
      "outputs": [
        {
          "internalType": "uint256",
          "name": "",
          "type": "uint256"
        }
      ],
      "stateMutability": "view",
      "type": "function"
    },
    {
      "inputs": [
        {
          "internalType": "address",
          "name": "from",
          "type": "address"
        },
        {
          "internalType": "uint256",
          "name": "amount",
          "type": "uint256"
        }
      ],
      "name": "burn",
      "outputs": [],
      "stateMutability": "nonpayable",
      "type": "function"
    },
    {
      "inputs": [],
      "name": "decimals",
      "outputs": [
        {
          "internalType": "uint8",
          "name": "",
          "type": "uint8"
        }
      ],
      "stateMutability": "view",
      "type": "function"
    },
    {
      "inputs": [
        {
          "internalType": "address",
          "name": "spender",
          "type": "address"
        },
        {
          "internalType": "uint256",
          "name": "subtractedValue",
          "type": "uint256"
        }
      ],
      "name": "decreaseAllowance",
      "outputs": [
        {
          "internalType": "bool",
          "name": "",
          "type": "bool"
        }
      ],
      "stateMutability": "nonpayable",
      "type": "function"
    },
    {
      "inputs": [
        {
          "internalType": "address",
          "name": "spender",
          "type": "address"
        },
        {
          "internalType": "uint256",
          "name": "addedValue",
          "type": "uint256"
        }
      ],
      "name": "increaseAllowance",
      "outputs": [
        {
          "internalType": "bool",
          "name": "",
          "type": "bool"
        }
      ],
      "stateMutability": "nonpayable",
      "type": "function"
    },
    {
      "inputs": [
        {
          "internalType": "address",
          "name": "to",
          "type": "address"
        },
        {
          "internalType": "uint256",
          "name": "amount",
          "type": "uint256"
        }
      ],
      "name": "mint",
      "outputs": [],
      "stateMutability": "nonpayable",
      "type": "function"
    },
    {
      "inputs": [],
      "name": "name",
      "outputs": [
        {
          "internalType": "string",
          "name": "",
          "type": "string"
        }
      ],
      "stateMutability": "view",
      "type": "function"
    },
    {
      "inputs": [],
      "name": "owner",
      "outputs": [
        {
          "internalType": "address",
          "name": "",
          "type": "address"
        }
      ],
      "stateMutability": "view",
      "type": "function"
    },
    {
      "inputs": [],
      "name": "renounceOwnership",
      "outputs": [],
      "stateMutability": "nonpayable",
      "type": "function"
    },
    {
      "inputs": [
        {
          "internalType": "string",
          "name": "name_",
          "type": "string"
        }
      ],
      "name": "setName",
      "outputs": [],
      "stateMutability": "nonpayable",
      "type": "function"
    },
    {
      "inputs": [
        {
          "internalType": "string",
          "name": "symbol_",
          "type": "string"
        }
      ],
      "name": "setSymbol",
      "outputs": [],
      "stateMutability": "nonpayable",
      "type": "function"
    },
    {
      "inputs": [],
      "name": "symbol",
      "outputs": [
        {
          "internalType": "string",
          "name": "",
          "type": "string"
        }
      ],
      "stateMutability": "view",
      "type": "function"
    },
    {
      "inputs": [],
      "name": "totalSupply",
      "outputs": [
        {
          "internalType": "uint256",
          "name": "",
          "type": "uint256"
        }
      ],
      "stateMutability": "view",
      "type": "function"
    },
    {
      "inputs": [
        {
          "internalType": "address",
          "name": "to",
          "type": "address"
        },
        {
          "internalType": "uint256",
          "name": "amount",
          "type": "uint256"
        }
      ],
      "name": "transfer",
      "outputs": [
        {
          "internalType": "bool",
          "name": "",
          "type": "bool"
        }
      ],
      "stateMutability": "nonpayable",
      "type": "function"
    },
    {
      "inputs": [
        {
          "internalType": "address",
          "name": "from",
          "type": "address"
        },
        {
          "internalType": "address",
          "name": "to",
          "type": "address"
        },
        {
          "internalType": "uint256",
          "name": "amount",
          "type": "uint256"
        }
      ],
      "name": "transferFrom",
      "outputs": [
        {
          "internalType": "bool",
          "name": "",
          "type": "bool"
        }
      ],
      "stateMutability": "nonpayable",
      "type": "function"
    },
    {
      "inputs": [
        {
          "internalType": "address",
          "name": "newOwner",
          "type": "address"
        }
      ],
      "name": "transferOwnership",
      "outputs": [],
      "stateMutability": "nonpayable",
      "type": "function"
    }
  ],
  "bytecode": "0x60806040523480156200001157600080fd5b50604051620014b7380380620014b78339810160408190526200003491620001cf565b81816003620000448382620002e8565b506004620000538282620002e8565b505050620000706200006a620000b460201b60201c565b620000b8565b600680546001600160a01b031916331790556008620000908382620002e8565b5060096200009f8282620002e8565b50620000ab83620000b8565b505050620003b4565b3390565b600580546001600160a01b038381166001600160a01b0319831681179093556040519116919082907f8be0079c531659141344cd1fd0a4f28419497f9722a3daafe3b4186f6b6457e090600090a35050565b634e487b7160e01b600052604160045260246000fd5b600082601f8301126200013257600080fd5b81516001600160401b03808211156200014f576200014f6200010a565b604051601f8301601f19908116603f011681019082821181831017156200017a576200017a6200010a565b816040528381526020925086838588010111156200019757600080fd5b600091505b83821015620001bb57858201830151818301840152908201906200019c565b600093810190920192909252949350505050565b600080600060608486031215620001e557600080fd5b83516001600160a01b0381168114620001fd57600080fd5b60208501519093506001600160401b03808211156200021b57600080fd5b620002298783880162000120565b935060408601519150808211156200024057600080fd5b506200024f8682870162000120565b9150509250925092565b600181811c908216806200026e57607f821691505b6020821081036200028f57634e487b7160e01b600052602260045260246000fd5b50919050565b601f821115620002e357600081815260208120601f850160051c81016020861015620002be5750805b601f850160051c820191505b81811015620002df57828155600101620002ca565b5050505b505050565b81516001600160401b038111156200030457620003046200010a565b6200031c8162000315845462000259565b8462000295565b602080601f8311600181146200035457600084156200033b5750858301515b600019600386901b1c1916600185901b178555620002df565b600085815260208120601f198616915b82811015620003855788860151825594840194600190910190840162000364565b5085821015620003a45787850151600019600388901b60f8161c191681555b5050505050600190811b01905550565b6110f380620003c46000396000f3fe608060405234801561001057600080fd5b50600436106101375760003560e01c80638da5cb5b116100b8578063b84c82461161007c578063b84c824614610278578063c47f00271461028b578063d3b837581461029e578063dd62ed3e146102b1578063e2daf860146102c4578063f2fde38b146102d757600080fd5b80638da5cb5b1461021257806395d89b41146102375780639dc29fac1461023f578063a457c2d714610252578063a9059cbb1461026557600080fd5b806339509351116100ff57806339509351146101b157806340c10f19146101c457806370a08231146101d9578063715018a61461020257806379ba50971461020a57600080fd5b806306fdde031461013c578063095ea7b31461015a57806318160ddd1461017d57806323b872dd1461018f578063313ce567146101a2575b600080fd5b6101446102ea565b6040516101519190610d68565b60405180910390f35b61016d610168366004610dd2565b61037c565b6040519015158152602001610151565b6002545b604051908152602001610151565b61016d61019d366004610dfc565b610396565b60405160128152602001610151565b61016d6101bf366004610dd2565b6103ba565b6101d76101d2366004610dd2565b6103dc565b005b6101816101e7366004610e38565b6001600160a01b031660009081526020819052604090205490565b6101d7610449565b6101d761045d565b6005546001600160a01b03165b6040516001600160a01b039091168152602001610151565b6101446104f0565b6101d761024d366004610dd2565b6104ff565b61016d610260366004610dd2565b610563565b61016d610273366004610dd2565b6105de565b6101d7610286366004610e70565b6105ec565b6101d7610299366004610e70565b61063b565b60075461021f906001600160a01b031681565b6101816102bf366004610f21565b61067f565b60065461021f906001600160a01b031681565b6101d76102e5366004610e38565b6106aa565b6060600880546102f990610f54565b80601f016020809104026020016040519081016040528092919081815260200182805461032590610f54565b80156103725780601f1061034757610100808354040283529160200191610372565b820191906000526020600020905b81548152906001019060200180831161035557829003601f168201915b5050505050905090565b60003361038a81858561078b565b60019150505b92915050565b6000336103a48582856108b0565b6103af85858561092a565b506001949350505050565b60003361038a8185856103cd838361067f565b6103d79190610f8e565b61078b565b6006546001600160a01b0316331461043b5760405162461bcd60e51b815260206004820152601f60248201527f50616c546f6b656e3a2063616c6c6572206973206e6f74207468652070616c0060448201526064015b60405180910390fd5b6104458282610ace565b5050565b610451610b8d565b61045b6000610be7565b565b6007546001600160a01b031633146104c95760405162461bcd60e51b815260206004820152602960248201527f50616c546f6b656e3a2063616c6c6572206973206e6f74207468652070656e6460448201526834b7339037bbb732b960b91b6064820152608401610432565b6007546104de906001600160a01b0316610be7565b600780546001600160a01b0319169055565b6060600980546102f990610f54565b6006546001600160a01b031633146105595760405162461bcd60e51b815260206004820152601f60248201527f50616c546f6b656e3a2063616c6c6572206973206e6f74207468652070616c006044820152606401610432565b6104458282610c39565b60003381610571828661067f565b9050838110156105d15760405162461bcd60e51b815260206004820152602560248201527f45524332303a2064656372656173656420616c6c6f77616e63652062656c6f77604482015264207a65726f60d81b6064820152608401610432565b6103af828686840361078b565b60003361038a81858561092a565b6105f4610b8d565b60096106008282610ffd565b507fadf3ae8bd543b3007d464f15cb8ea1db3f44e84d41d203164f40b95e27558ac6816040516106309190610d68565b60405180910390a150565b610643610b8d565b600861064f8282610ffd565b507f4df9dcd34ae35f40f2c756fd8ac83210ed0b76d065543ee73d868aec7c7fcf02816040516106309190610d68565b6001600160a01b03918216600090815260016020908152604080832093909416825291909152205490565b6106b2610b8d565b6001600160a01b0381166107185760405162461bcd60e51b815260206004820152602760248201527f50616c546f6b656e3a206e6577206f776e657220697320746865207a65726f206044820152666164647265737360c81b6064820152608401610432565b806001600160a01b03166107346005546001600160a01b031690565b6001600160a01b03167ff4e75b79500ab730f8a026ed3cba6d55331bcb64c9e9f60c548e371356e5e3c060405160405180910390a3600780546001600160a01b0319166001600160a01b0392909216919091179055565b6001600160a01b0383166107ed5760405162461bcd60e51b8152602060048201526024808201527f45524332303a20617070726f76652066726f6d20746865207a65726f206164646044820152637265737360e01b6064820152608401610432565b6001600160a01b03821661084e5760405162461bcd60e51b815260206004820152602260248201527f45524332303a20617070726f766520746f20746865207a65726f206164647265604482015261737360f01b6064820152608401610432565b6001600160a01b0383811660008181526001602090815260408083209487168084529482529182902085905590518481527f8c5be1e5ebec7d5bd14f71427d1e84f3dd0314c0f7b2291e5b200ac8c7c3b92591015b60405180910390a3505050565b60006108bc848461067f565b9050600019811461092457818110156109175760405162461bcd60e51b815260206004820152601d60248201527f45524332303a20696e73756666696369656e7420616c6c6f77616e63650000006044820152606401610432565b610924848484840361078b565b50505050565b6001600160a01b03831661098e5760405162461bcd60e51b815260206004820152602560248201527f45524332303a207472616e736665722066726f6d20746865207a65726f206164604482015264647265737360d81b6064820152608401610432565b6001600160a01b0382166109f05760405162461bcd60e51b815260206004820152602360248201527f45524332303a207472616e7366657220746f20746865207a65726f206164647260448201526265737360e81b6064820152608401610432565b6001600160a01b03831660009081526020819052604090205481811015610a685760405162461bcd60e51b815260206004820152602660248201527f45524332303a207472616e7366657220616d6f756e7420657863656564732062604482015265616c616e636560d01b6064820152608401610432565b6001600160a01b03848116600081815260208181526040808320878703905593871680835291849020805487019055925185815290927fddf252ad1be2c89b69c2b068fc378daa952ba7f163c4a11628f55a4df523b3ef910160405180910390a3610924565b6001600160a01b038216610b245760405162461bcd60e51b815260206004820152601f60248201527f45524332303a206d696e7420746f20746865207a65726f2061646472657373006044820152606401610432565b8060026000828254610b369190610f8e565b90915550506001600160a01b038216600081815260208181526040808320805486019055518481527fddf252ad1be2c89b69c2b068fc378daa952ba7f163c4a11628f55a4df523b3ef910160405180910390a35050565b6005546001600160a01b0316331461045b5760405162461bcd60e51b815260206004820181905260248201527f4f776e61626c653a2063616c6c6572206973206e6f7420746865206f776e65726044820152606401610432565b600580546001600160a01b038381166001600160a01b0319831681179093556040519116919082907f8be0079c531659141344cd1fd0a4f28419497f9722a3daafe3b4186f6b6457e090600090a35050565b6001600160a01b038216610c995760405162461bcd60e51b815260206004820152602160248201527f45524332303a206275726e2066726f6d20746865207a65726f206164647265736044820152607360f81b6064820152608401610432565b6001600160a01b03821660009081526020819052604090205481811015610d0d5760405162461bcd60e51b815260206004820152602260248201527f45524332303a206275726e20616d6f756e7420657863656564732062616c616e604482015261636560f01b6064820152608401610432565b6001600160a01b0383166000818152602081815260408083208686039055600280548790039055518581529192917fddf252ad1be2c89b69c2b068fc378daa952ba7f163c4a11628f55a4df523b3ef91016108a3565b505050565b600060208083528351808285015260005b81811015610d9557858101830151858201604001528201610d79565b506000604082860101526040601f19601f8301168501019250505092915050565b80356001600160a01b0381168114610dcd57600080fd5b919050565b60008060408385031215610de557600080fd5b610dee83610db6565b946020939093013593505050565b600080600060608486031215610e1157600080fd5b610e1a84610db6565b9250610e2860208501610db6565b9150604084013590509250925092565b600060208284031215610e4a57600080fd5b610e5382610db6565b9392505050565b634e487b7160e01b600052604160045260246000fd5b600060208284031215610e8257600080fd5b813567ffffffffffffffff80821115610e9a57600080fd5b818401915084601f830112610eae57600080fd5b813581811115610ec057610ec0610e5a565b604051601f8201601f19908116603f01168101908382118183101715610ee857610ee8610e5a565b81604052828152876020848701011115610f0157600080fd5b826020860160208301376000928101602001929092525095945050505050565b60008060408385031215610f3457600080fd5b610f3d83610db6565b9150610f4b60208401610db6565b90509250929050565b600181811c90821680610f6857607f821691505b602082108103610f8857634e487b7160e01b600052602260045260246000fd5b50919050565b8082018082111561039057634e487b7160e01b600052601160045260246000fd5b601f821115610d6357600081815260208120601f850160051c81016020861015610fd65750805b601f850160051c820191505b81811015610ff557828155600101610fe2565b505050505050565b815167ffffffffffffffff81111561101757611017610e5a565b61102b816110258454610f54565b84610faf565b602080601f83116001811461106057600084156110485750858301515b600019600386901b1c1916600185901b178555610ff5565b600085815260208120601f198616915b8281101561108f57888601518255948401946001909101908401611070565b50858210156110ad5787850151600019600388901b60f8161c191681555b5050505050600190811b0190555056fea2646970667358221220e5c9f92b8ff6f638626f000b4a7e00d7d2c01ab17a9e12176a8cfb8d21d56d0864736f6c63430008140033",
  "linkReferences": {},
  "deployedLinkReferences": {}
}