{
  "_format": "hh-sol-artifact-1",
  "contractName": "PalUserToken",
  "sourceName": "contracts/PalUserToken.sol",
  "abi": [
    {
      "inputs": [
        {
          "internalType": "address",
          "name": "owner_",
          "type": "address"
        },
        {
          "internalType": "string",
          "name": "name_",
          "type": "string"
        },
        {
          "internalType": "string",
          "name": "symbol_",
          "type": "string"
        }
      ],
      "stateMutability": "nonpayable",
      "type": "constructor"
    },
    {
      "inputs": [],
      "name": "InvalidShortString",
      "type": "error"
    },
    {
      "inputs": [
        {
          "internalType": "string",
          "name": "str",
          "type": "string"
        }
      ],
      "name": "StringTooLong",
      "type": "error"
    },
    {
      "anonymous": false,
      "inputs": [
        {
          "indexed": true,
          "internalType": "address",
          "name": "owner",
          "type": "address"
        },
        {
          "indexed": true,
          "internalType": "address",
          "name": "spender",
          "type": "address"
        },
        {
          "indexed": false,
          "internalType": "uint256",
          "name": "value",
          "type": "uint256"
        }
      ],
      "name": "Approval",
      "type": "event"
    },
    {
      "anonymous": false,
      "inputs": [],
      "name": "EIP712DomainChanged",
      "type": "event"
    },
    {
      "anonymous": false,
      "inputs": [
        {
          "indexed": true,
          "internalType": "address",
          "name": "previousOwner",
          "type": "address"
        },
        {
          "indexed": true,
          "internalType": "address",
          "name": "newOwner",
          "type": "address"
        }
      ],
      "name": "OwnershipTransferStarted",
      "type": "event"
    },
    {
      "anonymous": false,
      "inputs": [
        {
          "indexed": true,
          "internalType": "address",
          "name": "previousOwner",
          "type": "address"
        },
        {
          "indexed": true,
          "internalType": "address",
          "name": "newOwner",
          "type": "address"
        }
      ],
      "name": "OwnershipTransferred",
      "type": "event"
    },
    {
      "anonymous": false,
      "inputs": [
        {
          "indexed": false,
          "internalType": "string",
          "name": "name",
          "type": "string"
        }
      ],
      "name": "SetName",
      "type": "event"
    },
    {
      "anonymous": false,
      "inputs": [
        {
          "indexed": false,
          "internalType": "string",
          "name": "symbol",
          "type": "string"
        }
      ],
      "name": "SetSymbol",
      "type": "event"
    },
    {
      "anonymous": false,
      "inputs": [
        {
          "indexed": true,
          "internalType": "address",
          "name": "from",
          "type": "address"
        },
        {
          "indexed": true,
          "internalType": "address",
          "name": "to",
          "type": "address"
        },
        {
          "indexed": false,
          "internalType": "uint256",
          "name": "value",
          "type": "uint256"
        }
      ],
      "name": "Transfer",
      "type": "event"
    },
    {
      "inputs": [],
      "name": "DOMAIN_SEPARATOR",
      "outputs": [
        {
          "internalType": "bytes32",
          "name": "",
          "type": "bytes32"
        }
      ],
      "stateMutability": "view",
      "type": "function"
    },
    {
      "inputs": [],
      "name": "_pal",
      "outputs": [
        {
          "internalType": "address",
          "name": "",
          "type": "address"
        }
      ],
      "stateMutability": "view",
      "type": "function"
    },
    {
      "inputs": [],
      "name": "acceptOwnership",
      "outputs": [],
      "stateMutability": "nonpayable",
      "type": "function"
    },
    {
      "inputs": [
        {
          "internalType": "address",
          "name": "owner",
          "type": "address"
        },
        {
          "internalType": "address",
          "name": "spender",
          "type": "address"
        }
      ],
      "name": "allowance",
      "outputs": [
        {
          "internalType": "uint256",
          "name": "",
          "type": "uint256"
        }
      ],
      "stateMutability": "view",
      "type": "function"
    },
    {
      "inputs": [
        {
          "internalType": "address",
          "name": "spender",
          "type": "address"
        },
        {
          "internalType": "uint256",
          "name": "amount",
          "type": "uint256"
        }
      ],
      "name": "approve",
      "outputs": [
        {
          "internalType": "bool",
          "name": "",
          "type": "bool"
        }
      ],
      "stateMutability": "nonpayable",
      "type": "function"
    },
    {
      "inputs": [
        {
          "internalType": "address",
          "name": "account",
          "type": "address"
        }
      ],
      "name": "balanceOf",
      "outputs": [
        {
          "internalType": "uint256",
          "name": "",
          "type": "uint256"
        }
      ],
      "stateMutability": "view",
      "type": "function"
    },
    {
      "inputs": [
        {
          "internalType": "address",
          "name": "from",
          "type": "address"
        },
        {
          "internalType": "uint256",
          "name": "amount",
          "type": "uint256"
        }
      ],
      "name": "burn",
      "outputs": [],
      "stateMutability": "nonpayable",
      "type": "function"
    },
    {
      "inputs": [],
      "name": "decimals",
      "outputs": [
        {
          "internalType": "uint8",
          "name": "",
          "type": "uint8"
        }
      ],
      "stateMutability": "view",
      "type": "function"
    },
    {
      "inputs": [
        {
          "internalType": "address",
          "name": "spender",
          "type": "address"
        },
        {
          "internalType": "uint256",
          "name": "subtractedValue",
          "type": "uint256"
        }
      ],
      "name": "decreaseAllowance",
      "outputs": [
        {
          "internalType": "bool",
          "name": "",
          "type": "bool"
        }
      ],
      "stateMutability": "nonpayable",
      "type": "function"
    },
    {
      "inputs": [],
      "name": "eip712Domain",
      "outputs": [
        {
          "internalType": "bytes1",
          "name": "fields",
          "type": "bytes1"
        },
        {
          "internalType": "string",
          "name": "name",
          "type": "string"
        },
        {
          "internalType": "string",
          "name": "version",
          "type": "string"
        },
        {
          "internalType": "uint256",
          "name": "chainId",
          "type": "uint256"
        },
        {
          "internalType": "address",
          "name": "verifyingContract",
          "type": "address"
        },
        {
          "internalType": "bytes32",
          "name": "salt",
          "type": "bytes32"
        },
        {
          "internalType": "uint256[]",
          "name": "extensions",
          "type": "uint256[]"
        }
      ],
      "stateMutability": "view",
      "type": "function"
    },
    {
      "inputs": [
        {
          "internalType": "address",
          "name": "spender",
          "type": "address"
        },
        {
          "internalType": "uint256",
          "name": "addedValue",
          "type": "uint256"
        }
      ],
      "name": "increaseAllowance",
      "outputs": [
        {
          "internalType": "bool",
          "name": "",
          "type": "bool"
        }
      ],
      "stateMutability": "nonpayable",
      "type": "function"
    },
    {
      "inputs": [
        {
          "internalType": "address",
          "name": "to",
          "type": "address"
        },
        {
          "internalType": "uint256",
          "name": "amount",
          "type": "uint256"
        }
      ],
      "name": "mint",
      "outputs": [],
      "stateMutability": "nonpayable",
      "type": "function"
    },
    {
      "inputs": [],
      "name": "name",
      "outputs": [
        {
          "internalType": "string",
          "name": "",
          "type": "string"
        }
      ],
      "stateMutability": "view",
      "type": "function"
    },
    {
      "inputs": [
        {
          "internalType": "address",
          "name": "owner",
          "type": "address"
        }
      ],
      "name": "nonces",
      "outputs": [
        {
          "internalType": "uint256",
          "name": "",
          "type": "uint256"
        }
      ],
      "stateMutability": "view",
      "type": "function"
    },
    {
      "inputs": [],
      "name": "owner",
      "outputs": [
        {
          "internalType": "address",
          "name": "",
          "type": "address"
        }
      ],
      "stateMutability": "view",
      "type": "function"
    },
    {
      "inputs": [],
      "name": "pendingOwner",
      "outputs": [
        {
          "internalType": "address",
          "name": "",
          "type": "address"
        }
      ],
      "stateMutability": "view",
      "type": "function"
    },
    {
      "inputs": [
        {
          "internalType": "address",
          "name": "owner",
          "type": "address"
        },
        {
          "internalType": "address",
          "name": "spender",
          "type": "address"
        },
        {
          "internalType": "uint256",
          "name": "value",
          "type": "uint256"
        },
        {
          "internalType": "uint256",
          "name": "deadline",
          "type": "uint256"
        },
        {
          "internalType": "uint8",
          "name": "v",
          "type": "uint8"
        },
        {
          "internalType": "bytes32",
          "name": "r",
          "type": "bytes32"
        },
        {
          "internalType": "bytes32",
          "name": "s",
          "type": "bytes32"
        }
      ],
      "name": "permit",
      "outputs": [],
      "stateMutability": "nonpayable",
      "type": "function"
    },
    {
      "inputs": [],
      "name": "renounceOwnership",
      "outputs": [],
      "stateMutability": "nonpayable",
      "type": "function"
    },
    {
      "inputs": [
        {
          "internalType": "string",
          "name": "name_",
          "type": "string"
        }
      ],
      "name": "setName",
      "outputs": [],
      "stateMutability": "nonpayable",
      "type": "function"
    },
    {
      "inputs": [
        {
          "internalType": "string",
          "name": "symbol_",
          "type": "string"
        }
      ],
      "name": "setSymbol",
      "outputs": [],
      "stateMutability": "nonpayable",
      "type": "function"
    },
    {
      "inputs": [],
      "name": "symbol",
      "outputs": [
        {
          "internalType": "string",
          "name": "",
          "type": "string"
        }
      ],
      "stateMutability": "view",
      "type": "function"
    },
    {
      "inputs": [],
      "name": "totalSupply",
      "outputs": [
        {
          "internalType": "uint256",
          "name": "",
          "type": "uint256"
        }
      ],
      "stateMutability": "view",
      "type": "function"
    },
    {
      "inputs": [
        {
          "internalType": "address",
          "name": "to",
          "type": "address"
        },
        {
          "internalType": "uint256",
          "name": "amount",
          "type": "uint256"
        }
      ],
      "name": "transfer",
      "outputs": [
        {
          "internalType": "bool",
          "name": "",
          "type": "bool"
        }
      ],
      "stateMutability": "nonpayable",
      "type": "function"
    },
    {
      "inputs": [
        {
          "internalType": "address",
          "name": "from",
          "type": "address"
        },
        {
          "internalType": "address",
          "name": "to",
          "type": "address"
        },
        {
          "internalType": "uint256",
          "name": "amount",
          "type": "uint256"
        }
      ],
      "name": "transferFrom",
      "outputs": [
        {
          "internalType": "bool",
          "name": "",
          "type": "bool"
        }
      ],
      "stateMutability": "nonpayable",
      "type": "function"
    },
    {
      "inputs": [
        {
          "internalType": "address",
          "name": "newOwner",
          "type": "address"
        }
      ],
      "name": "transferOwnership",
      "outputs": [],
      "stateMutability": "nonpayable",
      "type": "function"
    }
  ],
  "bytecode": "0x6101806040523480156200001257600080fd5b5060405162001f6738038062001f67833981016040819052620000359162000358565b6040518060400160405280600e81526020016d2830b6102ab9b2b9102a37b5b2b760911b81525080604051806040016040528060018152602001603160f81b815250848481600390816200008a919062000471565b50600462000099828262000471565b50620000ab9150839050600562000196565b61012052620000bc81600662000196565b61014052815160208084019190912060e052815190820120610100524660a0526200014a60e05161010051604080517f8b73c3c69bb8fe3d512ecc4cf759cc79239f7b179b0ffacaa9a75d522b39400f60208201529081019290925260608201524660808201523060a082015260009060c00160405160208183030381529060405280519060200120905090565b60805250503060c052506200015f33620001cf565b3361016052600b62000172838262000471565b50600c62000181828262000471565b506200018d83620001cf565b50505062000597565b6000602083511015620001b657620001ae83620001ed565b9050620001c9565b81620001c3848262000471565b5060ff90505b92915050565b600a80546001600160a01b0319169055620001ea8162000239565b50565b600080829050601f8151111562000224578260405163305a27a960e01b81526004016200021b91906200053d565b60405180910390fd5b8051620002318262000572565b179392505050565b600980546001600160a01b038381166001600160a01b0319831681179093556040519116919082907f8be0079c531659141344cd1fd0a4f28419497f9722a3daafe3b4186f6b6457e090600090a35050565b634e487b7160e01b600052604160045260246000fd5b60005b83811015620002be578181015183820152602001620002a4565b50506000910152565b600082601f830112620002d957600080fd5b81516001600160401b0380821115620002f657620002f66200028b565b604051601f8301601f19908116603f011681019082821181831017156200032157620003216200028b565b816040528381528660208588010111156200033b57600080fd5b6200034e846020830160208901620002a1565b9695505050505050565b6000806000606084860312156200036e57600080fd5b83516001600160a01b03811681146200038657600080fd5b60208501519093506001600160401b0380821115620003a457600080fd5b620003b287838801620002c7565b93506040860151915080821115620003c957600080fd5b50620003d886828701620002c7565b9150509250925092565b600181811c90821680620003f757607f821691505b6020821081036200041857634e487b7160e01b600052602260045260246000fd5b50919050565b601f8211156200046c57600081815260208120601f850160051c81016020861015620004475750805b601f850160051c820191505b81811015620004685782815560010162000453565b5050505b505050565b81516001600160401b038111156200048d576200048d6200028b565b620004a5816200049e8454620003e2565b846200041e565b602080601f831160018114620004dd5760008415620004c45750858301515b600019600386901b1c1916600185901b17855562000468565b600085815260208120601f198616915b828110156200050e57888601518255948401946001909101908401620004ed565b50858210156200052d5787850151600019600388901b60f8161c191681555b5050505050600190811b01905550565b60208152600082518060208401526200055e816040850160208701620002a1565b601f01601f19169190910160400192915050565b80516020808301519190811015620004185760001960209190910360031b1b16919050565b60805160a05160c05160e0516101005161012051610140516101605161195c6200060b6000396000818161033b0152818161048d015261065c015260006105f2015260006105c701526000610e0c01526000610de401526000610d3f01526000610d6901526000610d93015261195c6000f3fe608060405234801561001057600080fd5b50600436106101735760003560e01c806384b0196e116100de578063b84c824611610097578063dd62ed3e11610071578063dd62ed3e14610323578063e2daf86014610336578063e30c39781461035d578063f2fde38b1461036e57600080fd5b8063b84c8246146102ea578063c47f0027146102fd578063d505accf1461031057600080fd5b806384b0196e146102695780638da5cb5b1461028457806395d89b41146102a95780639dc29fac146102b1578063a457c2d7146102c4578063a9059cbb146102d757600080fd5b8063395093511161013057806339509351146101f557806340c10f191461020857806370a082311461021d578063715018a61461024657806379ba50971461024e5780637ecebe001461025657600080fd5b806306fdde0314610178578063095ea7b31461019657806318160ddd146101b957806323b872dd146101cb578063313ce567146101de5780633644e515146101ed575b600080fd5b610180610381565b60405161018d91906114f3565b60405180910390f35b6101a96101a4366004611529565b610413565b604051901515815260200161018d565b6002545b60405190815260200161018d565b6101a96101d9366004611553565b61042d565b6040516012815260200161018d565b6101bd610451565b6101a9610203366004611529565b610460565b61021b610216366004611529565b610482565b005b6101bd61022b36600461158f565b6001600160a01b031660009081526020819052604090205490565b61021b61050d565b61021b610521565b6101bd61026436600461158f565b61059b565b6102716105b9565b60405161018d97969594939291906115aa565b6009546001600160a01b03165b6040516001600160a01b03909116815260200161018d565b610180610642565b61021b6102bf366004611529565b610651565b6101a96102d2366004611529565b6106d3565b6101a96102e5366004611529565b61074e565b61021b6102f8366004611656565b61075c565b61021b61030b366004611656565b6107ab565b61021b61031e366004611707565b6107ef565b6101bd61033136600461177a565b610953565b6102917f000000000000000000000000000000000000000000000000000000000000000081565b600a546001600160a01b0316610291565b61021b61037c36600461158f565b61097e565b6060600b8054610390906117ad565b80601f01602080910402602001604051908101604052809291908181526020018280546103bc906117ad565b80156104095780601f106103de57610100808354040283529160200191610409565b820191906000526020600020905b8154815290600101906020018083116103ec57829003601f168201915b5050505050905090565b6000336104218185856109ef565b60019150505b92915050565b60003361043b858285610b14565b610446858585610b8e565b506001949350505050565b600061045b610d32565b905090565b6000336104218185856104738383610953565b61047d91906117e1565b6109ef565b336001600160a01b037f000000000000000000000000000000000000000000000000000000000000000016146104ff5760405162461bcd60e51b815260206004820152601f60248201527f50616c546f6b656e3a2063616c6c6572206973206e6f74207468652070616c0060448201526064015b60405180910390fd5b6105098282610e5d565b5050565b610515610f1c565b61051f6000610f76565b565b600a5433906001600160a01b0316811461058f5760405162461bcd60e51b815260206004820152602960248201527f4f776e61626c6532537465703a2063616c6c6572206973206e6f7420746865206044820152683732bb9037bbb732b960b91b60648201526084016104f6565b61059881610f76565b50565b6001600160a01b038116600090815260076020526040812054610427565b6000606080828080836105ed7f00000000000000000000000000000000000000000000000000000000000000006005610f8f565b6106187f00000000000000000000000000000000000000000000000000000000000000006006610f8f565b60408051600080825260208201909252600f60f81b9b939a50919850469750309650945092509050565b6060600c8054610390906117ad565b336001600160a01b037f000000000000000000000000000000000000000000000000000000000000000016146106c95760405162461bcd60e51b815260206004820152601f60248201527f50616c546f6b656e3a2063616c6c6572206973206e6f74207468652070616c0060448201526064016104f6565b610509828261103a565b600033816106e18286610953565b9050838110156107415760405162461bcd60e51b815260206004820152602560248201527f45524332303a2064656372656173656420616c6c6f77616e63652062656c6f77604482015264207a65726f60d81b60648201526084016104f6565b61044682868684036109ef565b600033610421818585610b8e565b610764610f1c565b600c6107708282611850565b507fadf3ae8bd543b3007d464f15cb8ea1db3f44e84d41d203164f40b95e27558ac6816040516107a091906114f3565b60405180910390a150565b6107b3610f1c565b600b6107bf8282611850565b507f4df9dcd34ae35f40f2c756fd8ac83210ed0b76d065543ee73d868aec7c7fcf02816040516107a091906114f3565b8342111561083f5760405162461bcd60e51b815260206004820152601d60248201527f45524332305065726d69743a206578706972656420646561646c696e6500000060448201526064016104f6565b60007f6e71edae12b1b97f4d1f60370fef10105fa2faae0126114a169c64845d6126c988888861086e8c611169565b6040805160208101969096526001600160a01b0394851690860152929091166060840152608083015260a082015260c0810186905260e00160405160208183030381529060405280519060200120905060006108c982611191565b905060006108d9828787876111be565b9050896001600160a01b0316816001600160a01b03161461093c5760405162461bcd60e51b815260206004820152601e60248201527f45524332305065726d69743a20696e76616c6964207369676e6174757265000060448201526064016104f6565b6109478a8a8a6109ef565b50505050505050505050565b6001600160a01b03918216600090815260016020908152604080832093909416825291909152205490565b610986610f1c565b600a80546001600160a01b0383166001600160a01b031990911681179091556109b76009546001600160a01b031690565b6001600160a01b03167f38d16b8cac22d99fc7c124b9cd0de2d3fa1faef420bfe791d8c362d765e2270060405160405180910390a350565b6001600160a01b038316610a515760405162461bcd60e51b8152602060048201526024808201527f45524332303a20617070726f76652066726f6d20746865207a65726f206164646044820152637265737360e01b60648201526084016104f6565b6001600160a01b038216610ab25760405162461bcd60e51b815260206004820152602260248201527f45524332303a20617070726f766520746f20746865207a65726f206164647265604482015261737360f01b60648201526084016104f6565b6001600160a01b0383811660008181526001602090815260408083209487168084529482529182902085905590518481527f8c5be1e5ebec7d5bd14f71427d1e84f3dd0314c0f7b2291e5b200ac8c7c3b92591015b60405180910390a3505050565b6000610b208484610953565b90506000198114610b885781811015610b7b5760405162461bcd60e51b815260206004820152601d60248201527f45524332303a20696e73756666696369656e7420616c6c6f77616e636500000060448201526064016104f6565b610b8884848484036109ef565b50505050565b6001600160a01b038316610bf25760405162461bcd60e51b815260206004820152602560248201527f45524332303a207472616e736665722066726f6d20746865207a65726f206164604482015264647265737360d81b60648201526084016104f6565b6001600160a01b038216610c545760405162461bcd60e51b815260206004820152602360248201527f45524332303a207472616e7366657220746f20746865207a65726f206164647260448201526265737360e81b60648201526084016104f6565b6001600160a01b03831660009081526020819052604090205481811015610ccc5760405162461bcd60e51b815260206004820152602660248201527f45524332303a207472616e7366657220616d6f756e7420657863656564732062604482015265616c616e636560d01b60648201526084016104f6565b6001600160a01b03848116600081815260208181526040808320878703905593871680835291849020805487019055925185815290927fddf252ad1be2c89b69c2b068fc378daa952ba7f163c4a11628f55a4df523b3ef910160405180910390a3610b88565b6000306001600160a01b037f000000000000000000000000000000000000000000000000000000000000000016148015610d8b57507f000000000000000000000000000000000000000000000000000000000000000046145b15610db557507f000000000000000000000000000000000000000000000000000000000000000090565b61045b604080517f8b73c3c69bb8fe3d512ecc4cf759cc79239f7b179b0ffacaa9a75d522b39400f60208201527f0000000000000000000000000000000000000000000000000000000000000000918101919091527f000000000000000000000000000000000000000000000000000000000000000060608201524660808201523060a082015260009060c00160405160208183030381529060405280519060200120905090565b6001600160a01b038216610eb35760405162461bcd60e51b815260206004820152601f60248201527f45524332303a206d696e7420746f20746865207a65726f20616464726573730060448201526064016104f6565b8060026000828254610ec591906117e1565b90915550506001600160a01b038216600081815260208181526040808320805486019055518481527fddf252ad1be2c89b69c2b068fc378daa952ba7f163c4a11628f55a4df523b3ef910160405180910390a35050565b6009546001600160a01b0316331461051f5760405162461bcd60e51b815260206004820181905260248201527f4f776e61626c653a2063616c6c6572206973206e6f7420746865206f776e657260448201526064016104f6565b600a80546001600160a01b0319169055610598816111e6565b606060ff8314610fa957610fa283611238565b9050610427565b818054610fb5906117ad565b80601f0160208091040260200160405190810160405280929190818152602001828054610fe1906117ad565b801561102e5780601f106110035761010080835404028352916020019161102e565b820191906000526020600020905b81548152906001019060200180831161101157829003601f168201915b50505050509050610427565b6001600160a01b03821661109a5760405162461bcd60e51b815260206004820152602160248201527f45524332303a206275726e2066726f6d20746865207a65726f206164647265736044820152607360f81b60648201526084016104f6565b6001600160a01b0382166000908152602081905260409020548181101561110e5760405162461bcd60e51b815260206004820152602260248201527f45524332303a206275726e20616d6f756e7420657863656564732062616c616e604482015261636560f01b60648201526084016104f6565b6001600160a01b0383166000818152602081815260408083208686039055600280548790039055518581529192917fddf252ad1be2c89b69c2b068fc378daa952ba7f163c4a11628f55a4df523b3ef9101610b07565b505050565b6001600160a01b03811660009081526007602052604090208054600181018255905b50919050565b600061042761119e610d32565b8360405161190160f01b8152600281019290925260228201526042902090565b60008060006111cf87878787611277565b915091506111dc8161133b565b5095945050505050565b600980546001600160a01b038381166001600160a01b0319831681179093556040519116919082907f8be0079c531659141344cd1fd0a4f28419497f9722a3daafe3b4186f6b6457e090600090a35050565b6060600061124583611485565b604080516020808252818301909252919250600091906020820181803683375050509182525060208101929092525090565b6000807f7fffffffffffffffffffffffffffffff5d576e7357a4501ddfe92f46681b20a08311156112ae5750600090506003611332565b6040805160008082526020820180845289905260ff881692820192909252606081018690526080810185905260019060a0016020604051602081039080840390855afa158015611302573d6000803e3d6000fd5b5050604051601f1901519150506001600160a01b03811661132b57600060019250925050611332565b9150600090505b94509492505050565b600081600481111561134f5761134f611910565b036113575750565b600181600481111561136b5761136b611910565b036113b85760405162461bcd60e51b815260206004820152601860248201527f45434453413a20696e76616c6964207369676e6174757265000000000000000060448201526064016104f6565b60028160048111156113cc576113cc611910565b036114195760405162461bcd60e51b815260206004820152601f60248201527f45434453413a20696e76616c6964207369676e6174757265206c656e6774680060448201526064016104f6565b600381600481111561142d5761142d611910565b036105985760405162461bcd60e51b815260206004820152602260248201527f45434453413a20696e76616c6964207369676e6174757265202773272076616c604482015261756560f01b60648201526084016104f6565b600060ff8216601f81111561042757604051632cd44ac360e21b815260040160405180910390fd5b6000815180845260005b818110156114d3576020818501810151868301820152016114b7565b506000602082860101526020601f19601f83011685010191505092915050565b60208152600061150660208301846114ad565b9392505050565b80356001600160a01b038116811461152457600080fd5b919050565b6000806040838503121561153c57600080fd5b6115458361150d565b946020939093013593505050565b60008060006060848603121561156857600080fd5b6115718461150d565b925061157f6020850161150d565b9150604084013590509250925092565b6000602082840312156115a157600080fd5b6115068261150d565b60ff60f81b881681526000602060e0818401526115ca60e084018a6114ad565b83810360408501526115dc818a6114ad565b606085018990526001600160a01b038816608086015260a0850187905284810360c0860152855180825283870192509083019060005b8181101561162e57835183529284019291840191600101611612565b50909c9b505050505050505050505050565b634e487b7160e01b600052604160045260246000fd5b60006020828403121561166857600080fd5b813567ffffffffffffffff8082111561168057600080fd5b818401915084601f83011261169457600080fd5b8135818111156116a6576116a6611640565b604051601f8201601f19908116603f011681019083821181831017156116ce576116ce611640565b816040528281528760208487010111156116e757600080fd5b826020860160208301376000928101602001929092525095945050505050565b600080600080600080600060e0888a03121561172257600080fd5b61172b8861150d565b96506117396020890161150d565b95506040880135945060608801359350608088013560ff8116811461175d57600080fd5b9699959850939692959460a0840135945060c09093013592915050565b6000806040838503121561178d57600080fd5b6117968361150d565b91506117a46020840161150d565b90509250929050565b600181811c908216806117c157607f821691505b60208210810361118b57634e487b7160e01b600052602260045260246000fd5b8082018082111561042757634e487b7160e01b600052601160045260246000fd5b601f82111561116457600081815260208120601f850160051c810160208610156118295750805b601f850160051c820191505b8181101561184857828155600101611835565b505050505050565b815167ffffffffffffffff81111561186a5761186a611640565b61187e8161187884546117ad565b84611802565b602080601f8311600181146118b3576000841561189b5750858301515b600019600386901b1c1916600185901b178555611848565b600085815260208120601f198616915b828110156118e2578886015182559484019460019091019084016118c3565b50858210156119005787850151600019600388901b60f8161c191681555b5050505050600190811b01905550565b634e487b7160e01b600052602160045260246000fdfea26469706673582212207623ac115314648964949bc1bfa77d8b3ec73dfc1fc1fba575ac0a7212ddae4364736f6c63430008140033",
  "linkReferences": {},
  "deployedLinkReferences": {}
}