{
  "_format": "hh-sol-artifact-1",
  "contractName": "PalTokenPriceAggregator",
  "sourceName": "contracts/PalTokenPriceAggregator.sol",
  "abi": [
    {
      "inputs": [
        {
          "internalType": "contract Pal",
          "name": "_pal",
          "type": "address"
        }
      ],
      "stateMutability": "nonpayable",
      "type": "constructor"
    },
    {
      "inputs": [
        {
          "internalType": "address[]",
          "name": "_tokens",
          "type": "address[]"
        }
      ],
      "name": "getBulkTokenPrices",
      "outputs": [
        {
          "internalType": "uint256[]",
          "name": "",
          "type": "uint256[]"
        }
      ],
      "stateMutability": "view",
      "type": "function"
    },
    {
      "inputs": [],
      "name": "pal",
      "outputs": [
        {
          "internalType": "contract Pal",
          "name": "",
          "type": "address"
        }
      ],
      "stateMutability": "view",
      "type": "function"
    }
  ],
  "bytecode": "0x60a060405234801561001057600080fd5b5060405161044a38038061044a83398101604081905261002f91610040565b6001600160a01b0316608052610070565b60006020828403121561005257600080fd5b81516001600160a01b038116811461006957600080fd5b9392505050565b6080516103ba610090600039600081816069015260fb01526103ba6000f3fe608060405234801561001057600080fd5b50600436106100365760003560e01c806353172bd41461003b5780639bd2a16e14610064575b600080fd5b61004e610049366004610225565b6100a3565b60405161005b91906102ea565b60405180910390f35b61008b7f000000000000000000000000000000000000000000000000000000000000000081565b6040516001600160a01b03909116815260200161005b565b60606000825167ffffffffffffffff8111156100c1576100c16101f3565b6040519080825280602002602001820160405280156100ea578160200160208202803683370190505b50905060005b83518110156101ec577f00000000000000000000000000000000000000000000000000000000000000006001600160a01b0316630f026f6d85838151811061013a5761013a61032e565b6020026020010151670de0b6b3a76400006040518363ffffffff1660e01b815260040161017c9291906001600160a01b03929092168252602082015260400190565b602060405180830381865afa158015610199573d6000803e3d6000fd5b505050506040513d601f19601f820116820180604052508101906101bd9190610344565b8282815181106101cf576101cf61032e565b6020908102919091010152806101e48161035d565b9150506100f0565b5092915050565b634e487b7160e01b600052604160045260246000fd5b80356001600160a01b038116811461022057600080fd5b919050565b6000602080838503121561023857600080fd5b823567ffffffffffffffff8082111561025057600080fd5b818501915085601f83011261026457600080fd5b813581811115610276576102766101f3565b8060051b604051601f19603f8301168101818110858211171561029b5761029b6101f3565b6040529182528482019250838101850191888311156102b957600080fd5b938501935b828510156102de576102cf85610209565b845293850193928501926102be565b98975050505050505050565b6020808252825182820181905260009190848201906040850190845b8181101561032257835183529284019291840191600101610306565b50909695505050505050565b634e487b7160e01b600052603260045260246000fd5b60006020828403121561035657600080fd5b5051919050565b60006001820161037d57634e487b7160e01b600052601160045260246000fd5b506001019056fea2646970667358221220f38be80ed420196bcf722665a6d6338a5bbd3c4bf879925b91d66c6a7090428664736f6c63430008140033",
  "linkReferences": {},
  "deployedLinkReferences": {}
}