{
  "_format": "hh-sol-artifact-1",
  "contractName": "PalUserToken",
  "sourceName": "contracts/PalUserToken.sol",
  "abi": [
    {
      "inputs": [
        {
          "internalType": "address",
          "name": "owner_",
          "type": "address"
        },
        {
          "internalType": "string",
          "name": "name_",
          "type": "string"
        },
        {
          "internalType": "string",
          "name": "symbol_",
          "type": "string"
        }
      ],
      "stateMutability": "nonpayable",
      "type": "constructor"
    },
    {
      "inputs": [],
      "name": "InvalidShortString",
      "type": "error"
    },
    {
      "inputs": [
        {
          "internalType": "string",
          "name": "str",
          "type": "string"
        }
      ],
      "name": "StringTooLong",
      "type": "error"
    },
    {
      "anonymous": false,
      "inputs": [
        {
          "indexed": true,
          "internalType": "address",
          "name": "owner",
          "type": "address"
        },
        {
          "indexed": true,
          "internalType": "address",
          "name": "spender",
          "type": "address"
        },
        {
          "indexed": false,
          "internalType": "uint256",
          "name": "value",
          "type": "uint256"
        }
      ],
      "name": "Approval",
      "type": "event"
    },
    {
      "anonymous": false,
      "inputs": [],
      "name": "EIP712DomainChanged",
      "type": "event"
    },
    {
      "anonymous": false,
      "inputs": [
        {
          "indexed": true,
          "internalType": "address",
          "name": "previousOwner",
          "type": "address"
        },
        {
          "indexed": true,
          "internalType": "address",
          "name": "newOwner",
          "type": "address"
        }
      ],
      "name": "OwnershipTransferStarted",
      "type": "event"
    },
    {
      "anonymous": false,
      "inputs": [
        {
          "indexed": true,
          "internalType": "address",
          "name": "previousOwner",
          "type": "address"
        },
        {
          "indexed": true,
          "internalType": "address",
          "name": "newOwner",
          "type": "address"
        }
      ],
      "name": "OwnershipTransferred",
      "type": "event"
    },
    {
      "anonymous": false,
      "inputs": [
        {
          "indexed": false,
          "internalType": "string",
          "name": "name",
          "type": "string"
        }
      ],
      "name": "SetName",
      "type": "event"
    },
    {
      "anonymous": false,
      "inputs": [
        {
          "indexed": false,
          "internalType": "string",
          "name": "symbol",
          "type": "string"
        }
      ],
      "name": "SetSymbol",
      "type": "event"
    },
    {
      "anonymous": false,
      "inputs": [
        {
          "indexed": true,
          "internalType": "address",
          "name": "from",
          "type": "address"
        },
        {
          "indexed": true,
          "internalType": "address",
          "name": "to",
          "type": "address"
        },
        {
          "indexed": false,
          "internalType": "uint256",
          "name": "value",
          "type": "uint256"
        }
      ],
      "name": "Transfer",
      "type": "event"
    },
    {
      "inputs": [],
      "name": "DOMAIN_SEPARATOR",
      "outputs": [
        {
          "internalType": "bytes32",
          "name": "",
          "type": "bytes32"
        }
      ],
      "stateMutability": "view",
      "type": "function"
    },
    {
      "inputs": [],
      "name": "_pal",
      "outputs": [
        {
          "internalType": "address",
          "name": "",
          "type": "address"
        }
      ],
      "stateMutability": "view",
      "type": "function"
    },
    {
      "inputs": [],
      "name": "acceptOwnership",
      "outputs": [],
      "stateMutability": "nonpayable",
      "type": "function"
    },
    {
      "inputs": [
        {
          "internalType": "address",
          "name": "owner",
          "type": "address"
        },
        {
          "internalType": "address",
          "name": "spender",
          "type": "address"
        }
      ],
      "name": "allowance",
      "outputs": [
        {
          "internalType": "uint256",
          "name": "",
          "type": "uint256"
        }
      ],
      "stateMutability": "view",
      "type": "function"
    },
    {
      "inputs": [
        {
          "internalType": "address",
          "name": "spender",
          "type": "address"
        },
        {
          "internalType": "uint256",
          "name": "amount",
          "type": "uint256"
        }
      ],
      "name": "approve",
      "outputs": [
        {
          "internalType": "bool",
          "name": "",
          "type": "bool"
        }
      ],
      "stateMutability": "nonpayable",
      "type": "function"
    },
    {
      "inputs": [
        {
          "internalType": "address",
          "name": "account",
          "type": "address"
        }
      ],
      "name": "balanceOf",
      "outputs": [
        {
          "internalType": "uint256",
          "name": "",
          "type": "uint256"
        }
      ],
      "stateMutability": "view",
      "type": "function"
    },
    {
      "inputs": [
        {
          "internalType": "address",
          "name": "from",
          "type": "address"
        },
        {
          "internalType": "uint256",
          "name": "amount",
          "type": "uint256"
        }
      ],
      "name": "burn",
      "outputs": [],
      "stateMutability": "nonpayable",
      "type": "function"
    },
    {
      "inputs": [],
      "name": "decimals",
      "outputs": [
        {
          "internalType": "uint8",
          "name": "",
          "type": "uint8"
        }
      ],
      "stateMutability": "view",
      "type": "function"
    },
    {
      "inputs": [
        {
          "internalType": "address",
          "name": "spender",
          "type": "address"
        },
        {
          "internalType": "uint256",
          "name": "subtractedValue",
          "type": "uint256"
        }
      ],
      "name": "decreaseAllowance",
      "outputs": [
        {
          "internalType": "bool",
          "name": "",
          "type": "bool"
        }
      ],
      "stateMutability": "nonpayable",
      "type": "function"
    },
    {
      "inputs": [],
      "name": "eip712Domain",
      "outputs": [
        {
          "internalType": "bytes1",
          "name": "fields",
          "type": "bytes1"
        },
        {
          "internalType": "string",
          "name": "name",
          "type": "string"
        },
        {
          "internalType": "string",
          "name": "version",
          "type": "string"
        },
        {
          "internalType": "uint256",
          "name": "chainId",
          "type": "uint256"
        },
        {
          "internalType": "address",
          "name": "verifyingContract",
          "type": "address"
        },
        {
          "internalType": "bytes32",
          "name": "salt",
          "type": "bytes32"
        },
        {
          "internalType": "uint256[]",
          "name": "extensions",
          "type": "uint256[]"
        }
      ],
      "stateMutability": "view",
      "type": "function"
    },
    {
      "inputs": [
        {
          "internalType": "address",
          "name": "spender",
          "type": "address"
        },
        {
          "internalType": "uint256",
          "name": "addedValue",
          "type": "uint256"
        }
      ],
      "name": "increaseAllowance",
      "outputs": [
        {
          "internalType": "bool",
          "name": "",
          "type": "bool"
        }
      ],
      "stateMutability": "nonpayable",
      "type": "function"
    },
    {
      "inputs": [
        {
          "internalType": "address",
          "name": "to",
          "type": "address"
        },
        {
          "internalType": "uint256",
          "name": "amount",
          "type": "uint256"
        }
      ],
      "name": "mint",
      "outputs": [],
      "stateMutability": "nonpayable",
      "type": "function"
    },
    {
      "inputs": [],
      "name": "name",
      "outputs": [
        {
          "internalType": "string",
          "name": "",
          "type": "string"
        }
      ],
      "stateMutability": "view",
      "type": "function"
    },
    {
      "inputs": [
        {
          "internalType": "address",
          "name": "owner",
          "type": "address"
        }
      ],
      "name": "nonces",
      "outputs": [
        {
          "internalType": "uint256",
          "name": "",
          "type": "uint256"
        }
      ],
      "stateMutability": "view",
      "type": "function"
    },
    {
      "inputs": [],
      "name": "owner",
      "outputs": [
        {
          "internalType": "address",
          "name": "",
          "type": "address"
        }
      ],
      "stateMutability": "view",
      "type": "function"
    },
    {
      "inputs": [],
      "name": "pendingOwner",
      "outputs": [
        {
          "internalType": "address",
          "name": "",
          "type": "address"
        }
      ],
      "stateMutability": "view",
      "type": "function"
    },
    {
      "inputs": [
        {
          "internalType": "address",
          "name": "owner",
          "type": "address"
        },
        {
          "internalType": "address",
          "name": "spender",
          "type": "address"
        },
        {
          "internalType": "uint256",
          "name": "value",
          "type": "uint256"
        },
        {
          "internalType": "uint256",
          "name": "deadline",
          "type": "uint256"
        },
        {
          "internalType": "uint8",
          "name": "v",
          "type": "uint8"
        },
        {
          "internalType": "bytes32",
          "name": "r",
          "type": "bytes32"
        },
        {
          "internalType": "bytes32",
          "name": "s",
          "type": "bytes32"
        }
      ],
      "name": "permit",
      "outputs": [],
      "stateMutability": "nonpayable",
      "type": "function"
    },
    {
      "inputs": [],
      "name": "renounceOwnership",
      "outputs": [],
      "stateMutability": "nonpayable",
      "type": "function"
    },
    {
      "inputs": [
        {
          "internalType": "string",
          "name": "name_",
          "type": "string"
        }
      ],
      "name": "setName",
      "outputs": [],
      "stateMutability": "nonpayable",
      "type": "function"
    },
    {
      "inputs": [
        {
          "internalType": "string",
          "name": "symbol_",
          "type": "string"
        }
      ],
      "name": "setSymbol",
      "outputs": [],
      "stateMutability": "nonpayable",
      "type": "function"
    },
    {
      "inputs": [],
      "name": "symbol",
      "outputs": [
        {
          "internalType": "string",
          "name": "",
          "type": "string"
        }
      ],
      "stateMutability": "view",
      "type": "function"
    },
    {
      "inputs": [],
      "name": "totalSupply",
      "outputs": [
        {
          "internalType": "uint256",
          "name": "",
          "type": "uint256"
        }
      ],
      "stateMutability": "view",
      "type": "function"
    },
    {
      "inputs": [
        {
          "internalType": "address",
          "name": "to",
          "type": "address"
        },
        {
          "internalType": "uint256",
          "name": "amount",
          "type": "uint256"
        }
      ],
      "name": "transfer",
      "outputs": [
        {
          "internalType": "bool",
          "name": "",
          "type": "bool"
        }
      ],
      "stateMutability": "nonpayable",
      "type": "function"
    },
    {
      "inputs": [
        {
          "internalType": "address",
          "name": "from",
          "type": "address"
        },
        {
          "internalType": "address",
          "name": "to",
          "type": "address"
        },
        {
          "internalType": "uint256",
          "name": "amount",
          "type": "uint256"
        }
      ],
      "name": "transferFrom",
      "outputs": [
        {
          "internalType": "bool",
          "name": "",
          "type": "bool"
        }
      ],
      "stateMutability": "nonpayable",
      "type": "function"
    },
    {
      "inputs": [
        {
          "internalType": "address",
          "name": "newOwner",
          "type": "address"
        }
      ],
      "name": "transferOwnership",
      "outputs": [],
      "stateMutability": "nonpayable",
      "type": "function"
    }
  ],
  "bytecode": "0x6101806040523480156200001257600080fd5b5060405162001fde38038062001fde8339810160408190526200003591620003e8565b6040518060400160405280600e81526020016d2830b6102ab9b2b9102a37b5b2b760911b81525080604051806040016040528060018152602001603160f81b81525060405180602001604052806000815250604051806020016040528060008152508160039081620000a8919062000501565b506004620000b7828262000501565b50620000c99150839050600562000226565b61012052620000da81600662000226565b61014052815160208084019190912060e052815190820120610100524660a0526200016860e05161010051604080517f8b73c3c69bb8fe3d512ecc4cf759cc79239f7b179b0ffacaa9a75d522b39400f60208201529081019290925260608201524660808201523060a082015260009060c00160405160208183030381529060405280519060200120905090565b60805250503060c052506200017d336200025f565b3361016052600b62000190838262000501565b50600c6200019f828262000501565b50620001ab836200025f565b7f4df9dcd34ae35f40f2c756fd8ac83210ed0b76d065543ee73d868aec7c7fcf0282604051620001dc9190620005cd565b60405180910390a17fadf3ae8bd543b3007d464f15cb8ea1db3f44e84d41d203164f40b95e27558ac681604051620002159190620005cd565b60405180910390a150505062000627565b600060208351101562000246576200023e836200027d565b905062000259565b8162000253848262000501565b5060ff90505b92915050565b600a80546001600160a01b03191690556200027a81620002c9565b50565b600080829050601f81511115620002b4578260405163305a27a960e01b8152600401620002ab9190620005cd565b60405180910390fd5b8051620002c18262000602565b179392505050565b600980546001600160a01b038381166001600160a01b0319831681179093556040519116919082907f8be0079c531659141344cd1fd0a4f28419497f9722a3daafe3b4186f6b6457e090600090a35050565b634e487b7160e01b600052604160045260246000fd5b60005b838110156200034e57818101518382015260200162000334565b50506000910152565b600082601f8301126200036957600080fd5b81516001600160401b03808211156200038657620003866200031b565b604051601f8301601f19908116603f01168101908282118183101715620003b157620003b16200031b565b81604052838152866020858801011115620003cb57600080fd5b620003de84602083016020890162000331565b9695505050505050565b600080600060608486031215620003fe57600080fd5b83516001600160a01b03811681146200041657600080fd5b60208501519093506001600160401b03808211156200043457600080fd5b620004428783880162000357565b935060408601519150808211156200045957600080fd5b50620004688682870162000357565b9150509250925092565b600181811c908216806200048757607f821691505b602082108103620004a857634e487b7160e01b600052602260045260246000fd5b50919050565b601f821115620004fc57600081815260208120601f850160051c81016020861015620004d75750805b601f850160051c820191505b81811015620004f857828155600101620004e3565b5050505b505050565b81516001600160401b038111156200051d576200051d6200031b565b62000535816200052e845462000472565b84620004ae565b602080601f8311600181146200056d5760008415620005545750858301515b600019600386901b1c1916600185901b178555620004f8565b600085815260208120601f198616915b828110156200059e578886015182559484019460019091019084016200057d565b5085821015620005bd5787850151600019600388901b60f8161c191681555b5050505050600190811b01905550565b6020815260008251806020840152620005ee81604085016020870162000331565b601f01601f19169190910160400192915050565b80516020808301519190811015620004a85760001960209190910360031b1b16919050565b60805160a05160c05160e051610100516101205161014051610160516119436200069b6000396000818161033b0152818161048d0152610630015260006105c60152600061059b01526000610db001526000610d8801526000610ce301526000610d0d01526000610d3701526119436000f3fe608060405234801561001057600080fd5b50600436106101735760003560e01c806384b0196e116100de578063b84c824611610097578063dd62ed3e11610071578063dd62ed3e14610323578063e2daf86014610336578063e30c39781461035d578063f2fde38b1461036e57600080fd5b8063b84c8246146102ea578063c47f0027146102fd578063d505accf1461031057600080fd5b806384b0196e146102695780638da5cb5b1461028457806395d89b41146102a95780639dc29fac146102b1578063a457c2d7146102c4578063a9059cbb146102d757600080fd5b8063395093511161013057806339509351146101f557806340c10f191461020857806370a082311461021d578063715018a61461024657806379ba50971461024e5780637ecebe001461025657600080fd5b806306fdde0314610178578063095ea7b31461019657806318160ddd146101b957806323b872dd146101cb578063313ce567146101de5780633644e515146101ed575b600080fd5b610180610381565b60405161018d9190611497565b60405180910390f35b6101a96101a43660046114cd565b610413565b604051901515815260200161018d565b6002545b60405190815260200161018d565b6101a96101d93660046114f7565b61042d565b6040516012815260200161018d565b6101bd610451565b6101a96102033660046114cd565b610460565b61021b6102163660046114cd565b610482565b005b6101bd61022b366004611533565b6001600160a01b031660009081526020819052604090205490565b61021b6104e1565b61021b6104f5565b6101bd610264366004611533565b61056f565b61027161058d565b60405161018d979695949392919061154e565b6009546001600160a01b03165b6040516001600160a01b03909116815260200161018d565b610180610616565b61021b6102bf3660046114cd565b610625565b6101a96102d23660046114cd565b610677565b6101a96102e53660046114cd565b6106f2565b61021b6102f83660046115fa565b610700565b61021b61030b3660046115fa565b61074f565b61021b61031e3660046116ab565b610793565b6101bd61033136600461171e565b6108f7565b6102917f000000000000000000000000000000000000000000000000000000000000000081565b600a546001600160a01b0316610291565b61021b61037c366004611533565b610922565b6060600b805461039090611751565b80601f01602080910402602001604051908101604052809291908181526020018280546103bc90611751565b80156104095780601f106103de57610100808354040283529160200191610409565b820191906000526020600020905b8154815290600101906020018083116103ec57829003601f168201915b5050505050905090565b600033610421818585610993565b60019150505b92915050565b60003361043b858285610ab8565b610446858585610b32565b506001949350505050565b600061045b610cd6565b905090565b60003361042181858561047383836108f7565b61047d9190611785565b610993565b336001600160a01b037f000000000000000000000000000000000000000000000000000000000000000016146104d35760405162461bcd60e51b81526004016104ca906117a6565b60405180910390fd5b6104dd8282610e01565b5050565b6104e9610ec0565b6104f36000610f1a565b565b600a5433906001600160a01b031681146105635760405162461bcd60e51b815260206004820152602960248201527f4f776e61626c6532537465703a2063616c6c6572206973206e6f7420746865206044820152683732bb9037bbb732b960b91b60648201526084016104ca565b61056c81610f1a565b50565b6001600160a01b038116600090815260076020526040812054610427565b6000606080828080836105c17f00000000000000000000000000000000000000000000000000000000000000006005610f33565b6105ec7f00000000000000000000000000000000000000000000000000000000000000006006610f33565b60408051600080825260208201909252600f60f81b9b939a50919850469750309650945092509050565b6060600c805461039090611751565b336001600160a01b037f0000000000000000000000000000000000000000000000000000000000000000161461066d5760405162461bcd60e51b81526004016104ca906117a6565b6104dd8282610fde565b6000338161068582866108f7565b9050838110156106e55760405162461bcd60e51b815260206004820152602560248201527f45524332303a2064656372656173656420616c6c6f77616e63652062656c6f77604482015264207a65726f60d81b60648201526084016104ca565b6104468286868403610993565b600033610421818585610b32565b610708610ec0565b600c6107148282611837565b507fadf3ae8bd543b3007d464f15cb8ea1db3f44e84d41d203164f40b95e27558ac6816040516107449190611497565b60405180910390a150565b610757610ec0565b600b6107638282611837565b507f4df9dcd34ae35f40f2c756fd8ac83210ed0b76d065543ee73d868aec7c7fcf02816040516107449190611497565b834211156107e35760405162461bcd60e51b815260206004820152601d60248201527f45524332305065726d69743a206578706972656420646561646c696e6500000060448201526064016104ca565b60007f6e71edae12b1b97f4d1f60370fef10105fa2faae0126114a169c64845d6126c98888886108128c61110d565b6040805160208101969096526001600160a01b0394851690860152929091166060840152608083015260a082015260c0810186905260e001604051602081830303815290604052805190602001209050600061086d82611135565b9050600061087d82878787611162565b9050896001600160a01b0316816001600160a01b0316146108e05760405162461bcd60e51b815260206004820152601e60248201527f45524332305065726d69743a20696e76616c6964207369676e6174757265000060448201526064016104ca565b6108eb8a8a8a610993565b50505050505050505050565b6001600160a01b03918216600090815260016020908152604080832093909416825291909152205490565b61092a610ec0565b600a80546001600160a01b0383166001600160a01b0319909116811790915561095b6009546001600160a01b031690565b6001600160a01b03167f38d16b8cac22d99fc7c124b9cd0de2d3fa1faef420bfe791d8c362d765e2270060405160405180910390a350565b6001600160a01b0383166109f55760405162461bcd60e51b8152602060048201526024808201527f45524332303a20617070726f76652066726f6d20746865207a65726f206164646044820152637265737360e01b60648201526084016104ca565b6001600160a01b038216610a565760405162461bcd60e51b815260206004820152602260248201527f45524332303a20617070726f766520746f20746865207a65726f206164647265604482015261737360f01b60648201526084016104ca565b6001600160a01b0383811660008181526001602090815260408083209487168084529482529182902085905590518481527f8c5be1e5ebec7d5bd14f71427d1e84f3dd0314c0f7b2291e5b200ac8c7c3b92591015b60405180910390a3505050565b6000610ac484846108f7565b90506000198114610b2c5781811015610b1f5760405162461bcd60e51b815260206004820152601d60248201527f45524332303a20696e73756666696369656e7420616c6c6f77616e636500000060448201526064016104ca565b610b2c8484848403610993565b50505050565b6001600160a01b038316610b965760405162461bcd60e51b815260206004820152602560248201527f45524332303a207472616e736665722066726f6d20746865207a65726f206164604482015264647265737360d81b60648201526084016104ca565b6001600160a01b038216610bf85760405162461bcd60e51b815260206004820152602360248201527f45524332303a207472616e7366657220746f20746865207a65726f206164647260448201526265737360e81b60648201526084016104ca565b6001600160a01b03831660009081526020819052604090205481811015610c705760405162461bcd60e51b815260206004820152602660248201527f45524332303a207472616e7366657220616d6f756e7420657863656564732062604482015265616c616e636560d01b60648201526084016104ca565b6001600160a01b03848116600081815260208181526040808320878703905593871680835291849020805487019055925185815290927fddf252ad1be2c89b69c2b068fc378daa952ba7f163c4a11628f55a4df523b3ef910160405180910390a3610b2c565b6000306001600160a01b037f000000000000000000000000000000000000000000000000000000000000000016148015610d2f57507f000000000000000000000000000000000000000000000000000000000000000046145b15610d5957507f000000000000000000000000000000000000000000000000000000000000000090565b61045b604080517f8b73c3c69bb8fe3d512ecc4cf759cc79239f7b179b0ffacaa9a75d522b39400f60208201527f0000000000000000000000000000000000000000000000000000000000000000918101919091527f000000000000000000000000000000000000000000000000000000000000000060608201524660808201523060a082015260009060c00160405160208183030381529060405280519060200120905090565b6001600160a01b038216610e575760405162461bcd60e51b815260206004820152601f60248201527f45524332303a206d696e7420746f20746865207a65726f20616464726573730060448201526064016104ca565b8060026000828254610e699190611785565b90915550506001600160a01b038216600081815260208181526040808320805486019055518481527fddf252ad1be2c89b69c2b068fc378daa952ba7f163c4a11628f55a4df523b3ef910160405180910390a35050565b6009546001600160a01b031633146104f35760405162461bcd60e51b815260206004820181905260248201527f4f776e61626c653a2063616c6c6572206973206e6f7420746865206f776e657260448201526064016104ca565b600a80546001600160a01b031916905561056c8161118a565b606060ff8314610f4d57610f46836111dc565b9050610427565b818054610f5990611751565b80601f0160208091040260200160405190810160405280929190818152602001828054610f8590611751565b8015610fd25780601f10610fa757610100808354040283529160200191610fd2565b820191906000526020600020905b815481529060010190602001808311610fb557829003601f168201915b50505050509050610427565b6001600160a01b03821661103e5760405162461bcd60e51b815260206004820152602160248201527f45524332303a206275726e2066726f6d20746865207a65726f206164647265736044820152607360f81b60648201526084016104ca565b6001600160a01b038216600090815260208190526040902054818110156110b25760405162461bcd60e51b815260206004820152602260248201527f45524332303a206275726e20616d6f756e7420657863656564732062616c616e604482015261636560f01b60648201526084016104ca565b6001600160a01b0383166000818152602081815260408083208686039055600280548790039055518581529192917fddf252ad1be2c89b69c2b068fc378daa952ba7f163c4a11628f55a4df523b3ef9101610aab565b505050565b6001600160a01b03811660009081526007602052604090208054600181018255905b50919050565b6000610427611142610cd6565b8360405161190160f01b8152600281019290925260228201526042902090565b60008060006111738787878761121b565b91509150611180816112df565b5095945050505050565b600980546001600160a01b038381166001600160a01b0319831681179093556040519116919082907f8be0079c531659141344cd1fd0a4f28419497f9722a3daafe3b4186f6b6457e090600090a35050565b606060006111e983611429565b604080516020808252818301909252919250600091906020820181803683375050509182525060208101929092525090565b6000807f7fffffffffffffffffffffffffffffff5d576e7357a4501ddfe92f46681b20a083111561125257506000905060036112d6565b6040805160008082526020820180845289905260ff881692820192909252606081018690526080810185905260019060a0016020604051602081039080840390855afa1580156112a6573d6000803e3d6000fd5b5050604051601f1901519150506001600160a01b0381166112cf576000600192509250506112d6565b9150600090505b94509492505050565b60008160048111156112f3576112f36118f7565b036112fb5750565b600181600481111561130f5761130f6118f7565b0361135c5760405162461bcd60e51b815260206004820152601860248201527f45434453413a20696e76616c6964207369676e6174757265000000000000000060448201526064016104ca565b6002816004811115611370576113706118f7565b036113bd5760405162461bcd60e51b815260206004820152601f60248201527f45434453413a20696e76616c6964207369676e6174757265206c656e6774680060448201526064016104ca565b60038160048111156113d1576113d16118f7565b0361056c5760405162461bcd60e51b815260206004820152602260248201527f45434453413a20696e76616c6964207369676e6174757265202773272076616c604482015261756560f01b60648201526084016104ca565b600060ff8216601f81111561042757604051632cd44ac360e21b815260040160405180910390fd5b6000815180845260005b818110156114775760208185018101518683018201520161145b565b506000602082860101526020601f19601f83011685010191505092915050565b6020815260006114aa6020830184611451565b9392505050565b80356001600160a01b03811681146114c857600080fd5b919050565b600080604083850312156114e057600080fd5b6114e9836114b1565b946020939093013593505050565b60008060006060848603121561150c57600080fd5b611515846114b1565b9250611523602085016114b1565b9150604084013590509250925092565b60006020828403121561154557600080fd5b6114aa826114b1565b60ff60f81b881681526000602060e08184015261156e60e084018a611451565b8381036040850152611580818a611451565b606085018990526001600160a01b038816608086015260a0850187905284810360c0860152855180825283870192509083019060005b818110156115d2578351835292840192918401916001016115b6565b50909c9b505050505050505050505050565b634e487b7160e01b600052604160045260246000fd5b60006020828403121561160c57600080fd5b813567ffffffffffffffff8082111561162457600080fd5b818401915084601f83011261163857600080fd5b81358181111561164a5761164a6115e4565b604051601f8201601f19908116603f01168101908382118183101715611672576116726115e4565b8160405282815287602084870101111561168b57600080fd5b826020860160208301376000928101602001929092525095945050505050565b600080600080600080600060e0888a0312156116c657600080fd5b6116cf886114b1565b96506116dd602089016114b1565b95506040880135945060608801359350608088013560ff8116811461170157600080fd5b9699959850939692959460a0840135945060c09093013592915050565b6000806040838503121561173157600080fd5b61173a836114b1565b9150611748602084016114b1565b90509250929050565b600181811c9082168061176557607f821691505b60208210810361112f57634e487b7160e01b600052602260045260246000fd5b8082018082111561042757634e487b7160e01b600052601160045260246000fd5b60208082526023908201527f50616c55736572546f6b656e3a2063616c6c6572206973206e6f7420746865206040820152621c185b60ea1b606082015260800190565b601f82111561110857600081815260208120601f850160051c810160208610156118105750805b601f850160051c820191505b8181101561182f5782815560010161181c565b505050505050565b815167ffffffffffffffff811115611851576118516115e4565b6118658161185f8454611751565b846117e9565b602080601f83116001811461189a57600084156118825750858301515b600019600386901b1c1916600185901b17855561182f565b600085815260208120601f198616915b828110156118c9578886015182559484019460019091019084016118aa565b50858210156118e75787850151600019600388901b60f8161c191681555b5050505050600190811b01905550565b634e487b7160e01b600052602160045260246000fdfea264697066735822122027a5aa61d52af7556287bc771aaaba2d7093585582e57af3665abab2de983beb64736f6c63430008140033",
  "linkReferences": {},
  "deployedLinkReferences": {}
}