{
  "_format": "hh-sol-artifact-1",
  "contractName": "Pal",
  "sourceName": "contracts/Pal.sol",
  "abi": [
    {
      "anonymous": false,
      "inputs": [
        {
          "indexed": false,
          "internalType": "uint8",
          "name": "version",
          "type": "uint8"
        }
      ],
      "name": "Initialized",
      "type": "event"
    },
    {
      "anonymous": false,
      "inputs": [
        {
          "indexed": true,
          "internalType": "address",
          "name": "previousOwner",
          "type": "address"
        },
        {
          "indexed": true,
          "internalType": "address",
          "name": "newOwner",
          "type": "address"
        }
      ],
      "name": "OwnershipTransferred",
      "type": "event"
    },
    {
      "anonymous": false,
      "inputs": [
        {
          "indexed": true,
          "internalType": "address",
          "name": "oracle",
          "type": "address"
        }
      ],
      "name": "SetOracleAddress",
      "type": "event"
    },
    {
      "anonymous": false,
      "inputs": [
        {
          "indexed": true,
          "internalType": "address",
          "name": "destination",
          "type": "address"
        }
      ],
      "name": "SetProtocolFeeDestination",
      "type": "event"
    },
    {
      "anonymous": false,
      "inputs": [
        {
          "indexed": false,
          "internalType": "uint256",
          "name": "percent",
          "type": "uint256"
        }
      ],
      "name": "SetProtocolFeePercent",
      "type": "event"
    },
    {
      "anonymous": false,
      "inputs": [
        {
          "indexed": false,
          "internalType": "uint256",
          "name": "percent",
          "type": "uint256"
        }
      ],
      "name": "SetTokenOwnerFeePercent",
      "type": "event"
    },
    {
      "anonymous": false,
      "inputs": [
        {
          "indexed": true,
          "internalType": "address",
          "name": "trader",
          "type": "address"
        },
        {
          "indexed": true,
          "internalType": "address",
          "name": "tokenAddress",
          "type": "address"
        },
        {
          "indexed": true,
          "internalType": "bool",
          "name": "isBuy",
          "type": "bool"
        },
        {
          "indexed": false,
          "internalType": "uint256",
          "name": "amount",
          "type": "uint256"
        },
        {
          "indexed": false,
          "internalType": "uint256",
          "name": "price",
          "type": "uint256"
        },
        {
          "indexed": false,
          "internalType": "uint256",
          "name": "protocolFee",
          "type": "uint256"
        },
        {
          "indexed": false,
          "internalType": "uint256",
          "name": "tokenOwnerFee",
          "type": "uint256"
        },
        {
          "indexed": false,
          "internalType": "uint256",
          "name": "additionalFee",
          "type": "uint256"
        },
        {
          "indexed": false,
          "internalType": "uint256",
          "name": "supply",
          "type": "uint256"
        }
      ],
      "name": "Trade",
      "type": "event"
    },
    {
      "anonymous": false,
      "inputs": [
        {
          "indexed": true,
          "internalType": "address",
          "name": "owner",
          "type": "address"
        },
        {
          "indexed": true,
          "internalType": "address",
          "name": "tokenAddress",
          "type": "address"
        },
        {
          "indexed": false,
          "internalType": "string",
          "name": "name",
          "type": "string"
        },
        {
          "indexed": false,
          "internalType": "string",
          "name": "symbol",
          "type": "string"
        }
      ],
      "name": "UserTokenCreated",
      "type": "event"
    },
    {
      "inputs": [
        {
          "internalType": "address",
          "name": "tokenAddress",
          "type": "address"
        },
        {
          "internalType": "uint256",
          "name": "amount",
          "type": "uint256"
        },
        {
          "internalType": "bytes",
          "name": "oracleSignature",
          "type": "bytes"
        }
      ],
      "name": "buyToken",
      "outputs": [],
      "stateMutability": "payable",
      "type": "function"
    },
    {
      "inputs": [
        {
          "internalType": "uint256",
          "name": "price",
          "type": "uint256"
        },
        {
          "internalType": "bytes",
          "name": "oracleSignature",
          "type": "bytes"
        }
      ],
      "name": "calculateAdditionalTokenOwnerFee",
      "outputs": [
        {
          "internalType": "uint256",
          "name": "",
          "type": "uint256"
        }
      ],
      "stateMutability": "view",
      "type": "function"
    },
    {
      "inputs": [
        {
          "internalType": "string",
          "name": "name",
          "type": "string"
        },
        {
          "internalType": "string",
          "name": "symbol",
          "type": "string"
        }
      ],
      "name": "createToken",
      "outputs": [
        {
          "internalType": "address",
          "name": "",
          "type": "address"
        }
      ],
      "stateMutability": "nonpayable",
      "type": "function"
    },
    {
      "inputs": [
        {
          "internalType": "address",
          "name": "tokenAddress",
          "type": "address"
        },
        {
          "internalType": "uint256",
          "name": "amount",
          "type": "uint256"
        }
      ],
      "name": "getBuyPrice",
      "outputs": [
        {
          "internalType": "uint256",
          "name": "",
          "type": "uint256"
        }
      ],
      "stateMutability": "view",
      "type": "function"
    },
    {
      "inputs": [
        {
          "internalType": "address",
          "name": "tokenAddress",
          "type": "address"
        },
        {
          "internalType": "uint256",
          "name": "amount",
          "type": "uint256"
        }
      ],
      "name": "getBuyPriceAfterFee",
      "outputs": [
        {
          "internalType": "uint256",
          "name": "",
          "type": "uint256"
        }
      ],
      "stateMutability": "view",
      "type": "function"
    },
    {
      "inputs": [
        {
          "internalType": "uint256",
          "name": "supply",
          "type": "uint256"
        },
        {
          "internalType": "uint256",
          "name": "amount",
          "type": "uint256"
        }
      ],
      "name": "getPrice",
      "outputs": [
        {
          "internalType": "uint256",
          "name": "",
          "type": "uint256"
        }
      ],
      "stateMutability": "pure",
      "type": "function"
    },
    {
      "inputs": [
        {
          "internalType": "address",
          "name": "tokenAddress",
          "type": "address"
        },
        {
          "internalType": "uint256",
          "name": "amount",
          "type": "uint256"
        }
      ],
      "name": "getSellPrice",
      "outputs": [
        {
          "internalType": "uint256",
          "name": "",
          "type": "uint256"
        }
      ],
      "stateMutability": "view",
      "type": "function"
    },
    {
      "inputs": [
        {
          "internalType": "address",
          "name": "tokenAddress",
          "type": "address"
        },
        {
          "internalType": "uint256",
          "name": "amount",
          "type": "uint256"
        }
      ],
      "name": "getSellPriceAfterFee",
      "outputs": [
        {
          "internalType": "uint256",
          "name": "",
          "type": "uint256"
        }
      ],
      "stateMutability": "view",
      "type": "function"
    },
    {
      "inputs": [
        {
          "internalType": "address payable",
          "name": "_protocolFeeDestination",
          "type": "address"
        },
        {
          "internalType": "uint256",
          "name": "_protocolFeePercent",
          "type": "uint256"
        },
        {
          "internalType": "uint256",
          "name": "_tokenOwnerFeePercent",
          "type": "uint256"
        }
      ],
      "name": "initialize",
      "outputs": [],
      "stateMutability": "nonpayable",
      "type": "function"
    },
    {
      "inputs": [
        {
          "internalType": "address",
          "name": "",
          "type": "address"
        }
      ],
      "name": "isPalUserToken",
      "outputs": [
        {
          "internalType": "bool",
          "name": "",
          "type": "bool"
        }
      ],
      "stateMutability": "view",
      "type": "function"
    },
    {
      "inputs": [],
      "name": "membershipToken",
      "outputs": [
        {
          "internalType": "contract IERC20",
          "name": "",
          "type": "address"
        }
      ],
      "stateMutability": "view",
      "type": "function"
    },
    {
      "inputs": [],
      "name": "membershipWeight",
      "outputs": [
        {
          "internalType": "uint256",
          "name": "",
          "type": "uint256"
        }
      ],
      "stateMutability": "view",
      "type": "function"
    },
    {
      "inputs": [],
      "name": "oracleAddress",
      "outputs": [
        {
          "internalType": "address",
          "name": "",
          "type": "address"
        }
      ],
      "stateMutability": "view",
      "type": "function"
    },
    {
      "inputs": [],
      "name": "owner",
      "outputs": [
        {
          "internalType": "address",
          "name": "",
          "type": "address"
        }
      ],
      "stateMutability": "view",
      "type": "function"
    },
    {
      "inputs": [],
      "name": "protocolFeeDestination",
      "outputs": [
        {
          "internalType": "address payable",
          "name": "",
          "type": "address"
        }
      ],
      "stateMutability": "view",
      "type": "function"
    },
    {
      "inputs": [],
      "name": "protocolFeePercent",
      "outputs": [
        {
          "internalType": "uint256",
          "name": "",
          "type": "uint256"
        }
      ],
      "stateMutability": "view",
      "type": "function"
    },
    {
      "inputs": [],
      "name": "renounceOwnership",
      "outputs": [],
      "stateMutability": "nonpayable",
      "type": "function"
    },
    {
      "inputs": [
        {
          "internalType": "address",
          "name": "tokenAddress",
          "type": "address"
        },
        {
          "internalType": "uint256",
          "name": "amount",
          "type": "uint256"
        },
        {
          "internalType": "bytes",
          "name": "oracleSignature",
          "type": "bytes"
        }
      ],
      "name": "sellToken",
      "outputs": [],
      "stateMutability": "nonpayable",
      "type": "function"
    },
    {
      "inputs": [
        {
          "internalType": "address",
          "name": "_oracle",
          "type": "address"
        }
      ],
      "name": "setOracleAddress",
      "outputs": [],
      "stateMutability": "nonpayable",
      "type": "function"
    },
    {
      "inputs": [
        {
          "internalType": "address payable",
          "name": "_feeDestination",
          "type": "address"
        }
      ],
      "name": "setProtocolFeeDestination",
      "outputs": [],
      "stateMutability": "nonpayable",
      "type": "function"
    },
    {
      "inputs": [
        {
          "internalType": "uint256",
          "name": "_feePercent",
          "type": "uint256"
        }
      ],
      "name": "setProtocolFeePercent",
      "outputs": [],
      "stateMutability": "nonpayable",
      "type": "function"
    },
    {
      "inputs": [
        {
          "internalType": "uint256",
          "name": "_feePercent",
          "type": "uint256"
        }
      ],
      "name": "setTokenOwnerFeePercent",
      "outputs": [],
      "stateMutability": "nonpayable",
      "type": "function"
    },
    {
      "inputs": [],
      "name": "tokenOwnerFeePercent",
      "outputs": [
        {
          "internalType": "uint256",
          "name": "",
          "type": "uint256"
        }
      ],
      "stateMutability": "view",
      "type": "function"
    },
    {
      "inputs": [
        {
          "internalType": "address",
          "name": "newOwner",
          "type": "address"
        }
      ],
      "name": "transferOwnership",
      "outputs": [],
      "stateMutability": "nonpayable",
      "type": "function"
    }
  ],
  "bytecode": "0x608060405234801561001057600080fd5b50613e59806100206000396000f3fe608060405260043610620001675760003560e01c80637a1ac61e11620000c5578063a10786b01162000078578063a10786b01462000414578063a49834211462000439578063a89ae4ba146200045e578063b1a491e01462000480578063d6e6eb9f14620004a5578063f2fde38b14620004bd57600080fd5b80637a1ac61e14620003285780638bbe34ea146200034d5780638c9ae88d14620003655780638da5cb5b146200038a5780639ae7178114620003aa5780639e214b3c14620003cf57600080fd5b80634635256e116200011e5780634635256e146200025d5780634c69c00f14620002825780634ce7957c14620002a75780635cf4ee9114620002c957806362ad351b14620002ee578063715018a6146200031057600080fd5b806305e573be146200016c5780630f026f6d14620001855780631b68e3e514620001bd5780632267a89c14620001d55780632f2f2d5614620001fa5780633d0457ea1462000238575b600080fd5b620001836200017d36600462001a97565b620004e2565b005b3480156200019257600080fd5b50620001aa620001a436600462001af6565b62000508565b6040519081526020015b60405180910390f35b348015620001ca57600080fd5b50620001aa60995481565b348015620001e257600080fd5b50620001aa620001f436600462001af6565b62000590565b3480156200020757600080fd5b506200021f6200021936600462001b25565b6200060c565b6040516001600160a01b039091168152602001620001b4565b3480156200024557600080fd5b50620001836200025736600462001b90565b620006b8565b3480156200026a57600080fd5b50620001aa6200027c36600462001af6565b620006fe565b3480156200028f57600080fd5b5062000183620002a136600462001baa565b6200077c565b348015620002b457600080fd5b506097546200021f906001600160a01b031681565b348015620002d657600080fd5b50620001aa620002e836600462001bd1565b620007d0565b348015620002fb57600080fd5b50609a546200021f906001600160a01b031681565b3480156200031d57600080fd5b506200018362000916565b3480156200033557600080fd5b50620001836200034736600462001bf4565b6200092e565b3480156200035a57600080fd5b50620001aa609b5481565b3480156200037257600080fd5b50620001836200038436600462001a97565b62000b0f565b3480156200039757600080fd5b506033546001600160a01b03166200021f565b348015620003b757600080fd5b50620001aa620003c936600462001af6565b62000b2f565b348015620003dc57600080fd5b5062000403620003ee36600462001baa565b609c6020526000908152604090205460ff1681565b6040519015158152602001620001b4565b3480156200042157600080fd5b50620001836200043336600462001baa565b62000bab565b3480156200044657600080fd5b50620001836200045836600462001b90565b62000bff565b3480156200046b57600080fd5b50609d546200021f906001600160a01b031681565b3480156200048d57600080fd5b50620001aa6200049f36600462001c2c565b62000c3f565b348015620004b257600080fd5b50620001aa60985481565b348015620004ca57600080fd5b5062000183620004dc36600462001baa565b62000dae565b6000620004f08484620006fe565b90506200050284848360018662000e2d565b50505050565b600080620005178484620006fe565b90506000670de0b6b3a76400006098548362000534919062001c83565b62000540919062001c9d565b90506000670de0b6b3a7640000609954846200055d919062001c83565b62000569919062001c9d565b90508062000578838562001cc0565b62000584919062001cc0565b93505050505b92915050565b6000806200059f848462000b2f565b90506000670de0b6b3a764000060985483620005bc919062001c83565b620005c8919062001c9d565b90506000670de0b6b3a764000060995484620005e5919062001c83565b620005f1919062001c9d565b90508062000600838562001cd6565b62000584919062001cd6565b6000803384846040516200062090620019c8565b6200062e9392919062001d34565b604051809103906000f0801580156200064b573d6000803e3d6000fd5b506001600160a01b0381166000818152609c602052604090819020805460ff19166001179055519192509033907f3b31b445d96b5084b92a920644688584e11bc3d0c4dddf479f1307f2f2d73c2890620006a9908890889062001d78565b60405180910390a39392505050565b620006c262001373565b60998190556040518181527f46a6cbb523ecf70a9db3d87be664863e6dee089316374a82ebff2394d1898626906020015b60405180910390a150565b60008083905062000774816001600160a01b03166318160ddd6040518163ffffffff1660e01b8152600401602060405180830381865afa15801562000747573d6000803e3d6000fd5b505050506040513d601f19601f820116820180604052508101906200076d919062001daa565b84620007d0565b949350505050565b6200078662001373565b609d80546001600160a01b0319166001600160a01b0383169081179091556040517f0adef86c673dfdb102affe9a454acea4a42a305e1feb982b4b2c97da980454a990600090a250565b6000806006670de0b6b3a7640000620007eb86600262001c83565b620007ff90670de0b6b3a764000062001cc0565b670de0b6b3a764000062000814888262001cc0565b62000820908962001c83565b6200082c919062001c9d565b62000838919062001c83565b62000844919062001c9d565b62000850919062001c9d565b905060006006670de0b6b3a76400006200086b868862001cc0565b6200087890600262001c83565b6200088c90670de0b6b3a764000062001cc0565b670de0b6b3a764000087620008a28a8362001cc0565b620008ae919062001cc0565b620008ba898b62001cc0565b620008c6919062001c83565b620008d2919062001c9d565b620008de919062001c83565b620008ea919062001c9d565b620008f6919062001c9d565b9050600062000906838362001cd6565b905062000584613e808262001c9d565b6200092062001373565b6200092c6000620013cf565b565b600054610100900460ff16158080156200094f5750600054600160ff909116105b806200096b5750303b1580156200096b575060005460ff166001145b620009d45760405162461bcd60e51b815260206004820152602e60248201527f496e697469616c697a61626c653a20636f6e747261637420697320616c72656160448201526d191e481a5b9a5d1a585b1a5e995960921b60648201526084015b60405180910390fd5b6000805460ff191660011790558015620009f8576000805461ff0019166101001790555b62000a0262001421565b62000a0c62001455565b609780546001600160a01b0319166001600160a01b038616908117909155609884905560998390556040517f72fe3f5fb15c2671900303001fbe3a8adf9df5c76bfd269a9508c8753b9c35c990600090a26040518381527f98d1698e9a7ee55a2ded97de72077c93add26ce8534679021d0e7c44edcb325b9060200160405180910390a16040518281527f46a6cbb523ecf70a9db3d87be664863e6dee089316374a82ebff2394d18986269060200160405180910390a1801562000502576000805461ff0019169055604051600181527f7f26b83ff96e1f2b6a682f133852f6798a09c465da95921460cefb38474024989060200160405180910390a150505050565b600062000b1d848462000b2f565b90506200050284848360008662000e2d565b6000808390506200077483826001600160a01b03166318160ddd6040518163ffffffff1660e01b8152600401602060405180830381865afa15801562000b79573d6000803e3d6000fd5b505050506040513d601f19601f8201168201806040525081019062000b9f919062001daa565b6200076d919062001cd6565b62000bb562001373565b609780546001600160a01b0319166001600160a01b0383169081179091556040517f72fe3f5fb15c2671900303001fbe3a8adf9df5c76bfd269a9508c8753b9c35c990600090a250565b62000c0962001373565b60988190556040518181527f98d1698e9a7ee55a2ded97de72077c93add26ce8534679021d0e7c44edcb325b90602001620006f3565b600080600062000c4f8462001489565b91509150600062000cbf868460405160200162000c76929190918252602082015260400190565b604051602081830303815290604052805190602001207f19457468657265756d205369676e6564204d6573736167653a0a3332000000006000908152601c91909152603c902090565b905080821462000d125760405162461bcd60e51b815260206004820152601a60248201527f50616c3a20496e76616c696420646174612070726f76696465640000000000006044820152606401620009cb565b600062000d2082876200154c565b609d549091506001600160a01b0380831691161462000d825760405162461bcd60e51b815260206004820152601d60248201527f50616c3a20496e76616c6964206f7261636c65207369676e61747572650000006044820152606401620009cb565b670de0b6b3a764000062000d97858962001c83565b62000da3919062001c9d565b979650505050505050565b62000db862001373565b6001600160a01b03811662000e1f5760405162461bcd60e51b815260206004820152602660248201527f4f776e61626c653a206e6577206f776e657220697320746865207a65726f206160448201526564647265737360d01b6064820152608401620009cb565b62000e2a81620013cf565b50565b62000e3762001574565b6001600160a01b0385166000908152609c602052604090205460ff1662000ea15760405162461bcd60e51b815260206004820152601a60248201527f50616c3a20496e76616c696420746f6b656e20616464726573730000000000006044820152606401620009cb565b84600062000eb0858462000c3f565b9050600081670de0b6b3a76400006099548862000ece919062001c83565b62000eda919062001c9d565b62000ee6919062001cc0565b9050600082670de0b6b3a76400006098548962000f04919062001c83565b62000f10919062001c9d565b62000f1c919062001cd6565b90508515620010e3578162000f32828962001cc0565b62000f3e919062001cc0565b34101562000f8f5760405162461bcd60e51b815260206004820152601960248201527f50616c3a20496e73756666696369656e74207061796d656e74000000000000006044820152606401620009cb565b6040516340c10f1960e01b8152336004820152602481018990526001600160a01b038516906340c10f1990604401600060405180830381600087803b15801562000fd857600080fd5b505af115801562000fed573d6000803e3d6000fd5b50506097546200100a92506001600160a01b0316905082620015cf565b6200108482856001600160a01b0316638da5cb5b6040518163ffffffff1660e01b8152600401602060405180830381865afa1580156200104e573d6000803e3d6000fd5b505050506040513d601f19601f8201168201806040525081019062001074919062001dc4565b6001600160a01b031690620015cf565b8162001091828962001cc0565b6200109d919062001cc0565b341115620010dd5760008282620010b58a3462001cd6565b620010c1919062001cd6565b620010cd919062001cd6565b9050620010db3382620015cf565b505b6200128b565b6040516370a0823160e01b815233600482015288906001600160a01b038616906370a0823190602401602060405180830381865afa1580156200112a573d6000803e3d6000fd5b505050506040513d601f19601f8201168201806040525081019062001150919062001daa565b1015620011a05760405162461bcd60e51b815260206004820152601860248201527f50616c3a20496e73756666696369656e7420746f6b656e7300000000000000006044820152606401620009cb565b604051632770a7eb60e21b8152336004820152602481018990526001600160a01b03851690639dc29fac90604401600060405180830381600087803b158015620011e957600080fd5b505af1158015620011fe573d6000803e3d6000fd5b50505050600082828962001213919062001cd6565b6200121f919062001cd6565b90506200122d3382620015cf565b60975462001245906001600160a01b031683620015cf565b6200128983866001600160a01b0316638da5cb5b6040518163ffffffff1660e01b8152600401602060405180830381865afa1580156200104e573d6000803e3d6000fd5b505b851515896001600160a01b0316336001600160a01b03167f952ff8d90add9fdeaeb478102d54441cf0cc0cbe53b1d99e51f747cdc8379e548b8b86888a8c6001600160a01b03166318160ddd6040518163ffffffff1660e01b8152600401602060405180830381865afa15801562001307573d6000803e3d6000fd5b505050506040513d601f19601f820116820180604052508101906200132d919062001daa565b604080519687526020870195909552938501929092526060840152608083015260a082015260c00160405180910390a4505050506200136c6001606555565b5050505050565b6033546001600160a01b031633146200092c5760405162461bcd60e51b815260206004820181905260248201527f4f776e61626c653a2063616c6c6572206973206e6f7420746865206f776e65726044820152606401620009cb565b603380546001600160a01b038381166001600160a01b0319831681179093556040519116919082907f8be0079c531659141344cd1fd0a4f28419497f9722a3daafe3b4186f6b6457e090600090a35050565b600054610100900460ff166200144b5760405162461bcd60e51b8152600401620009cb9062001de4565b6200092c620016fa565b600054610100900460ff166200147f5760405162461bcd60e51b8152600401620009cb9062001de4565b6200092c6200172f565b6000808251606014620014df5760405162461bcd60e51b815260206004820152601d60248201527f50616c3a20496e76616c6964207369676e6174757265206c656e6774680000006044820152606401620009cb565b50506020810151604082015181670de0b6b3a7640000811115620015465760405162461bcd60e51b815260206004820152601c60248201527f50616c3a2046656520726174696f206f7574206f6620626f756e6473000000006044820152606401620009cb565b50915091565b60008060006200155d858562001759565b915091506200156c81620017a2565b509392505050565b600260655403620015c85760405162461bcd60e51b815260206004820152601f60248201527f5265656e7472616e637947756172643a207265656e7472616e742063616c6c006044820152606401620009cb565b6002606555565b80471015620016215760405162461bcd60e51b815260206004820152601d60248201527f416464726573733a20696e73756666696369656e742062616c616e63650000006044820152606401620009cb565b6000826001600160a01b03168260405160006040518083038185875af1925050503d806000811462001670576040519150601f19603f3d011682016040523d82523d6000602084013e62001675565b606091505b5050905080620016ee5760405162461bcd60e51b815260206004820152603a60248201527f416464726573733a20756e61626c6520746f2073656e642076616c75652c207260448201527f6563697069656e74206d617920686176652072657665727465640000000000006064820152608401620009cb565b505050565b6001606555565b600054610100900460ff16620017245760405162461bcd60e51b8152600401620009cb9062001de4565b6200092c33620013cf565b600054610100900460ff16620016f35760405162461bcd60e51b8152600401620009cb9062001de4565b6000808251604103620017935760208301516040840151606085015160001a6200178687828585620018ff565b945094505050506200179b565b506000905060025b9250929050565b6000816004811115620017b957620017b962001e2f565b03620017c25750565b6001816004811115620017d957620017d962001e2f565b03620018285760405162461bcd60e51b815260206004820152601860248201527f45434453413a20696e76616c6964207369676e617475726500000000000000006044820152606401620009cb565b60028160048111156200183f576200183f62001e2f565b036200188e5760405162461bcd60e51b815260206004820152601f60248201527f45434453413a20696e76616c6964207369676e6174757265206c656e677468006044820152606401620009cb565b6003816004811115620018a557620018a562001e2f565b0362000e2a5760405162461bcd60e51b815260206004820152602260248201527f45434453413a20696e76616c6964207369676e6174757265202773272076616c604482015261756560f01b6064820152608401620009cb565b6000807f7fffffffffffffffffffffffffffffff5d576e7357a4501ddfe92f46681b20a0831115620019385750600090506003620019bf565b6040805160008082526020820180845289905260ff881692820192909252606081018690526080810185905260019060a0016020604051602081039080840390855afa1580156200198d573d6000803e3d6000fd5b5050604051601f1901519150506001600160a01b038116620019b857600060019250925050620019bf565b9150600090505b94509492505050565b611fde8062001e4683390190565b6001600160a01b038116811462000e2a57600080fd5b634e487b7160e01b600052604160045260246000fd5b600082601f83011262001a1457600080fd5b813567ffffffffffffffff8082111562001a325762001a32620019ec565b604051601f8301601f19908116603f0116810190828211818310171562001a5d5762001a5d620019ec565b8160405283815286602085880101111562001a7757600080fd5b836020870160208301376000602085830101528094505050505092915050565b60008060006060848603121562001aad57600080fd5b833562001aba81620019d6565b925060208401359150604084013567ffffffffffffffff81111562001ade57600080fd5b62001aec8682870162001a02565b9150509250925092565b6000806040838503121562001b0a57600080fd5b823562001b1781620019d6565b946020939093013593505050565b6000806040838503121562001b3957600080fd5b823567ffffffffffffffff8082111562001b5257600080fd5b62001b608683870162001a02565b9350602085013591508082111562001b7757600080fd5b5062001b868582860162001a02565b9150509250929050565b60006020828403121562001ba357600080fd5b5035919050565b60006020828403121562001bbd57600080fd5b813562001bca81620019d6565b9392505050565b6000806040838503121562001be557600080fd5b50508035926020909101359150565b60008060006060848603121562001c0a57600080fd5b833562001c1781620019d6565b95602085013595506040909401359392505050565b6000806040838503121562001c4057600080fd5b82359150602083013567ffffffffffffffff81111562001c5f57600080fd5b62001b868582860162001a02565b634e487b7160e01b600052601160045260246000fd5b80820281158282048414176200058a576200058a62001c6d565b60008262001cbb57634e487b7160e01b600052601260045260246000fd5b500490565b808201808211156200058a576200058a62001c6d565b818103818111156200058a576200058a62001c6d565b6000815180845260005b8181101562001d145760208185018101518683018201520162001cf6565b506000602082860101526020601f19601f83011685010191505092915050565b6001600160a01b038416815260606020820181905260009062001d5a9083018562001cec565b828103604084015262001d6e818562001cec565b9695505050505050565b60408152600062001d8d604083018562001cec565b828103602084015262001da1818562001cec565b95945050505050565b60006020828403121562001dbd57600080fd5b5051919050565b60006020828403121562001dd757600080fd5b815162001bca81620019d6565b6020808252602b908201527f496e697469616c697a61626c653a20636f6e7472616374206973206e6f74206960408201526a6e697469616c697a696e6760a81b606082015260800190565b634e487b7160e01b600052602160045260246000fdfe6101806040523480156200001257600080fd5b5060405162001fde38038062001fde8339810160408190526200003591620003e8565b6040518060400160405280600e81526020016d2830b6102ab9b2b9102a37b5b2b760911b81525080604051806040016040528060018152602001603160f81b81525060405180602001604052806000815250604051806020016040528060008152508160039081620000a8919062000501565b506004620000b7828262000501565b50620000c99150839050600562000226565b61012052620000da81600662000226565b61014052815160208084019190912060e052815190820120610100524660a0526200016860e05161010051604080517f8b73c3c69bb8fe3d512ecc4cf759cc79239f7b179b0ffacaa9a75d522b39400f60208201529081019290925260608201524660808201523060a082015260009060c00160405160208183030381529060405280519060200120905090565b60805250503060c052506200017d336200025f565b3361016052600b62000190838262000501565b50600c6200019f828262000501565b50620001ab836200025f565b7f4df9dcd34ae35f40f2c756fd8ac83210ed0b76d065543ee73d868aec7c7fcf0282604051620001dc9190620005cd565b60405180910390a17fadf3ae8bd543b3007d464f15cb8ea1db3f44e84d41d203164f40b95e27558ac681604051620002159190620005cd565b60405180910390a150505062000627565b600060208351101562000246576200023e836200027d565b905062000259565b8162000253848262000501565b5060ff90505b92915050565b600a80546001600160a01b03191690556200027a81620002c9565b50565b600080829050601f81511115620002b4578260405163305a27a960e01b8152600401620002ab9190620005cd565b60405180910390fd5b8051620002c18262000602565b179392505050565b600980546001600160a01b038381166001600160a01b0319831681179093556040519116919082907f8be0079c531659141344cd1fd0a4f28419497f9722a3daafe3b4186f6b6457e090600090a35050565b634e487b7160e01b600052604160045260246000fd5b60005b838110156200034e57818101518382015260200162000334565b50506000910152565b600082601f8301126200036957600080fd5b81516001600160401b03808211156200038657620003866200031b565b604051601f8301601f19908116603f01168101908282118183101715620003b157620003b16200031b565b81604052838152866020858801011115620003cb57600080fd5b620003de84602083016020890162000331565b9695505050505050565b600080600060608486031215620003fe57600080fd5b83516001600160a01b03811681146200041657600080fd5b60208501519093506001600160401b03808211156200043457600080fd5b620004428783880162000357565b935060408601519150808211156200045957600080fd5b50620004688682870162000357565b9150509250925092565b600181811c908216806200048757607f821691505b602082108103620004a857634e487b7160e01b600052602260045260246000fd5b50919050565b601f821115620004fc57600081815260208120601f850160051c81016020861015620004d75750805b601f850160051c820191505b81811015620004f857828155600101620004e3565b5050505b505050565b81516001600160401b038111156200051d576200051d6200031b565b62000535816200052e845462000472565b84620004ae565b602080601f8311600181146200056d5760008415620005545750858301515b600019600386901b1c1916600185901b178555620004f8565b600085815260208120601f198616915b828110156200059e578886015182559484019460019091019084016200057d565b5085821015620005bd5787850151600019600388901b60f8161c191681555b5050505050600190811b01905550565b6020815260008251806020840152620005ee81604085016020870162000331565b601f01601f19169190910160400192915050565b80516020808301519190811015620004a85760001960209190910360031b1b16919050565b60805160a05160c05160e051610100516101205161014051610160516119436200069b6000396000818161033b0152818161048d0152610630015260006105c60152600061059b01526000610db001526000610d8801526000610ce301526000610d0d01526000610d3701526119436000f3fe608060405234801561001057600080fd5b50600436106101735760003560e01c806384b0196e116100de578063b84c824611610097578063dd62ed3e11610071578063dd62ed3e14610323578063e2daf86014610336578063e30c39781461035d578063f2fde38b1461036e57600080fd5b8063b84c8246146102ea578063c47f0027146102fd578063d505accf1461031057600080fd5b806384b0196e146102695780638da5cb5b1461028457806395d89b41146102a95780639dc29fac146102b1578063a457c2d7146102c4578063a9059cbb146102d757600080fd5b8063395093511161013057806339509351146101f557806340c10f191461020857806370a082311461021d578063715018a61461024657806379ba50971461024e5780637ecebe001461025657600080fd5b806306fdde0314610178578063095ea7b31461019657806318160ddd146101b957806323b872dd146101cb578063313ce567146101de5780633644e515146101ed575b600080fd5b610180610381565b60405161018d9190611497565b60405180910390f35b6101a96101a43660046114cd565b610413565b604051901515815260200161018d565b6002545b60405190815260200161018d565b6101a96101d93660046114f7565b61042d565b6040516012815260200161018d565b6101bd610451565b6101a96102033660046114cd565b610460565b61021b6102163660046114cd565b610482565b005b6101bd61022b366004611533565b6001600160a01b031660009081526020819052604090205490565b61021b6104e1565b61021b6104f5565b6101bd610264366004611533565b61056f565b61027161058d565b60405161018d979695949392919061154e565b6009546001600160a01b03165b6040516001600160a01b03909116815260200161018d565b610180610616565b61021b6102bf3660046114cd565b610625565b6101a96102d23660046114cd565b610677565b6101a96102e53660046114cd565b6106f2565b61021b6102f83660046115fa565b610700565b61021b61030b3660046115fa565b61074f565b61021b61031e3660046116ab565b610793565b6101bd61033136600461171e565b6108f7565b6102917f000000000000000000000000000000000000000000000000000000000000000081565b600a546001600160a01b0316610291565b61021b61037c366004611533565b610922565b6060600b805461039090611751565b80601f01602080910402602001604051908101604052809291908181526020018280546103bc90611751565b80156104095780601f106103de57610100808354040283529160200191610409565b820191906000526020600020905b8154815290600101906020018083116103ec57829003601f168201915b5050505050905090565b600033610421818585610993565b60019150505b92915050565b60003361043b858285610ab8565b610446858585610b32565b506001949350505050565b600061045b610cd6565b905090565b60003361042181858561047383836108f7565b61047d9190611785565b610993565b336001600160a01b037f000000000000000000000000000000000000000000000000000000000000000016146104d35760405162461bcd60e51b81526004016104ca906117a6565b60405180910390fd5b6104dd8282610e01565b5050565b6104e9610ec0565b6104f36000610f1a565b565b600a5433906001600160a01b031681146105635760405162461bcd60e51b815260206004820152602960248201527f4f776e61626c6532537465703a2063616c6c6572206973206e6f7420746865206044820152683732bb9037bbb732b960b91b60648201526084016104ca565b61056c81610f1a565b50565b6001600160a01b038116600090815260076020526040812054610427565b6000606080828080836105c17f00000000000000000000000000000000000000000000000000000000000000006005610f33565b6105ec7f00000000000000000000000000000000000000000000000000000000000000006006610f33565b60408051600080825260208201909252600f60f81b9b939a50919850469750309650945092509050565b6060600c805461039090611751565b336001600160a01b037f0000000000000000000000000000000000000000000000000000000000000000161461066d5760405162461bcd60e51b81526004016104ca906117a6565b6104dd8282610fde565b6000338161068582866108f7565b9050838110156106e55760405162461bcd60e51b815260206004820152602560248201527f45524332303a2064656372656173656420616c6c6f77616e63652062656c6f77604482015264207a65726f60d81b60648201526084016104ca565b6104468286868403610993565b600033610421818585610b32565b610708610ec0565b600c6107148282611837565b507fadf3ae8bd543b3007d464f15cb8ea1db3f44e84d41d203164f40b95e27558ac6816040516107449190611497565b60405180910390a150565b610757610ec0565b600b6107638282611837565b507f4df9dcd34ae35f40f2c756fd8ac83210ed0b76d065543ee73d868aec7c7fcf02816040516107449190611497565b834211156107e35760405162461bcd60e51b815260206004820152601d60248201527f45524332305065726d69743a206578706972656420646561646c696e6500000060448201526064016104ca565b60007f6e71edae12b1b97f4d1f60370fef10105fa2faae0126114a169c64845d6126c98888886108128c61110d565b6040805160208101969096526001600160a01b0394851690860152929091166060840152608083015260a082015260c0810186905260e001604051602081830303815290604052805190602001209050600061086d82611135565b9050600061087d82878787611162565b9050896001600160a01b0316816001600160a01b0316146108e05760405162461bcd60e51b815260206004820152601e60248201527f45524332305065726d69743a20696e76616c6964207369676e6174757265000060448201526064016104ca565b6108eb8a8a8a610993565b50505050505050505050565b6001600160a01b03918216600090815260016020908152604080832093909416825291909152205490565b61092a610ec0565b600a80546001600160a01b0383166001600160a01b0319909116811790915561095b6009546001600160a01b031690565b6001600160a01b03167f38d16b8cac22d99fc7c124b9cd0de2d3fa1faef420bfe791d8c362d765e2270060405160405180910390a350565b6001600160a01b0383166109f55760405162461bcd60e51b8152602060048201526024808201527f45524332303a20617070726f76652066726f6d20746865207a65726f206164646044820152637265737360e01b60648201526084016104ca565b6001600160a01b038216610a565760405162461bcd60e51b815260206004820152602260248201527f45524332303a20617070726f766520746f20746865207a65726f206164647265604482015261737360f01b60648201526084016104ca565b6001600160a01b0383811660008181526001602090815260408083209487168084529482529182902085905590518481527f8c5be1e5ebec7d5bd14f71427d1e84f3dd0314c0f7b2291e5b200ac8c7c3b92591015b60405180910390a3505050565b6000610ac484846108f7565b90506000198114610b2c5781811015610b1f5760405162461bcd60e51b815260206004820152601d60248201527f45524332303a20696e73756666696369656e7420616c6c6f77616e636500000060448201526064016104ca565b610b2c8484848403610993565b50505050565b6001600160a01b038316610b965760405162461bcd60e51b815260206004820152602560248201527f45524332303a207472616e736665722066726f6d20746865207a65726f206164604482015264647265737360d81b60648201526084016104ca565b6001600160a01b038216610bf85760405162461bcd60e51b815260206004820152602360248201527f45524332303a207472616e7366657220746f20746865207a65726f206164647260448201526265737360e81b60648201526084016104ca565b6001600160a01b03831660009081526020819052604090205481811015610c705760405162461bcd60e51b815260206004820152602660248201527f45524332303a207472616e7366657220616d6f756e7420657863656564732062604482015265616c616e636560d01b60648201526084016104ca565b6001600160a01b03848116600081815260208181526040808320878703905593871680835291849020805487019055925185815290927fddf252ad1be2c89b69c2b068fc378daa952ba7f163c4a11628f55a4df523b3ef910160405180910390a3610b2c565b6000306001600160a01b037f000000000000000000000000000000000000000000000000000000000000000016148015610d2f57507f000000000000000000000000000000000000000000000000000000000000000046145b15610d5957507f000000000000000000000000000000000000000000000000000000000000000090565b61045b604080517f8b73c3c69bb8fe3d512ecc4cf759cc79239f7b179b0ffacaa9a75d522b39400f60208201527f0000000000000000000000000000000000000000000000000000000000000000918101919091527f000000000000000000000000000000000000000000000000000000000000000060608201524660808201523060a082015260009060c00160405160208183030381529060405280519060200120905090565b6001600160a01b038216610e575760405162461bcd60e51b815260206004820152601f60248201527f45524332303a206d696e7420746f20746865207a65726f20616464726573730060448201526064016104ca565b8060026000828254610e699190611785565b90915550506001600160a01b038216600081815260208181526040808320805486019055518481527fddf252ad1be2c89b69c2b068fc378daa952ba7f163c4a11628f55a4df523b3ef910160405180910390a35050565b6009546001600160a01b031633146104f35760405162461bcd60e51b815260206004820181905260248201527f4f776e61626c653a2063616c6c6572206973206e6f7420746865206f776e657260448201526064016104ca565b600a80546001600160a01b031916905561056c8161118a565b606060ff8314610f4d57610f46836111dc565b9050610427565b818054610f5990611751565b80601f0160208091040260200160405190810160405280929190818152602001828054610f8590611751565b8015610fd25780601f10610fa757610100808354040283529160200191610fd2565b820191906000526020600020905b815481529060010190602001808311610fb557829003601f168201915b50505050509050610427565b6001600160a01b03821661103e5760405162461bcd60e51b815260206004820152602160248201527f45524332303a206275726e2066726f6d20746865207a65726f206164647265736044820152607360f81b60648201526084016104ca565b6001600160a01b038216600090815260208190526040902054818110156110b25760405162461bcd60e51b815260206004820152602260248201527f45524332303a206275726e20616d6f756e7420657863656564732062616c616e604482015261636560f01b60648201526084016104ca565b6001600160a01b0383166000818152602081815260408083208686039055600280548790039055518581529192917fddf252ad1be2c89b69c2b068fc378daa952ba7f163c4a11628f55a4df523b3ef9101610aab565b505050565b6001600160a01b03811660009081526007602052604090208054600181018255905b50919050565b6000610427611142610cd6565b8360405161190160f01b8152600281019290925260228201526042902090565b60008060006111738787878761121b565b91509150611180816112df565b5095945050505050565b600980546001600160a01b038381166001600160a01b0319831681179093556040519116919082907f8be0079c531659141344cd1fd0a4f28419497f9722a3daafe3b4186f6b6457e090600090a35050565b606060006111e983611429565b604080516020808252818301909252919250600091906020820181803683375050509182525060208101929092525090565b6000807f7fffffffffffffffffffffffffffffff5d576e7357a4501ddfe92f46681b20a083111561125257506000905060036112d6565b6040805160008082526020820180845289905260ff881692820192909252606081018690526080810185905260019060a0016020604051602081039080840390855afa1580156112a6573d6000803e3d6000fd5b5050604051601f1901519150506001600160a01b0381166112cf576000600192509250506112d6565b9150600090505b94509492505050565b60008160048111156112f3576112f36118f7565b036112fb5750565b600181600481111561130f5761130f6118f7565b0361135c5760405162461bcd60e51b815260206004820152601860248201527f45434453413a20696e76616c6964207369676e6174757265000000000000000060448201526064016104ca565b6002816004811115611370576113706118f7565b036113bd5760405162461bcd60e51b815260206004820152601f60248201527f45434453413a20696e76616c6964207369676e6174757265206c656e6774680060448201526064016104ca565b60038160048111156113d1576113d16118f7565b0361056c5760405162461bcd60e51b815260206004820152602260248201527f45434453413a20696e76616c6964207369676e6174757265202773272076616c604482015261756560f01b60648201526084016104ca565b600060ff8216601f81111561042757604051632cd44ac360e21b815260040160405180910390fd5b6000815180845260005b818110156114775760208185018101518683018201520161145b565b506000602082860101526020601f19601f83011685010191505092915050565b6020815260006114aa6020830184611451565b9392505050565b80356001600160a01b03811681146114c857600080fd5b919050565b600080604083850312156114e057600080fd5b6114e9836114b1565b946020939093013593505050565b60008060006060848603121561150c57600080fd5b611515846114b1565b9250611523602085016114b1565b9150604084013590509250925092565b60006020828403121561154557600080fd5b6114aa826114b1565b60ff60f81b881681526000602060e08184015261156e60e084018a611451565b8381036040850152611580818a611451565b606085018990526001600160a01b038816608086015260a0850187905284810360c0860152855180825283870192509083019060005b818110156115d2578351835292840192918401916001016115b6565b50909c9b505050505050505050505050565b634e487b7160e01b600052604160045260246000fd5b60006020828403121561160c57600080fd5b813567ffffffffffffffff8082111561162457600080fd5b818401915084601f83011261163857600080fd5b81358181111561164a5761164a6115e4565b604051601f8201601f19908116603f01168101908382118183101715611672576116726115e4565b8160405282815287602084870101111561168b57600080fd5b826020860160208301376000928101602001929092525095945050505050565b600080600080600080600060e0888a0312156116c657600080fd5b6116cf886114b1565b96506116dd602089016114b1565b95506040880135945060608801359350608088013560ff8116811461170157600080fd5b9699959850939692959460a0840135945060c09093013592915050565b6000806040838503121561173157600080fd5b61173a836114b1565b9150611748602084016114b1565b90509250929050565b600181811c9082168061176557607f821691505b60208210810361112f57634e487b7160e01b600052602260045260246000fd5b8082018082111561042757634e487b7160e01b600052601160045260246000fd5b60208082526023908201527f50616c55736572546f6b656e3a2063616c6c6572206973206e6f7420746865206040820152621c185b60ea1b606082015260800190565b601f82111561110857600081815260208120601f850160051c810160208610156118105750805b601f850160051c820191505b8181101561182f5782815560010161181c565b505050505050565b815167ffffffffffffffff811115611851576118516115e4565b6118658161185f8454611751565b846117e9565b602080601f83116001811461189a57600084156118825750858301515b600019600386901b1c1916600185901b17855561182f565b600085815260208120601f198616915b828110156118c9578886015182559484019460019091019084016118aa565b50858210156118e75787850151600019600388901b60f8161c191681555b5050505050600190811b01905550565b634e487b7160e01b600052602160045260246000fdfea264697066735822122027a5aa61d52af7556287bc771aaaba2d7093585582e57af3665abab2de983beb64736f6c63430008140033a26469706673582212207ab3de1bf877ae2a957b327f1794a0dcc6661d3b3b3288df94bff1477327e66f64736f6c63430008140033",
  "linkReferences": {},
  "deployedLinkReferences": {}
}