{
  "_format": "hh-sol-artifact-1",
  "contractName": "Pal",
  "sourceName": "contracts/Pal.sol",
  "abi": [
    {
      "anonymous": false,
      "inputs": [
        {
          "indexed": false,
          "internalType": "uint8",
          "name": "version",
          "type": "uint8"
        }
      ],
      "name": "Initialized",
      "type": "event"
    },
    {
      "anonymous": false,
      "inputs": [
        {
          "indexed": true,
          "internalType": "address",
          "name": "previousOwner",
          "type": "address"
        },
        {
          "indexed": true,
          "internalType": "address",
          "name": "newOwner",
          "type": "address"
        }
      ],
      "name": "OwnershipTransferred",
      "type": "event"
    },
    {
      "anonymous": false,
      "inputs": [
        {
          "indexed": true,
          "internalType": "address",
          "name": "owner",
          "type": "address"
        },
        {
          "indexed": false,
          "internalType": "address",
          "name": "tokenAddress",
          "type": "address"
        },
        {
          "indexed": false,
          "internalType": "string",
          "name": "name",
          "type": "string"
        },
        {
          "indexed": false,
          "internalType": "string",
          "name": "symbol",
          "type": "string"
        }
      ],
      "name": "TokenCreated",
      "type": "event"
    },
    {
      "anonymous": false,
      "inputs": [
        {
          "indexed": true,
          "internalType": "address",
          "name": "trader",
          "type": "address"
        },
        {
          "indexed": true,
          "internalType": "address",
          "name": "tokenAddress",
          "type": "address"
        },
        {
          "indexed": true,
          "internalType": "bool",
          "name": "isBuy",
          "type": "bool"
        },
        {
          "indexed": false,
          "internalType": "uint256",
          "name": "amount",
          "type": "uint256"
        },
        {
          "indexed": false,
          "internalType": "uint256",
          "name": "price",
          "type": "uint256"
        },
        {
          "indexed": false,
          "internalType": "uint256",
          "name": "protocolFee",
          "type": "uint256"
        },
        {
          "indexed": false,
          "internalType": "uint256",
          "name": "tokenOwnerFee",
          "type": "uint256"
        },
        {
          "indexed": false,
          "internalType": "uint256",
          "name": "supply",
          "type": "uint256"
        }
      ],
      "name": "Trade",
      "type": "event"
    },
    {
      "inputs": [
        {
          "internalType": "address",
          "name": "tokenAddress",
          "type": "address"
        },
        {
          "internalType": "uint256",
          "name": "amount",
          "type": "uint256"
        }
      ],
      "name": "buyToken",
      "outputs": [],
      "stateMutability": "payable",
      "type": "function"
    },
    {
      "inputs": [
        {
          "internalType": "string",
          "name": "name",
          "type": "string"
        },
        {
          "internalType": "string",
          "name": "symbol",
          "type": "string"
        }
      ],
      "name": "createToken",
      "outputs": [
        {
          "internalType": "address",
          "name": "",
          "type": "address"
        }
      ],
      "stateMutability": "nonpayable",
      "type": "function"
    },
    {
      "inputs": [
        {
          "internalType": "address",
          "name": "tokenAddress",
          "type": "address"
        },
        {
          "internalType": "uint256",
          "name": "amount",
          "type": "uint256"
        }
      ],
      "name": "getBuyPrice",
      "outputs": [
        {
          "internalType": "uint256",
          "name": "",
          "type": "uint256"
        }
      ],
      "stateMutability": "view",
      "type": "function"
    },
    {
      "inputs": [
        {
          "internalType": "address",
          "name": "tokenAddress",
          "type": "address"
        },
        {
          "internalType": "uint256",
          "name": "amount",
          "type": "uint256"
        }
      ],
      "name": "getBuyPriceAfterFee",
      "outputs": [
        {
          "internalType": "uint256",
          "name": "",
          "type": "uint256"
        }
      ],
      "stateMutability": "view",
      "type": "function"
    },
    {
      "inputs": [
        {
          "internalType": "uint256",
          "name": "supply",
          "type": "uint256"
        },
        {
          "internalType": "uint256",
          "name": "amount",
          "type": "uint256"
        }
      ],
      "name": "getPrice",
      "outputs": [
        {
          "internalType": "uint256",
          "name": "",
          "type": "uint256"
        }
      ],
      "stateMutability": "pure",
      "type": "function"
    },
    {
      "inputs": [
        {
          "internalType": "address",
          "name": "tokenAddress",
          "type": "address"
        },
        {
          "internalType": "uint256",
          "name": "amount",
          "type": "uint256"
        }
      ],
      "name": "getSellPrice",
      "outputs": [
        {
          "internalType": "uint256",
          "name": "",
          "type": "uint256"
        }
      ],
      "stateMutability": "view",
      "type": "function"
    },
    {
      "inputs": [
        {
          "internalType": "address",
          "name": "tokenAddress",
          "type": "address"
        },
        {
          "internalType": "uint256",
          "name": "amount",
          "type": "uint256"
        }
      ],
      "name": "getSellPriceAfterFee",
      "outputs": [
        {
          "internalType": "uint256",
          "name": "",
          "type": "uint256"
        }
      ],
      "stateMutability": "view",
      "type": "function"
    },
    {
      "inputs": [
        {
          "internalType": "address payable",
          "name": "_protocolFeeDestination",
          "type": "address"
        },
        {
          "internalType": "uint256",
          "name": "_protocolFeePercent",
          "type": "uint256"
        },
        {
          "internalType": "uint256",
          "name": "_tokenOwnerFeePercent",
          "type": "uint256"
        }
      ],
      "name": "initialize",
      "outputs": [],
      "stateMutability": "nonpayable",
      "type": "function"
    },
    {
      "inputs": [
        {
          "internalType": "address",
          "name": "",
          "type": "address"
        }
      ],
      "name": "isPalToken",
      "outputs": [
        {
          "internalType": "bool",
          "name": "",
          "type": "bool"
        }
      ],
      "stateMutability": "view",
      "type": "function"
    },
    {
      "inputs": [],
      "name": "owner",
      "outputs": [
        {
          "internalType": "address",
          "name": "",
          "type": "address"
        }
      ],
      "stateMutability": "view",
      "type": "function"
    },
    {
      "inputs": [],
      "name": "protocolFeeDestination",
      "outputs": [
        {
          "internalType": "address payable",
          "name": "",
          "type": "address"
        }
      ],
      "stateMutability": "view",
      "type": "function"
    },
    {
      "inputs": [],
      "name": "protocolFeePercent",
      "outputs": [
        {
          "internalType": "uint256",
          "name": "",
          "type": "uint256"
        }
      ],
      "stateMutability": "view",
      "type": "function"
    },
    {
      "inputs": [],
      "name": "renounceOwnership",
      "outputs": [],
      "stateMutability": "nonpayable",
      "type": "function"
    },
    {
      "inputs": [
        {
          "internalType": "address",
          "name": "tokenAddress",
          "type": "address"
        },
        {
          "internalType": "uint256",
          "name": "amount",
          "type": "uint256"
        }
      ],
      "name": "sellToken",
      "outputs": [],
      "stateMutability": "nonpayable",
      "type": "function"
    },
    {
      "inputs": [
        {
          "internalType": "address payable",
          "name": "_feeDestination",
          "type": "address"
        }
      ],
      "name": "setProtocolFeeDestination",
      "outputs": [],
      "stateMutability": "nonpayable",
      "type": "function"
    },
    {
      "inputs": [
        {
          "internalType": "uint256",
          "name": "_feePercent",
          "type": "uint256"
        }
      ],
      "name": "setProtocolFeePercent",
      "outputs": [],
      "stateMutability": "nonpayable",
      "type": "function"
    },
    {
      "inputs": [
        {
          "internalType": "uint256",
          "name": "_feePercent",
          "type": "uint256"
        }
      ],
      "name": "setTokenOwnerFeePercent",
      "outputs": [],
      "stateMutability": "nonpayable",
      "type": "function"
    },
    {
      "inputs": [],
      "name": "tokenOwnerFeePercent",
      "outputs": [
        {
          "internalType": "uint256",
          "name": "",
          "type": "uint256"
        }
      ],
      "stateMutability": "view",
      "type": "function"
    },
    {
      "inputs": [
        {
          "internalType": "address",
          "name": "newOwner",
          "type": "address"
        }
      ],
      "name": "transferOwnership",
      "outputs": [],
      "stateMutability": "nonpayable",
      "type": "function"
    },
    {
      "stateMutability": "payable",
      "type": "receive"
    }
  ],
  "bytecode": "0x608060405234801561001057600080fd5b50612be0806100206000396000f3fe6080604052600436106200012f5760003560e01c8063715018a611620000ad578063a4983421116200006c578063a4983421146200039a578063d6e6eb9f14620003bf578063eb769eed14620003d7578063f2fde38b146200041c578063f464e7db146200044157600080fd5b8063715018a614620002f35780637a1ac61e146200030b5780638da5cb5b14620003305780639ae717811462000350578063a10786b0146200037557600080fd5b80633d0457ea11620000fa5780633d0457ea14620002495780634635256e14620002705780634ce7957c14620002955780635cf4ee9114620002b757806368f8fc1014620002dc57600080fd5b80630f026f6d14620001965780631b68e3e514620001ce5780632267a89c14620001e65780632f2f2d56146200020b57600080fd5b36620001915760405162461bcd60e51b815260206004820152602660248201527f446972656374206574686572207472616e736665727320617265206e6f7420616044820152651b1b1bddd95960d21b60648201526084015b60405180910390fd5b600080fd5b348015620001a357600080fd5b50620001bb620001b536600462001382565b62000466565b6040519081526020015b60405180910390f35b348015620001db57600080fd5b50620001bb60995481565b348015620001f357600080fd5b50620001bb6200020536600462001382565b620004ee565b3480156200021857600080fd5b50620002306200022a3660046200145c565b6200056a565b6040516001600160a01b039091168152602001620001c5565b3480156200025657600080fd5b506200026e62000268366004620014c7565b6200067d565b005b3480156200027d57600080fd5b50620001bb6200028f36600462001382565b6200068c565b348015620002a257600080fd5b5060975462000230906001600160a01b031681565b348015620002c457600080fd5b50620001bb620002d6366004620014e1565b6200070a565b6200026e620002ed36600462001382565b620008a6565b3480156200030057600080fd5b506200026e620008ca565b3480156200031857600080fd5b506200026e6200032a36600462001504565b620008e2565b3480156200033d57600080fd5b506033546001600160a01b031662000230565b3480156200035d57600080fd5b50620001bb6200036f36600462001382565b62000a2e565b3480156200038257600080fd5b506200026e620003943660046200153c565b62000aaa565b348015620003a757600080fd5b506200026e620003b9366004620014c7565b62000ad6565b348015620003cc57600080fd5b50620001bb60985481565b348015620003e457600080fd5b506200040b620003f63660046200153c565b609a6020526000908152604090205460ff1681565b6040519015158152602001620001c5565b3480156200042957600080fd5b506200026e6200043b3660046200153c565b62000ae5565b3480156200044e57600080fd5b506200026e6200046036600462001382565b62000b64565b6000806200047584846200068c565b90506000670de0b6b3a76400006098548362000492919062001579565b6200049e919062001593565b90506000670de0b6b3a764000060995484620004bb919062001579565b620004c7919062001593565b905080620004d68385620015b6565b620004e29190620015b6565b93505050505b92915050565b600080620004fd848462000a2e565b90506000670de0b6b3a7640000609854836200051a919062001579565b62000526919062001593565b90506000670de0b6b3a76400006099548462000543919062001579565b6200054f919062001593565b9050806200055e8385620015cc565b620004e29190620015cc565b6000803384846040516200057e906200135e565b6200058c939291906200162a565b604051809103906000f080158015620005a9573d6000803e3d6000fd5b506001600160a01b0381166000818152609a602052604090819020805460ff19166001179055516340c10f1960e01b8152336004820152670de0b6b3a76400006024820152919250906340c10f1990604401600060405180830381600087803b1580156200061657600080fd5b505af11580156200062b573d6000803e3d6000fd5b50505050336001600160a01b03167fd5d05a8421149c74fd223cfc823befb883babf9bf0b0e4d6bf9c8fdb70e59bb48286866040516200066e939291906200162a565b60405180910390a29392505050565b6200068762000b83565b609955565b60008083905062000702816001600160a01b03166318160ddd6040518163ffffffff1660e01b8152600401602060405180830381865afa158015620006d5573d6000803e3d6000fd5b505050506040513d601f19601f82011682018060405250810190620006fb91906200166e565b846200070a565b949350505050565b6000808315620007a4576006670de0b6b3a76400006200072b8187620015cc565b6200073890600262001579565b6200074c90670de0b6b3a7640000620015b6565b670de0b6b3a764000087620007628282620015cc565b6200076e919062001579565b6200077a919062001593565b62000786919062001579565b62000792919062001593565b6200079e919062001593565b620007a7565b60005b9050600084158015620007c1575083670de0b6b3a7640000145b62000883576006670de0b6b3a764000085620007de8289620015cc565b620007ea9190620015b6565b620007f790600262001579565b6200080b90670de0b6b3a7640000620015b6565b670de0b6b3a764000062000820888a620015b6565b8862000835670de0b6b3a76400008c620015cc565b620008419190620015b6565b6200084d919062001579565b62000859919062001593565b62000865919062001579565b62000871919062001593565b6200087d919062001593565b62000886565b60005b90506000620008968383620015cc565b9050620004e2613e808262001593565b6000620008b483836200068c565b9050620008c5838383600162000bdf565b505050565b620008d462000b83565b620008e06000620011e3565b565b600054610100900460ff1615808015620009035750600054600160ff909116105b806200091f5750303b1580156200091f575060005460ff166001145b620009845760405162461bcd60e51b815260206004820152602e60248201527f496e697469616c697a61626c653a20636f6e747261637420697320616c72656160448201526d191e481a5b9a5d1a585b1a5e995960921b606482015260840162000188565b6000805460ff191660011790558015620009a8576000805461ff0019166101001790555b620009b262001235565b620009bc62001269565b609780546001600160a01b0319166001600160a01b03861617905560988390556099829055801562000a28576000805461ff0019169055604051600181527f7f26b83ff96e1f2b6a682f133852f6798a09c465da95921460cefb38474024989060200160405180910390a15b50505050565b6000808390506200070283826001600160a01b03166318160ddd6040518163ffffffff1660e01b8152600401602060405180830381865afa15801562000a78573d6000803e3d6000fd5b505050506040513d601f19601f8201168201806040525081019062000a9e91906200166e565b620006fb9190620015cc565b62000ab462000b83565b609780546001600160a01b0319166001600160a01b0392909216919091179055565b62000ae062000b83565b609855565b62000aef62000b83565b6001600160a01b03811662000b565760405162461bcd60e51b815260206004820152602660248201527f4f776e61626c653a206e6577206f776e657220697320746865207a65726f206160448201526564647265737360d01b606482015260840162000188565b62000b6181620011e3565b50565b600062000b72838362000a2e565b9050620008c5838383600062000bdf565b6033546001600160a01b03163314620008e05760405162461bcd60e51b815260206004820181905260248201527f4f776e61626c653a2063616c6c6572206973206e6f7420746865206f776e6572604482015260640162000188565b62000be96200129d565b6001600160a01b0384166000908152609a602052604090205460ff1662000c4b5760405162461bcd60e51b8152602060048201526015602482015274496e76616c696420746f6b656e206164647265737360581b604482015260640162000188565b6098548490600090670de0b6b3a76400009062000c69908662001579565b62000c75919062001593565b90506000670de0b6b3a76400006099548662000c92919062001579565b62000c9e919062001593565b9050831562000ec8578062000cb48387620015b6565b62000cc09190620015b6565b34101562000d085760405162461bcd60e51b8152602060048201526014602482015273125b9cdd59999a58da595b9d081c185e5b595b9d60621b604482015260640162000188565b6040516340c10f1960e01b8152336004820152602481018790526001600160a01b038416906340c10f1990604401600060405180830381600087803b15801562000d5157600080fd5b505af115801562000d66573d6000803e3d6000fd5b50506097546040516001600160a01b03909116925084156108fc02915084906000818181858888f1935050505015801562000da5573d6000803e3d6000fd5b50826001600160a01b0316638da5cb5b6040518163ffffffff1660e01b8152600401602060405180830381865afa15801562000de5573d6000803e3d6000fd5b505050506040513d601f19601f8201168201806040525081019062000e0b919062001688565b6001600160a01b03166108fc829081150290604051600060405180830381858888f1935050505015801562000e44573d6000803e3d6000fd5b508062000e528387620015b6565b62000e5e9190620015b6565b34111562000ec2576000818362000e768834620015cc565b62000e829190620015cc565b62000e8e9190620015cc565b604051909150339082156108fc029083906000818181858888f1935050505015801562000ebf573d6000803e3d6000fd5b50505b62001109565b6040516370a0823160e01b815233600482015286906001600160a01b038516906370a0823190602401602060405180830381865afa15801562000f0f573d6000803e3d6000fd5b505050506040513d601f19601f8201168201806040525081019062000f3591906200166e565b101562000f7b5760405162461bcd60e51b8152602060048201526013602482015272496e73756666696369656e7420746f6b656e7360681b604482015260640162000188565b604051632770a7eb60e21b8152336004820152602481018790526001600160a01b03841690639dc29fac90604401600060405180830381600087803b15801562000fc457600080fd5b505af115801562000fd9573d6000803e3d6000fd5b50505050600081838762000fee9190620015cc565b62000ffa9190620015cc565b604051909150339082156108fc029083906000818181858888f193505050501580156200102b573d6000803e3d6000fd5b506097546040516001600160a01b039091169084156108fc029085906000818181858888f1935050505015801562001067573d6000803e3d6000fd5b50836001600160a01b0316638da5cb5b6040518163ffffffff1660e01b8152600401602060405180830381865afa158015620010a7573d6000803e3d6000fd5b505050506040513d601f19601f82011682018060405250810190620010cd919062001688565b6001600160a01b03166108fc839081150290604051600060405180830381858888f1935050505015801562001106573d6000803e3d6000fd5b50505b831515876001600160a01b0316336001600160a01b03167f2c76e7a47fd53e2854856ac3f0a5f3ee40d15cfaa82266357ea9779c486ab9c3898987878a6001600160a01b03166318160ddd6040518163ffffffff1660e01b8152600401602060405180830381865afa15801562001184573d6000803e3d6000fd5b505050506040513d601f19601f82011682018060405250810190620011aa91906200166e565b604080519586526020860194909452928401919091526060830152608082015260a00160405180910390a450505062000a286001606555565b603380546001600160a01b038381166001600160a01b0319831681179093556040519116919082907f8be0079c531659141344cd1fd0a4f28419497f9722a3daafe3b4186f6b6457e090600090a35050565b600054610100900460ff166200125f5760405162461bcd60e51b81526004016200018890620016a8565b620008e0620012ff565b600054610100900460ff16620012935760405162461bcd60e51b81526004016200018890620016a8565b620008e062001334565b600260655403620012f15760405162461bcd60e51b815260206004820152601f60248201527f5265656e7472616e637947756172643a207265656e7472616e742063616c6c00604482015260640162000188565b6002606555565b6001606555565b600054610100900460ff16620013295760405162461bcd60e51b81526004016200018890620016a8565b620008e033620011e3565b600054610100900460ff16620012f85760405162461bcd60e51b81526004016200018890620016a8565b6114b780620016f483390190565b6001600160a01b038116811462000b6157600080fd5b600080604083850312156200139657600080fd5b8235620013a3816200136c565b946020939093013593505050565b634e487b7160e01b600052604160045260246000fd5b600082601f830112620013d957600080fd5b813567ffffffffffffffff80821115620013f757620013f7620013b1565b604051601f8301601f19908116603f01168101908282118183101715620014225762001422620013b1565b816040528381528660208588010111156200143c57600080fd5b836020870160208301376000602085830101528094505050505092915050565b600080604083850312156200147057600080fd5b823567ffffffffffffffff808211156200148957600080fd5b6200149786838701620013c7565b93506020850135915080821115620014ae57600080fd5b50620014bd85828601620013c7565b9150509250929050565b600060208284031215620014da57600080fd5b5035919050565b60008060408385031215620014f557600080fd5b50508035926020909101359150565b6000806000606084860312156200151a57600080fd5b833562001527816200136c565b95602085013595506040909401359392505050565b6000602082840312156200154f57600080fd5b81356200155c816200136c565b9392505050565b634e487b7160e01b600052601160045260246000fd5b8082028115828204841417620004e857620004e862001563565b600082620015b157634e487b7160e01b600052601260045260246000fd5b500490565b80820180821115620004e857620004e862001563565b81810381811115620004e857620004e862001563565b6000815180845260005b818110156200160a57602081850181015186830182015201620015ec565b506000602082860101526020601f19601f83011685010191505092915050565b6001600160a01b03841681526060602082018190526000906200165090830185620015e2565b8281036040840152620016648185620015e2565b9695505050505050565b6000602082840312156200168157600080fd5b5051919050565b6000602082840312156200169b57600080fd5b81516200155c816200136c565b6020808252602b908201527f496e697469616c697a61626c653a20636f6e7472616374206973206e6f74206960408201526a6e697469616c697a696e6760a81b60608201526080019056fe60806040523480156200001157600080fd5b50604051620014b7380380620014b78339810160408190526200003491620001cf565b81816003620000448382620002e8565b506004620000538282620002e8565b505050620000706200006a620000b460201b60201c565b620000b8565b600680546001600160a01b031916331790556008620000908382620002e8565b5060096200009f8282620002e8565b50620000ab83620000b8565b505050620003b4565b3390565b600580546001600160a01b038381166001600160a01b0319831681179093556040519116919082907f8be0079c531659141344cd1fd0a4f28419497f9722a3daafe3b4186f6b6457e090600090a35050565b634e487b7160e01b600052604160045260246000fd5b600082601f8301126200013257600080fd5b81516001600160401b03808211156200014f576200014f6200010a565b604051601f8301601f19908116603f011681019082821181831017156200017a576200017a6200010a565b816040528381526020925086838588010111156200019757600080fd5b600091505b83821015620001bb57858201830151818301840152908201906200019c565b600093810190920192909252949350505050565b600080600060608486031215620001e557600080fd5b83516001600160a01b0381168114620001fd57600080fd5b60208501519093506001600160401b03808211156200021b57600080fd5b620002298783880162000120565b935060408601519150808211156200024057600080fd5b506200024f8682870162000120565b9150509250925092565b600181811c908216806200026e57607f821691505b6020821081036200028f57634e487b7160e01b600052602260045260246000fd5b50919050565b601f821115620002e357600081815260208120601f850160051c81016020861015620002be5750805b601f850160051c820191505b81811015620002df57828155600101620002ca565b5050505b505050565b81516001600160401b038111156200030457620003046200010a565b6200031c8162000315845462000259565b8462000295565b602080601f8311600181146200035457600084156200033b5750858301515b600019600386901b1c1916600185901b178555620002df565b600085815260208120601f198616915b82811015620003855788860151825594840194600190910190840162000364565b5085821015620003a45787850151600019600388901b60f8161c191681555b5050505050600190811b01905550565b6110f380620003c46000396000f3fe608060405234801561001057600080fd5b50600436106101375760003560e01c80638da5cb5b116100b8578063b84c82461161007c578063b84c824614610278578063c47f00271461028b578063d3b837581461029e578063dd62ed3e146102b1578063e2daf860146102c4578063f2fde38b146102d757600080fd5b80638da5cb5b1461021257806395d89b41146102375780639dc29fac1461023f578063a457c2d714610252578063a9059cbb1461026557600080fd5b806339509351116100ff57806339509351146101b157806340c10f19146101c457806370a08231146101d9578063715018a61461020257806379ba50971461020a57600080fd5b806306fdde031461013c578063095ea7b31461015a57806318160ddd1461017d57806323b872dd1461018f578063313ce567146101a2575b600080fd5b6101446102ea565b6040516101519190610d68565b60405180910390f35b61016d610168366004610dd2565b61037c565b6040519015158152602001610151565b6002545b604051908152602001610151565b61016d61019d366004610dfc565b610396565b60405160128152602001610151565b61016d6101bf366004610dd2565b6103ba565b6101d76101d2366004610dd2565b6103dc565b005b6101816101e7366004610e38565b6001600160a01b031660009081526020819052604090205490565b6101d7610449565b6101d761045d565b6005546001600160a01b03165b6040516001600160a01b039091168152602001610151565b6101446104f0565b6101d761024d366004610dd2565b6104ff565b61016d610260366004610dd2565b610563565b61016d610273366004610dd2565b6105de565b6101d7610286366004610e70565b6105ec565b6101d7610299366004610e70565b61063b565b60075461021f906001600160a01b031681565b6101816102bf366004610f21565b61067f565b60065461021f906001600160a01b031681565b6101d76102e5366004610e38565b6106aa565b6060600880546102f990610f54565b80601f016020809104026020016040519081016040528092919081815260200182805461032590610f54565b80156103725780601f1061034757610100808354040283529160200191610372565b820191906000526020600020905b81548152906001019060200180831161035557829003601f168201915b5050505050905090565b60003361038a81858561078b565b60019150505b92915050565b6000336103a48582856108b0565b6103af85858561092a565b506001949350505050565b60003361038a8185856103cd838361067f565b6103d79190610f8e565b61078b565b6006546001600160a01b0316331461043b5760405162461bcd60e51b815260206004820152601f60248201527f50616c546f6b656e3a2063616c6c6572206973206e6f74207468652070616c0060448201526064015b60405180910390fd5b6104458282610ace565b5050565b610451610b8d565b61045b6000610be7565b565b6007546001600160a01b031633146104c95760405162461bcd60e51b815260206004820152602960248201527f50616c546f6b656e3a2063616c6c6572206973206e6f74207468652070656e6460448201526834b7339037bbb732b960b91b6064820152608401610432565b6007546104de906001600160a01b0316610be7565b600780546001600160a01b0319169055565b6060600980546102f990610f54565b6006546001600160a01b031633146105595760405162461bcd60e51b815260206004820152601f60248201527f50616c546f6b656e3a2063616c6c6572206973206e6f74207468652070616c006044820152606401610432565b6104458282610c39565b60003381610571828661067f565b9050838110156105d15760405162461bcd60e51b815260206004820152602560248201527f45524332303a2064656372656173656420616c6c6f77616e63652062656c6f77604482015264207a65726f60d81b6064820152608401610432565b6103af828686840361078b565b60003361038a81858561092a565b6105f4610b8d565b60096106008282610ffd565b507fadf3ae8bd543b3007d464f15cb8ea1db3f44e84d41d203164f40b95e27558ac6816040516106309190610d68565b60405180910390a150565b610643610b8d565b600861064f8282610ffd565b507f4df9dcd34ae35f40f2c756fd8ac83210ed0b76d065543ee73d868aec7c7fcf02816040516106309190610d68565b6001600160a01b03918216600090815260016020908152604080832093909416825291909152205490565b6106b2610b8d565b6001600160a01b0381166107185760405162461bcd60e51b815260206004820152602760248201527f50616c546f6b656e3a206e6577206f776e657220697320746865207a65726f206044820152666164647265737360c81b6064820152608401610432565b806001600160a01b03166107346005546001600160a01b031690565b6001600160a01b03167ff4e75b79500ab730f8a026ed3cba6d55331bcb64c9e9f60c548e371356e5e3c060405160405180910390a3600780546001600160a01b0319166001600160a01b0392909216919091179055565b6001600160a01b0383166107ed5760405162461bcd60e51b8152602060048201526024808201527f45524332303a20617070726f76652066726f6d20746865207a65726f206164646044820152637265737360e01b6064820152608401610432565b6001600160a01b03821661084e5760405162461bcd60e51b815260206004820152602260248201527f45524332303a20617070726f766520746f20746865207a65726f206164647265604482015261737360f01b6064820152608401610432565b6001600160a01b0383811660008181526001602090815260408083209487168084529482529182902085905590518481527f8c5be1e5ebec7d5bd14f71427d1e84f3dd0314c0f7b2291e5b200ac8c7c3b92591015b60405180910390a3505050565b60006108bc848461067f565b9050600019811461092457818110156109175760405162461bcd60e51b815260206004820152601d60248201527f45524332303a20696e73756666696369656e7420616c6c6f77616e63650000006044820152606401610432565b610924848484840361078b565b50505050565b6001600160a01b03831661098e5760405162461bcd60e51b815260206004820152602560248201527f45524332303a207472616e736665722066726f6d20746865207a65726f206164604482015264647265737360d81b6064820152608401610432565b6001600160a01b0382166109f05760405162461bcd60e51b815260206004820152602360248201527f45524332303a207472616e7366657220746f20746865207a65726f206164647260448201526265737360e81b6064820152608401610432565b6001600160a01b03831660009081526020819052604090205481811015610a685760405162461bcd60e51b815260206004820152602660248201527f45524332303a207472616e7366657220616d6f756e7420657863656564732062604482015265616c616e636560d01b6064820152608401610432565b6001600160a01b03848116600081815260208181526040808320878703905593871680835291849020805487019055925185815290927fddf252ad1be2c89b69c2b068fc378daa952ba7f163c4a11628f55a4df523b3ef910160405180910390a3610924565b6001600160a01b038216610b245760405162461bcd60e51b815260206004820152601f60248201527f45524332303a206d696e7420746f20746865207a65726f2061646472657373006044820152606401610432565b8060026000828254610b369190610f8e565b90915550506001600160a01b038216600081815260208181526040808320805486019055518481527fddf252ad1be2c89b69c2b068fc378daa952ba7f163c4a11628f55a4df523b3ef910160405180910390a35050565b6005546001600160a01b0316331461045b5760405162461bcd60e51b815260206004820181905260248201527f4f776e61626c653a2063616c6c6572206973206e6f7420746865206f776e65726044820152606401610432565b600580546001600160a01b038381166001600160a01b0319831681179093556040519116919082907f8be0079c531659141344cd1fd0a4f28419497f9722a3daafe3b4186f6b6457e090600090a35050565b6001600160a01b038216610c995760405162461bcd60e51b815260206004820152602160248201527f45524332303a206275726e2066726f6d20746865207a65726f206164647265736044820152607360f81b6064820152608401610432565b6001600160a01b03821660009081526020819052604090205481811015610d0d5760405162461bcd60e51b815260206004820152602260248201527f45524332303a206275726e20616d6f756e7420657863656564732062616c616e604482015261636560f01b6064820152608401610432565b6001600160a01b0383166000818152602081815260408083208686039055600280548790039055518581529192917fddf252ad1be2c89b69c2b068fc378daa952ba7f163c4a11628f55a4df523b3ef91016108a3565b505050565b600060208083528351808285015260005b81811015610d9557858101830151858201604001528201610d79565b506000604082860101526040601f19601f8301168501019250505092915050565b80356001600160a01b0381168114610dcd57600080fd5b919050565b60008060408385031215610de557600080fd5b610dee83610db6565b946020939093013593505050565b600080600060608486031215610e1157600080fd5b610e1a84610db6565b9250610e2860208501610db6565b9150604084013590509250925092565b600060208284031215610e4a57600080fd5b610e5382610db6565b9392505050565b634e487b7160e01b600052604160045260246000fd5b600060208284031215610e8257600080fd5b813567ffffffffffffffff80821115610e9a57600080fd5b818401915084601f830112610eae57600080fd5b813581811115610ec057610ec0610e5a565b604051601f8201601f19908116603f01168101908382118183101715610ee857610ee8610e5a565b81604052828152876020848701011115610f0157600080fd5b826020860160208301376000928101602001929092525095945050505050565b60008060408385031215610f3457600080fd5b610f3d83610db6565b9150610f4b60208401610db6565b90509250929050565b600181811c90821680610f6857607f821691505b602082108103610f8857634e487b7160e01b600052602260045260246000fd5b50919050565b8082018082111561039057634e487b7160e01b600052601160045260246000fd5b601f821115610d6357600081815260208120601f850160051c81016020861015610fd65750805b601f850160051c820191505b81811015610ff557828155600101610fe2565b505050505050565b815167ffffffffffffffff81111561101757611017610e5a565b61102b816110258454610f54565b84610faf565b602080601f83116001811461106057600084156110485750858301515b600019600386901b1c1916600185901b178555610ff5565b600085815260208120601f198616915b8281101561108f57888601518255948401946001909101908401611070565b50858210156110ad5787850151600019600388901b60f8161c191681555b5050505050600190811b0190555056fea2646970667358221220e5c9f92b8ff6f638626f000b4a7e00d7d2c01ab17a9e12176a8cfb8d21d56d0864736f6c63430008140033a264697066735822122084d5e4a98e60494d85c1ef407c1a87a5a48b769688244551a60e9a540051814864736f6c63430008140033",
  "linkReferences": {},
  "deployedLinkReferences": {}
}