{
  "_format": "hh-sol-artifact-1",
  "contractName": "TokenHoldingsAggregator",
  "sourceName": "contracts/TokenHoldingsAggregator.sol",
  "abi": [
    {
      "inputs": [
        {
          "internalType": "address",
          "name": "holder",
          "type": "address"
        },
        {
          "internalType": "address[]",
          "name": "",
          "type": "address[]"
        }
      ],
      "name": "getERC20BalanceList_OneHolder",
      "outputs": [
        {
          "internalType": "uint256[]",
          "name": "balances",
          "type": "uint256[]"
        }
      ],
      "stateMutability": "view",
      "type": "function"
    }
  ],
  "bytecode": "0x608060405234801561001057600080fd5b506101dd806100206000396000f3fe608060405234801561001057600080fd5b506004361061002b5760003560e01c80632605fd9314610030575b600080fd5b61004361003e3660046100cf565b610059565b6040516100509190610163565b60405180910390f35b60606100648461006c565b949350505050565b604080516044358082526020908102808301820190935290916370a0823160e01b91908101905b818110156100c7578260005284600452602060006024600084604401355afa156100bf57600051818501525b602001610093565b505050919050565b6000806000604084860312156100e457600080fd5b83356001600160a01b03811681146100fb57600080fd5b9250602084013567ffffffffffffffff8082111561011857600080fd5b818601915086601f83011261012c57600080fd5b81358181111561013b57600080fd5b8760208260051b850101111561015057600080fd5b6020830194508093505050509250925092565b6020808252825182820181905260009190848201906040850190845b8181101561019b5783518352928401929184019160010161017f565b5090969550505050505056fea2646970667358221220c90eae0c4da01695f4c8fed47fa2ec68f9bda3ad5e2e620a699d990e208dabb264736f6c63430008140033",
  "linkReferences": {},
  "deployedLinkReferences": {}
}